:020000040000fa
:080000000001040000000000f3
:020000040000fa
:10020000af1d22000e7f22000e01880000000000ba
:10021000000020000000e000020032000001200089
:10022000200288000c00070080b126000100200099
:1002300011000700000020000000e0000200320072
:100240000000020000000000882102000000000001
:100250000040da000000fe004440a900a052200047
:100260000000e0000300320000002000a001880030
:100270004440a8000000060091018800800078003a
:100280000000eb0015003700e280400032a0b4000f
:100290009101ba00e280400032a0b4009102ba009d
:1002a000e280400032a0b4000002eb00472bde00e9
:1002b000f507b200602ce10004003a000059eb00a1
:1002c0008301e900fdff3e00040037006128e100e2
:1002d000010032000082eb00040007001101ba00a7
:1002e0000200e000e8ff3a00000006003159ba00c1
:1002f0008301e9000c0032002159ba008301e900b2
:10030000080032000400e00003003a00e2804000f0
:1003100032a0b400f5ff370011d9ba008301e9001b
:10032000faff3a008100e800e180400032a0b4000a
:1003300000000600083e0400000000000e5e0400fd
:1003400000000000dc5e040000000000bc6f040040
:10035000000000003400f800881f7800080020002a
:10036000a80188004f0478000000fa0086c0a900a8
:100370001fe1a80021e1a9000080fa003400f90083
:10038000004006000000fa00240020000409880054
:100390000002eb00c408880014002000e408880074
:1003a00086c0a9008ec0a80021e1a8000080fa0044
:1003b000000006000000fa0024002000f408880075
:1003c000045e8000a4088800045e80000402e80047
:1003d000d408880086a0a9001fe1a9008ea0a8006b
:1003e0000080fa00000006000200fa00000f78000a
:1003f0000002eb00145e88001e027800e45d8800b5
:100400000002eb00f45d8800eaff0700ddff070053
:100410000080fa00000006001000fa003007980083
:1004200041079800520798006307980074079800e6
:100430000002eb0014079800ce0290005e029000cc
:1004400004aab900840278006e0290000402e80059
:1004500004aab900040278000402e80084027800cb
:10046000a4142000848f5200020036000082eb00aa
:10047000390037000002eb00040f78002800370035
:100480000002eb00240798000b0037009e0290004a
:1004900064bc20000482420015c0b300054a780005
:1004a0001e0290000402e800140798002e0290003b
:1004b0000402e80024079800ae0290005e0290005b
:1004c000848f5200f1ff35000002eb0024079800f2
:1004d0000b0037009e02900064bc200004824200a2
:1004e0008042eb00054a78001e0290000402e800fa
:1004f000140798002e0290000402e80024079800d8
:10050000ee0290005e02900004aab9008402780016
:100510002e029000848f5200eeff3c001e0fe80078
:100520004e0290009e027800848f5200d4ff350066
:100530009e02900064bc20000482420025c0b300eb
:10054000054a78007e029000045e88003e0290001a
:10055000245e88000002eb00040078000080fa00ae
:10056000000006000000fa00f45d8000040078003e
:100570000080fa00000006000040da000000fe00e3
:100580001004b100070035009001b10004003400f0
:100590007000b100030035009001b10001003c0083
:1005a00010000500000005006900e10004003500ae
:1005b0006d00e100030034000002b10001003200d0
:1005c00000000500100005001004b1000300350014
:1005d0009001b10001003c00100005000000050082
:1005e000800078001104b100030035009101b100d2
:1005f00001003c000050a0000000060080007800d0
:100600001106b100030035009101b10001003c006a
:100610000050a1000000060064108000e00f5200ae
:1006200006003d00044020007510800005026200b5
:10063000020032000f02ab00feff32000040da0081
:10064000feff37000a00fa00e00f500027003a00d2
:10065000b4fe8000e10f520006003200e7212000c6
:10066000c62120008521200064212000e08f530056
:1006700004003a004721200026212000e520200028
:10068000c4202000000028001400600003003a008d
:10069000800b780007002800148a7300020278009b
:1006a0000c0037008703e900950178006180610044
:1006b00002003a00e08f5300faff3a00150078007c
:1006c000e103600007003200960378000402e900ad
:1006d00087587800e00f520002003200070a20001d
:1006e000f1ff37000400510008003700240020000b
:1006f000c0bf9f00b4bf9f006a805700d1bf9f005a
:10070000e2bf9f00d40b07006fb897000080fa008b
:10071000000006000a00fa00e20f500022003e002e
:10072000b4fe8000e10f520006003200e7212000f5
:10073000a62120008421200065212000e08f5300a5
:1007400004003a004721200006212000e420200078
:10075000c5202000000028001500600003003a00ba
:10076000800b780007002800958a73000540200060
:100770009482620001003a0014a0a0008202780076
:1007800006003700940378000710b200fdff320026
:10079000b103fb00070b78008502e900e08f5200ef
:1007a000f8ff3a000800370034002000c0bf9f0067
:1007b000e2bf9f00b4bf9f00d1bf9f006a80570077
:1007c000a70b07006fb99700020078000080fa00bd
:1007d00000000600889fbe0080047800c0fe8000f4
:1007e000e00f500004003a000e0007000084eb0008
:1007f000e00f500008003500c8fe8000e08f540074
:10080000050032000900440006000700e00f500018
:1008100001003d000084eb00080078004f04be009a
:1008200000000600e00f500004003a00a4fd210083
:10083000c4fe880000027800060037000082eb004a
:10084000a51d2200850f500002003e00c0fe88005a
:100850000002eb00040078000000060000047800ad
:10086000e1000700080078006bff0700a4fb2100ef
:10087000e4874700d5fd8000889fbe008a9fbe00a8
:100880008c9fbe008e1f7800e08f52000b003a0054
:1008900024029800e402420034fe8800d5fd88005e
:1008a00045fe8800a44290000504a000254298005f
:1008b000e44290000504a0006542980067044000ef
:1008c000a4fd2100250020004244de00a91d2200d5
:1008d0004244dd00848454000507440011000900ef
:1008e0008504d800dc1d220032fe8000040656007c
:1008f00080bf9f000e0747000003eb00e4054400a3
:100900000806460002003700160020000d0178009e
:100910002242900061026200020032000a003700a9
:100920001509780092027800254290006102620069
:10093000fbff320008024100848f520002003900a0
:10094000e00f54003f003d00920678000d00a1002a
:10095000828f5600edff3e00e10f5300eaff3a00a0
:100960000fba9700840f540002003600890f54001c
:1009700010003900614ab900b0ff2f0001002000cb
:100980006143b8000402500085825800840f530070
:10099000858f5b00020035000b05780006003700ec
:1009a000110009000986d8000982b9000405780001
:1009b000010037000e0578000a00780085ff070067
:1009c000e10f400005003a000b0578000b007800ad
:1009d00080ff0700e10f40002b00320044fe800042
:1009e000000a780044fe800064034200a4429000a4
:1009f000860f5000020032000504a00001003700fd
:100a00000504a1002542980064055500a4fb2100bf
:100a10000a0540000a0878004afe8800040d7800a4
:100a200045fe80000003eb00254290000404a00076
:100a3000a4429800204290000404a10024409800a1
:100a4000b2ff370034fe8800848f52000700360062
:100a50001403be008042eb0016fe880027fe8800cb
:100a6000120a780034fe800025429800224290004d
:100a700037fe80000404a000070978002441980094
:100a800064004100010037000000eb004f077800d0
:100a90004f06be004f05be004f04be004f00b10020
:100aa00000000600e00f5000080032006400500013
:100ab00034fe8000840f50000100310030fe8800b9
:100ac000204290000404a100244098000000060089
:100ad000889fbe00000478008a9fbe0081047800d1
:100ae000e08f540005003a00e00f5400320032005d
:100af00008007800ebff070030003700e00f5400db
:100b000004003a000900780058ff070080047800cc
:100b10002a003700640254009405780068fa9700b0
:100b2000610262000200320008007800ddff070069
:100b3000090078004dff070080047800e08f540022
:100b40001e003200888f54001b00320069bd9700e0
:100b50008885550009055500c2ddde0042d5de005e
:100b60000a0178008b0f5500010036000b01780058
:100b70004211dd00880078000900780013000700aa
:100b8000888f54000d0031004255dd000a85440075
:100b9000880f5500090036000804550014fe800037
:100ba00025fe800042c4de004244dd00088444008b
:100bb000048cbe000100370088047800090078002a
:100bc0004f05be004f04be00000006000002780082
:100bd00002003700315a78000201e900e00f5100ad
:100be000fcff3a000000060000000600000278004a
:100bf0008042eb00b4cf1200fdff3a000080ea0013
:100c000000004200000006000c00fa00889fbe00b1
:100c1000f4ff270000047800d4bf9f008004eb009d
:100c200088bf9f0099bf9f00a8bf9f00240c200091
:100c300078815700b4bf9f00cfb0970070805700f5
:100c4000970107000fba9700094a78000fba97007a
:100c5000080052004f04be000080fa0000000600a9
:100c60000c00fa00a0bf9f00c0bf9f00dfff07007d
:100c7000140c2000b0bf9f00f0bf9f00d4bf9f00a6
:100c800074815700efb097006c8057003400070064
:100c90000080fa0000000600881f780060fe8000d7
:100ca0001a05070000047800080078003efe0700df
:100cb000e00f5000f9ff3a00e10f4400030032005a
:100cc00061fe800008007800d50507004f04780019
:100cd00000000600889fbe00000478008a1f78008c
:100ce000814478000205780004fd2f0008024200cc
:100cf000e90f520002003e00040478000f003700a4
:100d00000800780030fe0700e00f500005003200b8
:100d1000e00f5500030032000800780030fe0700a5
:100d2000000478000800780015fe070000c2eb0000
:100d3000e00f5000060032007805b1008984fb0006
:100d400000c2eb00890f540001003d00084278000a
:100d50004f057800044078004f04be0000000600f4
:100d60000002eb00f087470060fe8800889fbe000d
:100d7000044478008a9fbe00810478008c9fbe00e6
:100d8000020578008e1f7800e4b79f0088f79f0067
:100d9000380137008885fb008904e8000b007800e3
:100da00001fe0700e00f500002003200baff07000a
:100db0003001370055c2b300854f540020013a007e
:100dc0000044780024c0b3000047780084457800d0
:100dd00009007800040037004bc0b3000100370061
:100de0002bc0b300090078003942780095c6b300e3
:100df000854f5200970032001b003e00e6c25200b1
:100e0000854f52006900320010003e00f7c25200c8
:100e1000854f52002e00320006003e00e04f520087
:100e200027003200a5c2b300854f520076003a0079
:100e30002500370085c5b300854f520072003a0087
:100e40009bef9f00140020001a00370045c6b30036
:100e5000854f52007f003200e4c24200854f5200ad
:100e600069003a00deff370035c7b300854f5200f6
:100e70001b00320007003e00e7c25200854f5200bf
:100e800013003200e3c24200854f52005e003a0078
:100e90007400370055c7b300854f52006d00320013
:100ea000e3c24200854f520057003a009bef9f007b
:100eb0000002eb00e4b79f0005c1b3006b003700f0
:100ec0000ff49700820037000e47e800c5ff370097
:100ed000e2cf5500c0ff32008bc0b300c1ff370026
:100ee0006dff0700e04f570002003a004a02780009
:100ef000f4b79f0060fe800084040700800578003e
:100f0000e18f450013003a000ff497000b007800c2
:100f1000d50037001902fb00848f550004003a0009
:100f20008c0278008904e800f5b79f0017003700ad
:100f3000e04f570001003a000b5e78000844e900da
:100f40000d00320060fe800070040700800578000c
:100f5000010037007fb697000b02e800e10f520056
:100f6000080036000b0078008ffd0700e00f5000ee
:100f7000e8ff3200030037008c027800f5b79f00cd
:100f8000020037000c027800f4b79f00e04f5700d2
:100f9000b8003a008ff297007fb297008542e800d0
:100fa00085f79f000e4a7800b2003700e04f5700e7
:100fb00005003a008ff297008542e80085f79f0010
:100fc000ca05780001003700ffb5970060fe800079
:100fd0004e040700e10f400002003a000ff49700b2
:100fe000a1003700e04f570001003a00805d780013
:100ff0000844e9004240a900f4ff3c008b0278005d
:10100000f5b79f009b0037000484fb0004fd2f0010
:1010100008024200e90f520009003e001c040700cc
:10102000090278000044780084047800b402fb00d0
:101030000503b100e98f5200fbff360069ff37005e
:1010400060fe800031040700800f540080003a00e9
:1010500088003700a4c0b3009bef9f00a4ef9f005f
:10106000030037009bef9f0085c0b300a5ef9f00f2
:1010700009ff070060fe8000240407000042eb0027
:101080008005780084ef9f00d4022000848f5500f3
:1010900005003a0060fe80001c04070015c0b30084
:1010a0008005780085ef9f006fb19700afe897004b
:1010b0000b00780007ff0700e14f40000c003a00ea
:1010c0000ff4970061fe80000b007800d404070045
:1010d000e04f54006b003a0064fe80003400900042
:1010e00070006000680032000080eb00660037008e
:1010f00004032000848f550015003a0060fe800034
:101100000204070084072000840f500004003a0006
:101110006fb29700e00f5200070032000a0037005c
:1011200084052000840f500007003a00efb29700ba
:10113000e08f52000400320060fe8000f3030700dd
:10114000800578000200370061fe8000b4040700cb
:10115000afea97000582fb0005002000a4b79f00be
:10116000b5b79f006066b8002fb19700bfb1970078
:101170000c00be000844e900780707006fb1970033
:101180000006be00afe897000b007800d1fe070014
:101190000080fb00010020000006460081864e0012
:1011a000e04f54000900320060fe8000d7030700c2
:1011b0006fb1970080057800afe897000b007800ca
:1011c000c4fe0700e14f4000e7ff3a006fb197000f
:1011d000afe897000b007800befe0700e14f40002b
:1011e00003003a0061fe80000b0078008c040700c9
:1011f0000fea9700e04f520002003200600616002e
:10120000e0861e00e04f57001a003a008ff2970068
:101210000a85e9008542e8001fea970085f79f00ec
:10122000e44f520003003a001a0278000c8abe0014
:10123000100037001a0278000c0a78000d00370001
:1012400060fe8000b1030700808f55000900320066
:101250000ff49700e10f40000300320061fe8000b0
:101260006f04070007003700e04f540005003a0004
:101270000500370019447800e04f5400c5fe3a00dd
:101280000ff497000880fb004f0778004f06be0060
:101290004f05be004f04be000f01b1000000060064
:1012a000ef03b000889fbe008a9fbe008c9fbe00e7
:1012b000800678008e1f78000007eb00d1af9f00fa
:1012c000a2b79f0066033700dfa8970054c2b3009f
:1012d0008100e800d1af9f00844f500006003a0023
:1012e000010278000006eb0001c3b30000c2b300a6
:1012f000b7c2b3000e0037003d0290000404b200f4
:10130000040032001d027800004a7800840ee800d4
:10131000050037000000fb008d007800fc0307008b
:10132000e10f40004e0332000e07e8004c03370087
:1013300084027800d2c2b30034437800824f530055
:101340000900320005003c00804f530008003200c5
:10135000874f53000c003a0007003700814f5300bd
:1013600009003a00060037000c30a000f0ff3700fb
:101370000c00a000eeff37000c10a000ecff3700bf
:101380000c20a000eaff3700620266000100320074
:101390000c00a10068026600010032000c20a100d0
:1013a0000602fb000403b100e90f52000c003e00ee
:1013b000050378000002eb00b603fb006a22b900c7
:1013c0000703b10086027800048243009603fb0005
:1013d0000703b100e98f5300f7ff3600080037001c
:1013e0000002eb00a7c2b300874f530004003a008d
:1013f000afb197008502e80043027800a3b79f00d1
:101400000003eb0096b79f00e6c2b300954f1300b0
:101410000c003a000ce0a00064435300d54f1300c9
:1014200003003200050378000000eb0009003700dc
:10143000afb397008502e80047047800a7b79f0084
:1014400098b79f0005037800090037006a00b900cb
:101450000080430086027800b603fb000703b1005a
:10146000e98f5300f9ff360090b79f00f5ff370072
:10147000b6427800cac6b300d6af9f008acf5200ea
:10148000250032000f003c0036c6b30086cf520064
:101490009e00320004003c00e0cf5200f502320012
:1014a0006b4353000f00370046c6b30086cf52008f
:1014b000170032006543430086cf5200b2003a0065
:1014c0001300370036c7b30086cf52001f0032002a
:1014d00007003c006443530086cf520014003200e2
:1014e0000643e80086cf5200a7003a0013003700f9
:1014f00056c7b30086cf5200aa00320063434300b0
:1015000086cf5200a0003a00e5779f000d0037001b
:10151000e5779f00a5003700f00366000501200075
:1015200001003200050028000c867200d0ff370051
:10153000e5779f000c60a0009c003700e5779f00d6
:101540000c50a0000c70a00098003700afb59700b9
:10155000e5779f00cb027800abb79f00b5b79f003f
:10156000e08f520002003a00e1f82100b1b79f007d
:101570003fb397008002eb00010037008502e800ce
:10158000e6c37a00e0cf5300fcff3a00c5b79f00e6
:101590001fb19700e00f510005003200cfb1970056
:1015a000830f51000200310082027800c5b79f000e
:1015b000cfb297000004eb00850f52000100360007
:1015c000050452006806660009c2b3000f0032002d
:1015d000290037003d0290000404b20004003200ec
:1015e0001d027800094a7800840ee80005003700e3
:1015f0008d0078000002200045030700e10f400045
:10160000010032000e07e8000804e900e00f540072
:10161000f0ff3a000084eb0017003700bd02900095
:101620000504b20009003200880278009d037800aa
:1016300035437800864b780005047800870ee80073
:10164000e04f53000a003a0011003700880278008a
:101650008d0078003500fb0084bf9f0005047800f2
:101660002b0307000fba9700e10f4000080032007b
:101670000e07e800060037000c0278000806780024
:101680003fb49700cfb497005fb59700efb59700d0
:10169000890278008504e900e08f5200dfff3a00fc
:1016a000b8b79f00c9b79f00dab79f00ebb79f009c
:1016b0000c04780009c2b30004067800e00f56005d
:1016c0000f003a00660237003d0290000404b200a9
:1016d000040032001d027800094a7800840ee800f8
:1016e000050037008d007800000220000803070085
:1016f000e10f4000010032000e07e8000804e90095
:10170000e00f5400f0ff3a0055023700afb09700e9
:101710007003660041047800a1b79f00cfc4de00cb
:10172000090578008a0578000800be000a01be009d
:101730004800de00c80add0000807200e0779f00ec
:10174000e00f530009003200e04f50000700320064
:10175000e14f40000500320026002000f0779f0096
:10176000887f9f00c6b79f00030037001700200046
:10177000c7b79f00f8779f0078fb2f0008844700c9
:10178000b8b79f0082ff370069fb2f001a002000c6
:1017900089844700e5779f00b9b79f00cab79f00cb
:1017a0007bff3700e5779f000c0cb3008c027800bc
:1017b000050cb2003b003a00e00f560005003d006a
:1017c000afb297004501be004500be00a5b79f001f
:1017d0000f003700f0026600120032002fb49700ad
:1017e0004803be00f69f9f0087a79f00a8b79f00f1
:1017f00098029000cfaade0095a79f00a5a79f00a2
:101800007f9897008fa097001fa19700afa1970026
:10181000b0b79f00c1b79f00d2b79f00e3b79f004a
:101820000b003700afb09700c102780005047800c4
:10183000cfc4de00090578008a057800a1b79f00b3
:10184000b8b79f00c9b79f00dab79f00ebb79f00fa
:101850003fb09700cfb097005fb19700efb197000e
:10186000e00f5000e08f5800e00f5900e08f590062
:1018700032003d006000b8006011b8003fb497002e
:10188000cfb497005fb59700efb597003c00b30069
:1018900008045000898458000a0559008b855900b6
:1018a00022003700e00f560005003d00afb2970060
:1018b0004501be004500be00a5b79f000f003700e0
:1018c000f0026600120032002fb497008004eb0093
:1018d0004803be000005eb0096af9f00a7af9f0036
:1018e000b9af9f00caaf9f001fa89700afa897008d
:1018f0003fa99700cfa99700a8b79f00b0b79f0056
:10190000c1b79f00d2b79f00e3b79f000b0037001d
:10191000afb09700c1027800a1b79f00050478001e
:10192000090020000a0020000b002000b8b79f002b
:10193000c9b79f00dab79f00ebb79f009fb497002d
:10194000e08f54000d003a001a0020003fb09700cd
:10195000cfb097005fb19700efb197009ab79f00a3
:10196000e00f5000e08f5800e00f5900e08f590061
:10197000020032008000eb0091b79f000c0178005c
:1019800005042000020cb20082b79f00850f5100b1
:101990003400320003003c00e00f51000800320028
:1019a00048003700050820008fb19700858f51004f
:1019b00014003200050c2000858f510041003a00d0
:1019c00046ed210015c0b3003600be003601be0052
:1019d0003fb49700cfb497005fb59700efb597007d
:1019e0000040e10001c8e10002d0e10003d8e100bd
:1019f000330039008542e800f4cf5200f2ff3a008c
:101a00002f00370015c0b3000001200001002000a6
:101a10006011b8003fb49700cfb497005fb597004e
:101a2000efb597000040e10001c8e10002d0e100fd
:101a300003d8e10022003900490020000000d00056
:101a40008180d2000281d2008381d2008904e90022
:101a5000faff3a008542e800f0cf5200edff3a006d
:101a60001700370015c0b3008000200001002000df
:101a70006011b8003fb49700cfb497005fb59700ee
:101a8000efb597000040e10001c8e10002d0e1009d
:101a900003d8e1000a003900390020000000d0001e
:101aa0008180d2000281d2008381d2008904e900c2
:101ab000faff3a008542e800f5cf5200edff3a0008
:101ac000e5779f006f7597009fb597008a02fb002e
:101ad0008b8f520002003d00eb779f00040037001f
:101ae0001fb09700850f500001003d0095b79f0083
:101af000e00f520003003200e302660001003200f2
:101b00000402e90005002400850266000600320098
:101b10009fb09700810f5200020034000102520072
:101b2000010037000002eb006f7197008001eb00ad
:101b30008202fb00f3af9f00850f520002003400c9
:101b400085025200f5af9f00640266003b00320040
:101b5000e202660061026600e08f5200110032006e
:101b6000bd0290000504b200080032009d0278001a
:101b7000b6c2b300e00f52000100320006c3e80015
:101b8000864a7800850ee80015003700b002200074
:101b9000e00f5200010032000080e8008d00780064
:101ba0000c003700e00f52000e0032003d029000a2
:101bb0000404b200050032001d02780005c2b30023
:101bc000054a7800840ee800050037008d00780093
:101bd00000022000ce010700e10f400001003200aa
:101be0000e07e8007faa9700e00f52004f00320076
:101bf00008c3b300840478003d0290000404b200de
:101c0000040032001d027800084a7800840ee800c3
:101c1000050037008d00780000032000bc0107009c
:101c2000e10f4000010032000e07e8008904e900de
:101c3000f1ff3a00f9af9f003c003700ffaa970080
:101c4000e08f5200140032006802660012003a0071
:101c500008c2b300850478003d0290000404b2007d
:101c6000040032001d027800084a7800840ee80063
:101c7000050037008d00780000022000a401070055
:101c8000e10f4000010032000e07e8008904e9007e
:101c9000f1ff3a00f9af9f00e202660061026600c0
:101ca000e08f520011003200bd0290000504b20026
:101cb000080032009d027800b6c2b300e00f520067
:101cc0000100320006c3e800864a7800850ee8006d
:101cd00015003700b0022000e00f52000100320072
:101ce0000080e8008d0078000c003700e00f520003
:101cf0000e0032003d0290000404b20005003200e4
:101d00001d02780005c2b300054a7800840ee80081
:101d1000050037008d007800000220007c010700dc
:101d2000e10f4000010032000e07e8001fb39700ea
:101d3000c5ec21000602e900f0046600c223dd00c4
:101d40000c057800c7a79f000a02b2006323b90000
:101d5000e99f9f00060478004322dd00b8a79f009a
:101d600085024200da9f9f00e5af9f00a300370085
:101d70009fb597000fb097008b05e9000104200084
:101d80009bb79f00810f50007300320003003c009e
:101d9000e00f5000080032007e00370004082000e9
:101da0000fb19700840f510056003200040c200040
:101db000840f510077003a00e00f56001f003d00ed
:101dc000efa997003304be002305be003fb0970083
:101dd000cfb097005fb19700efb197000802be0047
:101de0000a03be000e0507000802be000a03be007b
:101df000e0779f000000fb00cf80de00010178004b
:101e0000820178006f0507003fb29700cfb29700bc
:101e10005fb39700efb397000002520081825a002f
:101e200002035b0083835b00b4b79f00c5b79f00cc
:101e3000d6b79f00e7b79f002e003700ef9a9700b4
:101e4000e08f5200220032006fab97003fb2970044
:101e5000cfb297003604be002605be000400be00c7
:101e60000801be0084bf9f00f5b79f000005eb008e
:101e70002a0407000801be00e0779f000000fb0075
:101e8000cf80de00350407000fba9700ffb297003d
:101e90008aaf9f000004520081845a00d8a79f0097
:101ea000e9a79f008004eb00f9a79f005fa09700bf
:101eb000efa097007fa197008fa99700b0b79f0070
:101ec000c1b79f00d2b79f00e3b79f00090037005a
:101ed000efa897003fb197001102780011000900a8
:101ee0000481d800a4002000110009000480d8005b
:101ef000e1779f00ef7197000343b000e3779f0005
:101f000024003700d4f72100df9a9700e08f5200b9
:101f100001003200c4f621003fb09700cfb0970017
:101f20005fb19700efb197004fa397000603e90058
:101f3000050033008301d1000281d3008180d300ea
:101f40000080d300f9ff37006f0060006440780024
:101f5000e0779f000f0037003fb29700cfb29700a5
:101f60005fb39700efb397003fa497000804e90020
:101f7000050033008703d1000683d3008582d30098
:101f80000482d300f9ff3700674262000443b000c7
:101f9000e4779f003d0290000404b2000700320085
:101fa0009d0278006f729700844a7800850ee800e1
:101fb000e04f520007003a0007003700ef74970027
:101fc0008d0078000900fb00d1000700e10f400000
:101fd000010032000e07e8004fa59700bfa597004b
:101fe0006fa8970064055500e38555006800500010
:101ff000caa79f00bba79f00e0af9f009fb09700bc
:10200000e08f50005aff3a00680666001400320064
:102010007fa99700e00f51001100340008c2b300ff
:10202000820478003d0290000404b20004003200f3
:102030001d027800084a7800840ee8000500370089
:102040008d00780000022000b1000700e10f400081
:10205000010032000e07e8008904e900f1ff3a00b0
:10206000dfa9970013407800e0779f00e04f500011
:1020700095fc3a000e0078004f0778004f06be002e
:102080004f05be004f04be00ef03b1000000060084
:1020900006c2b3000002780004007800b042780065
:1020a00086cf5200fbff3200e9cf5200f9ff320029
:1020b000d6c2b30086cf520003003a000002780077
:1020c00016c0b300050037000043eb00b7c2b300f1
:1020d00087cf520001003a00000278000000eb00b8
:1020e000020037006a00b90000804200b402fb0021
:1020f0000503b100e98f5200faff3600e04f5300ac
:10210000010032000000ea0000000600881f78008d
:102110000004780038029000f1026200e18f520062
:1021200006003a00840278000520b2000800320060
:1021300098029000e08f52000500320038029000b3
:102140000080eb000440a000340498002000370019
:102150000490a1003404980018029000e00f52008f
:10216000070034000402e900140498001802780003
:1021700094427800040ce8000580fb00050037005d
:10218000380290000404b200ecff3a000800780026
:1021900011000700380290000408b2000c003a0059
:1021a000fa0f500008003a0028029000e00f520099
:1021b000e2ff320018029000180ce9000402e80067
:1021c00014049800ddff3700ed0f5000e2ff3200ed
:1021d0004f047800000006000200fa00889fbe004d
:1021e000000478000002eb008a9fbe0014049800ef
:1021f0000080eb0038029000610262004000320073
:1022000004fd21008042eb0094cf12000f00320049
:10221000abfb21002a102000c9fd2f008b84440055
:10222000390290002410b2008a0f520002003a00d6
:102230000900780099000700ec8444008b8f54005b
:10224000f7ff3a0004fd2100004aeb00580190001e
:10225000e00f51000e003a0012049800ea80570087
:102260001200200048009000f6f80700e10f50002f
:1022700003003a006ff297000480fb002000370053
:10228000380290000440a000340498001300370086
:10229000a800900048009000eaf807001004980099
:1022a000e00f500003003200e10f40000d003a0043
:1022b00003003700380290000440a00002003700fd
:1022c000380290000403b30034049800a802900080
:1022d0000002eb00050c7800140498000080eb006d
:1022e00007003700280290000000e900040c780085
:1022f0001004980094427800040ce8000580fb006c
:102300004f05be004f04be000080fa00000006002a
:10231000889fbe00010478008084eb0038029000a2
:10232000e20262003b003200040378009802900051
:102330000620b20002003a00e08f520035003a0059
:102340000490a0008004780034049800f90fb200d3
:10235000e08f520002003a00a8029000050c7800bd
:10236000ea8f540005003a000408b20003003a0066
:1023700088007800d0002000e5ff070018029000d8
:10238000d8029000850f52000b0032000402e800d2
:1023900015c0b3001404980018027800094a7800a8
:1023a000040ce80004fd2100054a7800ea8f54007f
:1023b00018003a00050037000940780088007800ce
:1023c0006000070080047800120037003802900097
:1023d0000410b2000f00320018019000a800900015
:1023e00048009000cbf8070018029000840f5000be
:1023f00004003200380290000403b3003404980053
:102400008084eb000002eb00140498002802900086
:10241000040c7800090078004f04be00000006009c
:10242000e10f40001c003200310290001420b20085
:10243000e10f520015003a0021039000e00f530015
:102440001200320011029000d1029000850f52005c
:102450001000320091027800868f520002003a008c
:102460008508e800020037000402e80094009800a4
:102470009102e90031029000850878000404b2005e
:1024800005003a00804a7800000006000080eb005a
:10249000000006000080eb0000000600881f7800a6
:1024a0000004780038009000000278001420b20088
:1024b000e10f520005003a000002eb0014049800fe
:1024c00028029000040c7800190037008002780080
:1024d000242020002520b2000000eb00848f520051
:1024e00016003a00a8009000808f500013003200c0
:1024f00018019000800f5100100032004800900039
:1025000084f8070018029000840f50000300320086
:10251000380290000403b30034049800380090009f
:102520000002eb001404980028029000040c7800cc
:102530000002b200010032000080eb004f0478007e
:10254000000006000200fa00889fbe000104780027
:10255000a0ff9f0038029000840278000504b200ba
:10256000020032000000fb0035003700e20262008a
:1025700005003a000403b3001504980034049800e1
:102580000080eb002e003700d8049000e08f54004c
:1025900006003a0012002000e68057004800900034
:1025a0005cf807001904980023003700a802900087
:1025b000e08f520008003a0045fd21000430a000e1
:1025c00025049800050c78003404980025002000ac
:1025d000550498001504980018019000a800900078
:1025e000480090004bf80700280290008082eb0022
:1025f00015049800affa9700054a7800040ce8002b
:102600002ffa9700ea4f52000b003a003802900070
:102610000410b2000800320018019000a8009000d9
:10262000480090003bf807000002eb00a802900071
:1026300014049800050c78002ffa97000400fb00a2
:102640004f04be000080fa000000060003f0a20064
:10265000889fbe008a9fbe008c1f7800ae010700d5
:10266000b50133006450e1004f0032006420e10006
:102670005200320003826c0007003b000905d000c5
:102680000306d000820f54000c065d0002003900e2
:102690000200320089017800030678008582550027
:1026a00004003d000003fd008103fd008502ea00f7
:1026b0008b854200840f720002003b006000100016
:1026c000e08018006011b8000005eb007a28e100f6
:1026d0000a00390006007800c75ddd00f707b20088
:1026e000878075002d003700828171000a01780013
:1026f000610560008180d1000080d3008502e9007f
:10270000f9ff3b00060440008784480002003b00bc
:1027100060041400e0841c000988a3000700320054
:102720008a81710082817100610164008904d10095
:102730000884d3008b05e800170037000978a30050
:1027400013003a000b00e000130034008b05e90091
:102750000804440089844c000a4474000978a300ea
:102760000d003a000b00e000070034008b05e90083
:102770000804440089844c0001003a000b0020004a
:102780000978a300f7ff32000001eb0002003700d8
:10279000828171000a017800240107000cf0a70073
:1027a00001f0a0006d0137006420e10002003a0052
:1027b000838f6c006d0133000801be000200be0073
:1027c00066013700889fbe008a9fbe008c1f78007c
:1027d000510107001002200002003b00f074880045
:1027e000550137008a0062006408e10002003a00e7
:1027f000f07488005d0137006108e100fcff3200e1
:102800000800be00030478007000070001f0a1007a
:102810000900070008f0a600040037000001be0010
:1028200091042400b0fd200088ff070009f0a700f4
:1028300001f0a20049013700889fbe008a9fbe00b8
:102840008c9fbe000004be001e0107000800be00f1
:10285000890678006420e100080039000400320095
:102860000160a00012022000f274880053003700bb
:1028700091fc2300b0fd20004e0037000006eb0065
:1028800009f0a10003f82300020020000800be00a8
:102890009f0007000600340001f82300000020001c
:1028a0000801be00490007000004be002c00200003
:1028b0000800be0093e82300320a230094000700ba
:1028c000120034000801be00d1fd2300703d2b0032
:1028d0005fff07000005be00b3f32300f27a260075
:1028e0000800be002401070003f8230002002000b6
:1028f00056ff07000801be0055ff07000a01be0091
:10290000320007000004be000c06e8000800be000c
:1029100001f0a10002002000039823007c000700c2
:102920000800be00160035000801be0012010700b5
:102930000005be0032cd2c0043fb230044ff0700fe
:10294000809fbe001269280003d52b000a00be003c
:1029500009010700620f210013ef2b003cff070065
:102960000a01be00040107004f01be001700070066
:102970000801be00000107000801be0034ff070087
:102980000c00e0000b0032000c10a70001f0a200c8
:10299000b2fd200093fc23006260e10004003200dd
:1029a00022a9200063f023000c10a70063f8230085
:1029b00027ff07000df0a70001f0a2004f06be00a0
:1029c0004f05be004f04be0000000600889fbe00f9
:1029d0008a9fbe008c1f7800cf000700d60033000e
:1029e00003866c006450e1002e0032006420e10098
:1029f000330032006150e1002f0032006120e1001d
:102a00003100320085855500eb07b0000900200039
:102a100008042000050037000804440089844c00a5
:102a20000a0031000603430087834b000001530076
:102a300081815b00f8ff33000203be000800a000a4
:102a40000804440089844c00f6ff3900c639dd00d3
:102a50008301730001003200130020008904d100bb
:102a60000884d3000998a300050032000800a700dd
:102a70000300a0008904d1000884d3008b05e8007e
:102a80008904d1000884d3000001eb000281d20048
:102a90006600070001f0a1000cf0a70001f0a00003
:102aa000ae0037006420e100b00032000801be0033
:102ab0000200be00f7ff37006120e100ab003200ea
:102ac0006000b800f3ff37000000200001f8270085
:102ad000f0ff3700839f68000100e00002003d0026
:102ae00060001000e08018000300e00002003d00dc
:102af00060011100e0811900080107004f00e000ab
:102b000002003b0060001000e0801800000006009a
:102b10001400200054023700f4ff2f005202370047
:102b20000001be00670007000470a70003f0a100c9
:102b30006509b100160032000d0035006828e1007b
:102b400006003500f0ff2f00f1ff27000300e00032
:102b500013003b00010028000000050000004000b9
:102b6000818048008502e900fcff3a000800370038
:102b7000f88f420002003c008000eb0000000500de
:102b80008100d1000080d3008502e800fcff3a00fc
:102b90000300e00002003b0060001000e08018002d
:102ba000000006000001be00460007000470a700f8
:102bb00003f0a10003f8a30013003a006509b10077
:102bc00010003200090035006928e10002003500dc
:102bd000010028000000050000004000818048003e
:102be0008502e900fcff3a0000000600f88f420071
:102bf000050035008100d1000080d3008502e80087
:102c0000fcff3a00000006008000eb000000050019
:102c10004f89de00820178002e0237006011b80073
:102c20003c023700040020000f0237008100200022
:102c3000618055000b003d000b00200061fe2f005d
:102c40000100e1001d003400828171006101640017
:102c50008904d1000884d3000000e800faff3a009c
:102c60007100200061006400030070000200600039
:102c70000900320061044400e0844c000988a5008a
:102c8000050032008b05e8006808e10002003a0008
:102c90008904d1000884d300f20f20000258e1001b
:102ca00005003d00c75ddd00f907b20089807500b1
:102cb00008007800000006000bf827008b00780061
:102cc00000000500c70ade00f107b200f50fb200f0
:102cd00008003200e1cf4200020032000170a00083
:102ce00024000500810f7000010032000408050077
:102cf00044000500810f700002003a001400050036
:102d00008502e9000000400081c04800fcff3b0054
:102d10000170a000240005000004be00e9ff0700c8
:102d20000003be000405be000200be00e5ff070070
:102d3000844f7500000006000200be006450e100f0
:102d4000050036006420e100020036000968a30097
:102d500001003a000800be000160a0004f067800a4
:102d60004f05be004f04be0000000600f0ff2f001c
:102d7000f1ff2700f9ff3700889fbe008a9fbe0041
:102d80008c1f7800e4ff0700ebff330003866c0024
:102d90006450e100240032006420e100270032008a
:102da0006150e100220032006120e1002100320088
:102db0008b854200eb07b1000134b800003ab8003f
:102dc0000804420089844a00013ab8000030b80083
:102dd0008880400009014a000400330000004000e0
:102de00081804800020149008b05e900c909dd0026
:102df000830170000100320013002000c814de00bf
:102e00004814dd004709de001200b200c808de00e9
:102e10000884700085ff070001f0a1000cf0a700f6
:102e200001f0a000cdff37006120e100cfff3200ac
:102e30000801be000200be00f7ff37006150e1004c
:102e4000fcff3a00c9ff3700889fbe008a9fbe0082
:102e50008c1f78000004be009aff07000478a300ce
:102e600026003a006120e1002500320009f8a300a5
:102e700025003a006420e10021003200f507b1008e
:102e80000508a300020032000000400081804800d5
:102e90006044b80003102000020020000000400041
:102ea000818048000805440089854c000a054100de
:102eb0008b8549000a0550008b85580003003300bc
:102ec0000a00be0002047400838474008301d100f0
:102ed0000281d300830f7100f0ff3a008904d10012
:102ee0000884d3006001490082017800c1adde0092
:102ef000fb07b0004dff070098ff37000960a000f6
:102f00000800be0095ff370012022000f27488000e
:102f1000f0ff2f00f1ff270090ff37006022b8007c
:102f2000060220000000d0008180d2000482d2007e
:102f30008582d2000000a0000202520083825a0063
:102f4000030031000202420083824a000000a10017
:102f50000603e900f3ff3a0000000600020ab90088
:102f6000001bb9000200b80081004200810043004c
:102f700000000600889fbe008a9fbe003004be008d
:102f80002005be000404440085844c0006054d0065
:102f900087854d000898be000a90be000440e100fd
:102fa00005c8e10006d0e10007d8e10002003100c9
:102fb000680040001008e8004f05be004f04be0046
:102fc000000006001000fa00889fbe008a9fbe0025
:102fd000110020000605be000404be003002be0041
:102fe0002003be00c4b79f00d5b79f00e6b79f007f
:102ff000f7b79f000802520089825a000a035b005b
:103000008b835b0084bf9f0095bf9f00a6bf9f007e
:10301000b7bf9f000498be000698be004fb297004d
:10302000dfb297006fb39700ffb397000820e1006d
:1030300009a8e1000ab0e1000bb8e1000100390085
:103040008000eb004f05be00108810004f04be004a
:103050000080fa00000006001400fa00889fbe00fd
:103060008a9fbe008c9fbe000006eb003e0007005a
:10307000ccb79f00bcb79f00acb79f009cb79f0028
:103080008cb79f000605be000404be000d0420009e
:103090004fb39700bfb29700860343002fb297004b
:1030a000e00f530004003d003d0007000f0040000a
:1030b000b0ff070003003700390007000f00400091
:1030c000c0ff0700cfb2970095bf9f00e08f52006e
:1030d000090035002b000700140020000500200027
:1030e0006033b8000000720081807200020173003a
:1030f000838173001c0007000c06e8008d0f56004a
:10310000e3ff3a001fba9700e00f520005003d00b0
:103110000802be000a03be0000fe2f000f004000a0
:1031200094ff07004faa9700e00f520008003a00f2
:103130000fb497009fb497002fb59700bfb59700c5
:10314000d8b79f00e9b79f00fab79f008bbf9f00d9
:103150000c0007004f06be004f05be004f04be0026
:103160000080fa00000006000100070000000600d1
:1031700090b79f00a1b79f00b2b79f00c3b79f0051
:103180000000060001000700000006001fb09700c5
:10319000afb097003fb19700cfb197000000060095
:1031a0004f2bde00f9ff0700868373008582420003
:1031b0004f23de00a7b79f00868272000402420000
:1031c00095b79f00ffaa97004f2bde008582420033
:1031d0000602720084b79f006faa97004f23de009b
:1031e0000402420086827200f5af9f004f18de0095
:1031f00000027200e5ff0700e4af9f0000004000fe
:103200008180480002014900838149000802be0014
:103210000a03be00d6ff070000fe2f0000000600d4
:10322000881f780018002000881f78008aff070098
:103230008f87e9004f04780000000600801feb0034
:1032400085ff07008f87e90000000600889fbe0009
:103250008a9fbe00e00f5000e08f5800e00f590039
:10326000e08f59000c003d006044b8006055b80084
:103270000000540081805c0002015d0083815d00dc
:10328000180020001500070008003d001800070086
:103290000004eb00050037000004eb000f000700fe
:1032a00002003d001200070018002000dcff0700ac
:1032b000e00f5400060032006022b8006033b8000e
:1032c0000000520081805a0002015b0083815b0094
:1032d0004f05be004f04be0000000600e00f520084
:1032e000e08f5a00e00f5b00e08f5b0000000600fb
:1032f0006044b8006055b8000402540085825c0048
:1033000006035d0087835d0000000600889fbe0005
:103310008a9fbe008c1f7800e00f5000e08f58009d
:10332000e00f5900e08f59000d003d006044b800e7
:103330006055b8001c0020000000540081805c0033
:1033400002015d0083815d000820e10009a8e10021
:103350000ab0e1000bb8e1000d003d0008003700a5
:103360000006eb00e00f5200e08f5a00e00f5b0018
:10337000e08f5b0006003d006044b8006055b80077
:103380000402540085825c0006035d0087835d00b3
:10339000aaff0700e00f5600060032006022b800c6
:1033a0006033b8000000520081805a0002015b00c7
:1033b00083815b004f0678004f05be004f04be00be
:1033c00000000600889fbe008a9fbe008c1f780008
:1033d0000006eb00e00f5000e08f5800e00f5900ae
:1033e000e08f590007003d006044b8006055b80008
:1033f0001c0020000000540081805c0002015d0080
:1034000083815d00e00f5200e08f5a00e00f5b0007
:10341000e08f5b0007003d006044b8006055b800d5
:103420000c00a2000402540085825c0006035d00cb
:1034300087835d0066000700e00f5600060032003b
:103440006022b8006033b8000000520081805a004a
:1034500002015b0083815b004f0678004f05be00d0
:103460004f04be0000000600889fbe008a9fbe0079
:10347000841f780028fe07004f00780011003300f9
:10348000f0ff2f00838f6c0006003b0004056500f1
:103490000a00a7000800370009f0a600100020006d
:1034a00008003700820f5400838f5c00030039004e
:1034b0001000200001003e000000200009f0a700dd
:1034c0000000ea004f05be004f04be000000e0000f
:1034d00000000600881f7800030478000300e00065
:1034e00007003d0060001000e08018006001190036
:1034f000e081190002003b0001f02d0003003700bd
:103500000400070008f0a70001f0a0004f047800b5
:1035100000000600889fbe008a9fbe0000827000e7
:103520000402710004827100260032000004be0013
:103530000200be006011b8006b0920009502200057
:103540000182cf000a0039000541b1000082cf009e
:10355000070039000541b1000982cf00040039009d
:103560000541b1000882cf00010039000541b100da
:1035700005425200120032000a003b0082817100b5
:10358000610164008100d1000080d3008984d300f0
:103590000884d3008b05e8000442e800f7ff3a00f6
:1035a000070037000804440089844c0000004800ec
:1035b000818048008b05e9000442e900f9ff3a00e8
:1035c0009afd07004f05be004f04be000000060034
:1035d000889fbe008a9fbe008c9fbe000404b80076
:1035e0000506b8008904460060854e000606b8004e
:1035f0000a054600e0854e000706b8008b05460028
:10360000040eb800890446000a854e00e0854d008e
:10361000050eb8000a0546008b854e00060eb80060
:103620008b0546000416b8000a0546008b854e003f
:103630000516b8008b054600041eb8008b05460031
:103640000800be000a01be004f06be004f05be00c6
:103650004f04be000000060000c0da0000000600b3
:0836600000c0da0000000600c2
:020000040000fa
:0200000401f009
:04000000e6bf000057
:020000040000fa
:0200000401f009
:04000400ff7f00007a
:020000040000fa
:0200000401f009
:040008007fff000076
:020000040000fa
:0200000401f009
:04001400ffff0000ea
:020000040000fa
:10000800bc020000bc020000bc020000bc020000f0
:10001800bc020000bc020000bc020000bc020000e0
:10002800766f0000bc020000bc020000bc020000a9
:10003800bc020000bc020000fc6e0000bc02000014
:10004800bc0200008c7700002c770000aa4a000050
:10005800bc020000bc020000ee5d0000bc02000013
:10006800bc020000bc020000bc020000bc02000090
:10007800bc020000ce770000aa010000bc0200000c
:10008800bc020000bc020000bc020000bc02000070
:10009800bc020000bc020000bc020000bc02000060
:1000a800bc020000bc020000bc020000bc02000050
:1000b800bc020000bc020000bc020000bc02000040
:1000c800bc020000bc020000bc020000bc02000030
:1000d800bc020000bc020000bc020000bc02000020
:1000e800bc020000bc020000bc020000bc02000010
:0800f800bc020000bc02000084
:020000040000fa
:10010800bc020000bc020000bc020000bc020000ef
:10011800bc020000bc020000bc020000bc020000df
:10012800766f0000bc020000bc020000bc020000a8
:10013800bc020000bc020000fc6e0000bc02000013
:10014800bc0200008c7700002c770000aa4a00004f
:10015800bc020000bc020000ee5d0000bc02000012
:10016800bc020000bc020000bc020000bc0200008f
:10017800bc020000ce770000aa010000bc0200000b
:10018800bc020000bc020000bc020000bc0200006f
:10019800bc020000bc020000bc020000bc0200005f
:1001a800bc020000bc020000bc020000bc0200004f
:1001b800bc020000bc020000bc020000bc0200003f
:1001c800bc020000bc020000bc020000bc0200002f
:1001d800bc020000bc020000bc020000bc0200001f
:1001e800bc020000bc020000bc020000bc0200000f
:0801f800bc020000bc02000083
:020000040000fa
:103668000c070000574500004c4300004f4d000078
:1036780045200000746f0000207400006865000099
:103688002053000065720000436f00006d200000a9
:10369800707200006f7400006f6300006f6c0000b0
:1036a800206f00006e200000652d0000507500009e
:1036b800636b00000d0a00007468000065200000bc
:1036c80045500000464c000020650000647500006d
:1036d80063610000746900006f6e000020720000d2
:1036e8006f6200006f7400002074000079700000a1
:1036f800652000002248000022200000666f0000bc
:1037080072200000686500006c7000000d0a00005f
:10371800006100002c250000642c000025640000d6
:103728002c250000640d00000a000000422c000057
:10373800256400000d000000620d00000a00000072
:10374800632c0000256400000d0a000000440000fe
:103758002c250000642c0000256400000d000000ea
:10376800640d00000a000000652c000025640000bc
:103778002c250000640d00000a000000462c000003
:10378800256400000d000000660d00000a0000001e
:1037980067200000495200002063000068650000af
:1037a800636b0000203a00002030000078250000fc
:1037b800782c00002061000064640000726500003d
:1037c80073730000203a00002030000078250000c4
:1037d800782c000020640000617400006120000063
:1037e8003a20000030780000257800000d0a00001b
:1037f800000a0000002200004122000020200000f2
:10380800202000002020000020200000204100008f
:1038180063630000656c0000657200006f6d000056
:1038280065740000657200000d0a000000220000a7
:10383800422c00002322000020200000202000004d
:1038480020200000204200006f6400007920000062
:103858006c65000064200000303d00006f660000c9
:1038680066200000313d00006f6e0000203200002d
:103878003d6900006e760000657200007365000007
:103888000d0a000000220000432200002020000052
:1038980020200000202000002020000020530000ed
:1038a800656c000065630000746f00007220000002
:1038b800706f000073690000746900006f6e00008b
:1038c8000d0a000000220000442c0000232c0000f8
:1038d80023220000202000002020000020530000a8
:1038e80065740000206d00006f7400006f720000a6
:1038f800207300007065000065640000206c000003
:1039080065660000742c000072690000676800009a
:10391800740d00000a00000022450000222000006b
:10392800202000002020000020200000202000008f
:1039380047650000742000006d6f0000746f000080
:1039480072200000737000006565000064200000ac
:103958006c650000667400002c7200006967000046
:10396800687400000d0a000000220000462c0000c8
:10397800232200002020000020200000202000003a
:1039880020460000726f00006e740000206c00007a
:1039980065640000203000003d6f0000666600008e
:1039a800203100003d6f00006e200000323d000015
:1039b800696e00007665000072730000650d0000f6
:1039c8000a000000224700002220000020200000fa
:1039d8002020000020200000202000004952000084
:1039e80020720000656300006569000076650000cc
:1039f800720d00000a0000002248000022090000a1
:103a0800202000002020000020480000656c0000f5
:103a1800700d00000a00000022490000222000006a
:103a2800202000002020000020200000202000008e
:103a38004765000074200000636100006d650000a8
:103a4800726100002070000061720000616d00006a
:103a580065740000657200000d0a00000022000075
:103a68004a2c0000232c0000232c0000232c0000eb
:103a7800232200002053000065740000206300002a
:103a8800616d000065720000612000007061000037
:103a9800726100006d65000074650000722000000e
:103aa8006d6f0000646500002c77000069640000f9
:103ab800746800002c6800006569000067740000e5
:103ac800682c00007a6f00006f6d0000283100003c
:103ad8002c340000206f00007220000038290000fc
:103ae8000d0a0000002200004b22000020200000e8
:103af800202000002020000020200000204300009b
:103b0800616c000069620000726100007465000069
:103b180020700000726f0000786900006d69000075
:103b28007479000020730000656e0000736f000058
:103b3800727300000d0a0000002200004c2c0000e7
:103b4800232c000023220000202000002020000059
:103b5800204c000065640000206e0000756d0000b8
:103b680062650000722c0000303d00006f660000a6
:103b780066200000313d00006f6e0000203200001a
:103b88003d6900006e7600006572000073650000f4
:103b98000d0a0000002200004d2200002020000035
:103ba80020200000202000002020000020460000e7
:103bb8006c6f00006f72000020730000656e0000db
:103bc800736f0000727300000d0a000000220000ed
:103bd8004e220000202000002020000020200000ad
:103be8002020000020500000726f0000786900005b
:103bf8006d690000747900000d0a000000220000c1
:103c08004f2200002020000020200000202000007b
:103c180020200000204c0000696700006874000044
:103c280020730000656e0000736f0000727300005f
:103c38000d0a000000220000502c0000232c000078
:103c48002322000020200000202000002053000034
:103c580065740000206d00006f7400006f72000032
:103c6800207000006f73000069740000696f000025
:103c78006e2000006c650000667400002c72000065
:103c880069670000687400000d0a00000022000047
:103c980051220000202000002020000020200000e9
:103ca800202000002047000065740000206d0000ff
:103cb8006f7400006f720000207000006f730000c6
:103cc80069740000696f00006e2000006c650000d8
:103cd800667400002c7200006967000068740000b8
:103ce8000d0a0000002200005222000020200000df
:103cf800202000002020000020200000205200008a
:103d08006573000065740000206500002d700000d8
:103d1800756300006b0d00000a00000022530000cc
:103d28002220000020200000202000002020000089
:103d380020200000537400006f7000002065000010
:103d48002d700000756300006b200000616e00009c
:103d58006420000074750000726e0000206f00007f
:103d680066660000206c000065640000730d0000aa
:103d78000a00000022550000222000002020000038
:103d880020200000202000002020000047650000bf
:103d9800742000006d690000637200006f700000fd
:103da800686f00006e650000206100006d70000003
:103db8006c69000074750000646500000d0a00005d
:103dc80000220000562200002020000020200000d1
:103dd800202000002020000020560000657200000e
:103de800736900006f6e0000206f000066200000fd
:103df80053650000724300006f6d00000d0a00005b
:103e0800006900002c250000642c000025640000d7
:103e18002c250000642c0000256400002c250000df
:103e2800640d00000a0000004a2c00002564000010
:103e38002c250000642c0000256400002c250000bf
:103e4800642c0000256400002c250000640d00008f
:103e5800006a00000d0a0000006b00002c20000022
:103e68005374000061720000746900006e670000fe
:103e780020630000616c000069620000726100004c
:103e8800746900006f6e0000202d000020520000b1
:103e9800656d00006f76000065200000616e00000f
:103ea800792000006f6200006a65000063740000fa
:103eb800206900006e200000736500006e7300002a
:103ec8006f72000073200000726100006e670000ce
:103ed800650d00000a0000006b2c00002043000064
:103ee800616c000069620000726100007469000082
:103ef8006f6e000020660000696e000069730000a4
:103f080068650000640d00000a0000004c2c0000e9
:103f1800256400002c250000640d0000006c0000e2
:103f28000d0a0000006d00002c250000642c000024
:103f3800256400002c250000640d00000a00000024
:103f48006e2c0000256400002c250000642c000065
:103f5800256400002c250000642c00002564000066
:103f68002c250000642c0000256400002c2500008e
:103f7800640d00000a0000006f2c0000256400009a
:103f88002c250000642c0000256400002c2500006e
:103f9800642c0000256400002c250000642c00001f
:103fa800256400002c250000640d00000a000000b4
:103fb800502c0000256400002c250000640d000032
:103fc800007000000d0a0000007100002c250000a0
:103fd800642c0000256400000d0a00000072000037
:103fe8000d0a0000007300000d0a000000750000b3
:103ff8002c250000642c0000256400002c250000fe
:10400800640d00000a000000762c000056650000d0
:1040180072730000696f00006e200000312e0000ee
:10402800352e0000332000004e6f0000766500003a
:104038006d6200006572000020320000303100001f
:104048003620000028570000656200006f740000e9
:10405800732900000d0a00000048000057200000e6
:104068007665000072730000696f00006e3a000008
:1040780020250000580d00000a000000582c000000
:10408800256400000d0000007a2c0000436f00003a
:104098006d6d0000616e0000642000006e6f00000e
:1040a80074200000666f0000756e0000640d00004b
:0440b8000a000000fa
:020000040000fa
:1040bc002a00fa00889fbe008a1f780040179800db
:1040cc000002eb00040f78000002eb0014079800cc
:1040dc0011002000800020002d0d07006022b80088
:1040ec002407980035079800060037002e02900030
:1040fc00be02900061024200e0824a002407980050
:10410c00350798002e039000be039000f44728005a
:10411c00e5012000840f5300858f5b00f3ff340012
:10412c006d0e07006022b800240798003507980030
:10413c00060037002e029000be0290006102420081
:10414c00e0824a0024079800350798002e0390005f
:10415c00be039000f4d3200035002000840f5300e0
:10416c00858f5b00f3ff34000d0037001e027800d2
:10417c0004024200ce129000048242008002eb0046
:10418c00050a78001e0278004222dd000402470076
:10419c00680342006022b800048bbe001e0fe800ca
:1041ac001e027800e70f5200f0ff34002c0037009d
:1041bc000002eb00040f7800230037001e02780089
:1041cc004222dd00e8024700048242001404be00d3
:1041dc001e027800040078002829070000027800ed
:1041ec00cfa2de000802420089824a001e0378003a
:1041fc004233dd000603470068034300048bbe0016
:10420c006022b80024079800350798000600370094
:10421c002e029000be02900061024200e0824a0031
:10422c0024079800350798002e039000be039000d9
:10423c00743e200005002000840f5300858f5b0026
:10424c00f3ff34001e0fe8001e027800e70f520047
:10425c00daff34001e0290000402e80014079800f4
:10426c009e02900034062000848f5200d0ff340050
:10427c000002eb00040f78001b0037001e027800d0
:10428c0004024200ce129000048542001e02780007
:10429c004222dd00e8024700048242001402be0004
:1042ac000400be0057fa07000004be001e02900076
:1042bc00cfa2de000400be0052fa07000002be00ce
:1042cc000401be000800be00bdf907000002be00dc
:1042dc000400be000ffa07000002be0004027800c2
:1042ec00040d78001e0fe8001e027800e70f520044
:1042fc00e2ff34004f0578004f04be000080fa0046
:10430c00000006006800fa00889fbe008a9fbe006d
:10431c008c9fbe000042eb00044f78000002eb00c3
:10432c00740f98000002eb00041798000002eb00d9
:10433c00141798000002eb00241798000002eb0001
:10434c00540798000002eb00640798000002eb0091
:10435c00740798000002eb00040f98000e00780020
:10436c006003b000070009000018eb000082eb00ae
:10437c00342798000042eb00245798000042eb00d1
:10438c00345798000042eb00044f98009f29070017
:10439c00c5250700ec1e0700192b07000040eb0099
:1043ac00ea130700ea290700c6260700043a800032
:1043bc0061026200e00f5200020032004007a900c7
:1043cc000000fe00640420000e02420013002000d6
:1043dc0004017800e1ff2f00f0072000442a0700b9
:1043ec0014002000541798008402200064179800d1
:1043fc00840220007417980084002000041f980089
:10440c00ee1290007e12900004aab900040278000b
:10441c0004024200340798007b2207005e139000d0
:10442c000e1a9000040478000e1a90008401780093
:10443c00fe1290000e1a900004aab9000402780033
:10444c0004017800ee1290000e1a900004aab90034
:10445c000402780024379800fe1290000e1a900087
:10446c0004aab90004027800051e200084825200c0
:10447c0024002000110009008402d80000027800fa
:10448c0034379800ee1290000e1a900004aab9006e
:10449c0004027800052820008482520024002000a9
:1044ac00110009008402d80000027800840378000f
:1044bc008802780003027800820178002e31900087
:1044cc00be30900007007800ee2107003c22070068
:1044dc00dd1107008105200040b329007d2a07006b
:1044ec00882a070000027800e00f5200fcff3a0017
:1044fc005f0037002f2707000042780024579800f0
:10450c002627070000427800345798003e5290004e
:10451c00e04f5200030032003e529000e84f520030
:10452c0053003a00ae5290000e4a900084cf5200d5
:10453c004f0032002e5290000402fb006123b900a0
:10454c000082eb008082eb000602420087824a0068
:10455c008600200007002000860f5200878f5a002b
:10456c0037003e0004600100080037000c003700e3
:10457c001000370014003700180037001c003700fb
:10458c002000370024003700280037008425200045
:10459c00740f9800c4122000041798002c003700e8
:1045ac0084252000740f980084252000041798009f
:1045bc0027003700c4122000740f980084252000b7
:1045cc00041798002200370084252000740f9800ef
:1045dc0084da2f00041798001d0037000002eb004e
:1045ec00740f98000002eb000417980018003700b5
:1045fc0084da2f00740f980084252000041798008b
:10460c001300370084da2f00740f980044ed2f004c
:10461c00041798000e00370084da2f00740f9800ee
:10462c0084da2f00041798000900370044ed2f009e
:10463c00740f980084da2f000417980004003700d8
:10464c000002eb00041798000e129000740f9800f3
:10465c002e529000044f98000e1290000400780027
:10466c00421e07007e0a900004007800841e07009a
:10467c007a02470004007800372a0700000278000d
:10468c00e00f52009bff32002e5a9000e04f520078
:10469c0020033d000002eb00140798002e5a9000f6
:1046ac000402fb000402ea006123b900f4fb2f00b2
:1046bc00f5ff2f000602420087824a0046032000c5
:1046cc0007002000860f5200878f5a00f0023e0030
:1046dc00046001007d003700ed023700ec0237006a
:1046ec002101370051013700e9023700e802370099
:1046fc00e702370074013700e5023700e4023700a7
:10470c0099013700c0013700e80137000902370072
:10471c002a0237005a023700dd023700dc0237006c
:10472c00db023700c9023700d9023700d802370044
:10473c00d7023700d6023700d5023700d402370033
:10474c00d3023700d2023700d1023700d002370033
:10475c00cf02370014003700cd023700cc023700ef
:10476c00cb023700ca023700c9023700c802370033
:10477c00c7023700c6023700c5023700c402370033
:10478c00c3023700c2023700c1023700c002370033
:10479c00bf023700be023700bd023700bc02370033
:1047ac00bb02370063023700110020000000eb0051
:1047bc00be0f07000002780054079800110020007b
:1047cc0010002000b90f0700000278006407980061
:1047dc001100200020002000b40f07000002780018
:1047ec00740798005e0290008442780006ea20006c
:1047fc001e02900004024300054a78001e0290003d
:10480c000402e800140798005e02900048a2de0043
:10481c008442780006ea20001e0290000402430045
:10482c00054a78001e0290000402e8001407980064
:10483c006e0290008442780006ea20001e0290006e
:10484c0004024300054a78001e0290000402e800ae
:10485c00140798006e02900048a2de008442780093
:10486c0006ea20001e02900004024300054a78006c
:10487c001e0290000402e800140798007e029000cb
:10488c008442780006ea20001e02900004024300d5
:10489c00054a78001e0290000402e80014079800f4
:1048ac007e02900048a2de008442780006ea2000d6
:1048bc001e02900004024300054a78001e0290007c
:1048cc000402e80014079800720237004405200027
:1048dc000e0242000400780002110700440520007b
:1048ec000e024200850420008e824200b41a780029
:1048fc00a4127800e482420064024200b41a7800e8
:10490c00a4127800e482420064024200b41a7800d7
:10491c00a4127800e4824200640242008404200065
:10492c000e024200240f98002e0a90009442780048
:10493c0006ea20001e02900004024300054a78009b
:10494c001e0290000402e800140798002e0a900042
:10495c000402e800240f98002e0a9000944278007c
:10496c0006ea20001e02900004024300054a78006b
:10497c001e0290000402e800140798002e0a900012
:10498c000402e800240f98002e0a9000944278004c
:10499c0006ea20001e02900004024300054a78003b
:1049ac001e0290000402e800140798002e0a9000e2
:1049bc000402e800240f98002e0a9000944278001c
:1049cc0006ea20001e02900004024300054a78000b
:1049dc001e0290000402e8001407980084042000d2
:1049ec000e02420064024200240f98002e0a90002e
:1049fc009442780006ea20001e0290000402430054
:104a0c00054a78001e0290000402e8001407980082
:104a1c002e0a90000402e800240f98002e0a900041
:104a2c009442780006ea20001e0290000402430023
:104a3c00054a78001e0290000402e8001407980052
:104a4c002e0a90000402e800240f98002e0a900011
:104a5c009442780006ea20001e02900004024300f3
:104a6c00054a78001e0290000402e8001407980022
:104a7c002e0a90000402e800240f98002e0a9000e1
:104a8c009442780006ea20001e02900004024300c3
:104a9c00054a78001e0290000402e80014079800f2
:104aac00840420000e02420068024200240f980089
:104abc002e0a90009442780006ea20001e02900014
:104acc0004024300054a78001e0290000402e8002c
:104adc00140798002e0a90000402e800240f980096
:104aec002e0a90009442780006ea20001e029000e4
:104afc0004024300054a78001e0290000402e800fc
:104b0c00140798002e0a90000402e800240f980065
:104b1c002e0a90009442780006ea20001e029000b3
:104b2c0004024300054a78001e0290000402e800cb
:104b3c00140798002e0a90000402e800240f980035
:104b4c002e0a90009442780006ea20001e02900083
:104b5c0004024300054a78001e0290000402e8009b
:104b6c0014079800cb013700000000007b024700bf
:104b7c0004007800f828070000027800e00f5200cb
:104b8c00faff3200000000007c02470004007800ad
:104b9c00f128070000027800e00f5200faff320003
:104bac003e5a90008482fb004e5a90000402fb0097
:104bbc004822dd0004824200041798000000000027
:104bcc007b02470004007800e3280700000278000d
:104bdc00e00f5200faff3200000000007c02470098
:104bec0004007800dc28070000027800e00f520077
:104bfc00faff32003e5a90008482fb004e5a90001d
:104c0c000402fb004822dd0004824200740f98006d
:104c1c000e12900004007800d41c07007e0a90004d
:104c2c0004007800161d07009a0137000e12900040
:104c3c008442780006ea20001e0290000402430021
:104c4c00054a78001e0290000402e8001407980040
:104c5c000e12900048a2de008442780006ea200082
:104c6c001e02900004024300054a78001e029000c8
:104c7c000402e800140798007e0a90008442780031
:104c8c0006ea20001e02900004024300054a780048
:104c9c001e0290000402e800140798007e0a90009f
:104cac0048a2de008442780006ea20001e02900032
:104cbc0004024300054a78001e0290000402e8003a
:104ccc0014079800730137001e029000e3024200a3
:104cdc0004ea20000482420004007800bfed0700c3
:104cec0014c0b300044f78005e1290008442780028
:104cfc0006ea20001e02900004024300054a7800d8
:104d0c001e0290000402e800140798006e12900036
:104d1c008442780006ea20001e0290000402430040
:104d2c00054a78001e0290000402e800140798005f
:104d3c007e1290008442780006ea20001e02900049
:104d4c0004024300054a78001e0290000402e800a9
:104d5c00140798009e0290003e02900004824200cc
:104d6c00140798004b013700000000007b0247003d
:104d7c00040078007828070000027800e00f520049
:104d8c00faff3200000000007c02470004007800ab
:104d9c007128070000027800e00f5200faff320081
:104dac003e5a90000402fb00e80f52000300320050
:104dbc00e90f5200060032000a0037004e5a9000ec
:104dcc000402fb00040078004e0b07000d003700b6
:104ddc004e5a90000402fb0004007800690b070097
:104dec00080037004e5a90008402fb003e5a900097
:104dfc000402fb008500780004007800e409070039
:104e0c000000000023013700592707000002eb00c7
:104e1c0024079800200037002e02900004427800ee
:104e2c00044242000442e8008440780000ccb30005
:104e3c00572707000042780006ea20009e029000e7
:104e4c0085024300844a78001e0290000402e800a8
:104e5c00140798002e02900004427800044242008d
:104e6c008440780000ccb30049270700004278004a
:104e7c0006ea20009e02900085024300844a7800d6
:104e8c001e0290000402e800140798002e02900005
:104e9c000402e800240798002e029000e20f520052
:104eac00ddff340036270700fa0037000002eb0064
:104ebc00240798001b0037002e0290000400780095
:104ecc00ee25070000027800340f98003e0a90008f
:104edc008442780006ea20001e029000040243007f
:104eec00054a78001e0290000402e800140798009e
:104efc003e0a900048a2de008442780006ea2000b8
:104f0c001e02900004024300054a78001e02900025
:104f1c000402e800140798002e0290000402e80036
:104f2c00240798002e029000e70f5200e2ff340095
:104f3c00d80037000002eb00240798001b00370054
:104f4c002e02900004007800022607000002780070
:104f5c00340f98003e0a90008442780006ea200044
:104f6c001e02900004024300054a78001e029000c5
:104f7c000402e800140798003e0a900048a2de00e4
:104f8c008442780006ea20001e02900004024300ce
:104f9c00054a78001e0290000402e80014079800ed
:104fac002e0290000402e800240798002e029000c4
:104fbc00e70f5200e2ff3400b6003700000000009b
:104fcc007b02470004007800e3270700000278000a
:104fdc00e00f5200faff3200000000007c02470094
:104fec0004007800dc27070000027800e00f520074
:104ffc00faff32003e5a90008482fb004e5a900019
:10500c000402fb004822dd000482420024179800b1
:10501c00000000007b02470004007800ce27070048
:10502c0000027800e00f5200faff3200000000008e
:10503c007c02470004007800c727070000027800b4
:10504c00e00f5200faff32003e5a90008482fb00bf
:10505c004e5a90000402fb004822dd0004824200fc
:10506c00141798002e12900004007800681c07009a
:10507c001e12900004007800701c07008500370099
:10508c005e1c070000027800340f98003e0a900066
:10509c008442780006ea20001e02900004024300bd
:1050ac00054a78001e0290000402e80014079800dc
:1050bc003e0a900048a2de008442780006ea2000f6
:1050cc001e02900004024300054a78001e02900064
:1050dc000402e80014079800531c07000002780033
:1050ec00340f98003e0a90008442780006ea2000b3
:1050fc001e02900004024300054a78001e02900034
:10510c000402e800140798003e0a900048a2de0052
:10511c008442780006ea20001e029000040243003c
:10512c00054a78001e0290000402e800140798005b
:10513c00580037000000eb007424070000027800d0
:10514c00340f98003e0a90008442780006ea200052
:10515c001e02900004024300054a78001e029000d3
:10516c000402e800140798003e0a900048a2de00f2
:10517c008442780006ea20001e02900004024300dc
:10518c00054a78001e0290000402e80014079800fb
:10519c00100020005d24070000027800340f9800f6
:1051ac003e0a90008442780006ea20001e0290001d
:1051bc0004024300054a78001e0290000402e80035
:1051cc00140798003e0a900048a2de008442780042
:1051dc0006ea20001e02900004024300054a7800f3
:1051ec001e0290000402e800140798002000200022
:1051fc004624070000027800340f98003e0a900005
:10520c008442780006ea20001e029000040243004b
:10521c00054a78001e0290000402e800140798006a
:10522c003e0a900048a2de008442780006ea200084
:10523c001e02900004024300054a78001e029000f2
:10524c000402e800140798001200370004802000c4
:10525c00440f9800812520004e0890001d27070060
:10526c00245c8000340f98003e0a90008442780041
:10527c0006ea20001e02900004024300054a780052
:10528c001e0290000402e800140798000100370089
:10529c0000000000000000007a02470004007800c3
:1052ac002d27070000027800e00f5200faff3200b1
:1052bc002e5a9000e04f5200f8fc3a001e0290006b
:1052cc00e00f52000d0432001e427800e04f5200f5
:1052dc00070032000042eb00044f78000000000091
:1052ec009dec070000027800e00f5200fcff32003a
:1052fc009e00900000ea2000f62607000000000047
:10530c000027070000027800e00f5200fcff3a0073
:10531c00fa0337002e5a9000e04f5200f703340086
:10532c00030037007a024700040078000a270700c0
:10533c002e5a9000ea4f5200faff32002e5a90007b
:10534c00ed4f5200f7ff3200ae5a900004ea2000f5
:10535c00054a780014002000140798007a024700d0
:10536c0004007800fc26070000027800e00f5200d1
:10537c0008003200ae5a900006ea20001e0290008f
:10538c0004024300054a78001e0290000402e80063
:10539c00140798002e5a9000ea4f52000300320076
:1053ac002e5a9000ed4f5200ecff3a0005ea200017
:1053bc001e029000048242008042eb00054a7800f5
:1053cc001e0290000402e8001407980004ea200072
:1053dc00144278000402fb000400780084ec0700ff
:1053ec00000278008442780004ea2000054a780024
:1053fc0004ea2000144278000402fb006123b90087
:10540c00f4fb2f00f5ff2f000602420087824a00b2
:10541c007601200007002000860f5200878f5a006b
:10542c00ad033e0004600100170037003800370060
:10543c004a003700730037008a0037009d003700a0
:10544c00af003700ca003700640137007d01370018
:10545c00f6013700080237002002370076023700c9
:10546c00b7023700e7023700ff023700140337009a
:10547c001c03370098033700330337004e03370003
:10548c009d033700650337000000eb001a0c070082
:10549c00000278005407980010002000160c07003a
:1054ac00000278006407980020002000120c07000e
:1054bc000002780074079800fe029000851f7800a7
:1054cc006e009000801f7800de009000811f780035
:1054dc00d4b82900841f780000ea2000c7ed07002b
:1054ec00e887570000ea2000bded070000027800b5
:1054fc008400780000ea2000762607008126070049
:10550c0000027800e00f5200fcff3a007b033700ea
:10551c00840220000e024200841f7800a4b92900e6
:10552c00841f780000ea2000caed0700e4875700ca
:10553c004e12900004007800720907003100200020
:10554c0000ba2900632607006e26070000027800c7
:10555c00e00f5200fcff3a0068033700341780005c
:10556c004622de00614262008482fb003417800018
:10557c004822de00614262000483fb003417800085
:10558c004922de00614262000482fb0004024200f8
:10559c000402430004024200040378003417800024
:1055ac004722de00614262000482fb0004024300d9
:1055bc000402420004824200040f98000e0a90007c
:1055cc00841f780044ba2900841f780000ea200068
:1055dc008aed0700e487570000ea200080ed070001
:1055ec00000278008400780000ea200039260700c9
:1055fc004426070000027800e00f5200fcff3a003e
:10560c003e0337007e024700841f7800040220000e
:10561c000e024200841f7800b4ba2900841f78005f
:10562c0000ea20008bed0700e68757000e12900071
:10563c00040078004d1a07007e0a900004007800e0
:10564c008f1a07003100200040bb290021260700db
:10565c002c26070000027800e00f5200fcff3a00f5
:10566c0026033700fe0a90000e129000851f78006a
:10567c00841f780084bb2900841f780000ea200076
:10568c005eed0700e687570000ea200054ed0700a6
:10569c00000278008400780000ea20000d26070044
:1056ac001826070000027800e00f5200fcff3a00b9
:1056bc0012033700840220000e024200841f78007f
:1056cc0024bc2900841f780000ea200061ed07004b
:1056dc00e48757004e129000040078002909070057
:1056ec003100200080bc2900fa25070005260700a0
:1056fc0000027800e00f5200fcff3a00ff02370076
:10570c00ac220700004278008484fb00a32207002f
:10571c00004278000484fb009a22070000427800c3
:10572c000482fb00891f7800881f7800841f780092
:10573c00c4bc2900841f780000ea20002fed07006c
:10574c00e887570000ea200025ed070000027800ea
:10575c008400780000ea2000de250700e925070018
:10576c0000027800e00f5200fcff3a00e302370021
:10577c0011002000d0bf2900d6250700e125070025
:10578c0000027800e00f5200fcff3a00b10120004b
:10579c00f0bf2900cf250700da25070000027800aa
:1057ac00e00f5200fcff3a00b1022000b0c129000a
:1057bc00c8250700d325070000027800e00f52002f
:1057cc00fcff3a00f101200070c42900c12507003c
:1057dc00cc25070000027800e00f5200fcff3a00d5
:1057ec008102200070c62900ba250700c5250700d4
:1057fc0000027800e00f5200fcff3a00810220000a
:10580c0000c92900b3250700be2507000002780057
:10581c00e00f5200fcff3a00c102200090cb29009f
:10582c00ac250700b725070000027800e00f5200f6
:10583c00fcff3a009101200060ce2900a52507004d
:10584c00b025070000027800e00f5200fcff3a0080
:10585c00f100200000d029009e250700a925070093
:10586c0000027800e00f5200fcff3a0021022000f9
:10587c0000d1290097250700a22507000002780017
:10588c00e00f5200fcff3a003104200030d3290015
:10589c00902507009b25070000027800e00f5200be
:1058ac00fcff3a009102200070d7290089250700df
:1058bc009425070000027800e00f5200fcff3a002c
:1058cc00d102200010da2900822507008d2507005f
:1058dc0000027800e00f5200fcff3a00b1012000fa
:1058ec00f0dc29007b2507008625070000027800e4
:1058fc00e00f5200fcff3a0071012000b0de2900dd
:10590c00742507007f25070000027800e00f520085
:10591c00fcff3a00b101200030e029006d250700a2
:10592c007825070000027800e00f5200fcff3a00d7
:10593c00b1022000f0e1290066250700712507005f
:10594c0000027800e00f5200fcff3a00b102200088
:10595c00b0e429005f2507006a25070000027800e3
:10596c00e00f5200fcff3a00a101200070e7290073
:10597c00582507006325070000027800e00f52004d
:10598c00fcff3a00b102200020e929005125070054
:10599c005c25070000027800e00f5200fcff3a0083
:1059ac0061022000e0eb29004a250700552507007d
:1059bc0000027800e00f5200fcff3a00f1012000d9
:1059cc0050ee2900432507004e2507000002780001
:1059dc00e00f5200fcff3a00480237008e1b90008b
:1059ec007e139000ee1290005e1290003e0090002c
:1059fc00801f7800871f7800861f7800851f78002d
:105a0c00841f780054f02900841f780000ea2000dd
:105a1c007aec0700ec87570000ea200070ec0700d6
:105a2c00000278008400780000ea20002925070095
:105a3c003425070000027800e00f5200fcff3a000a
:105a4c002e0237000082eb00141f98000082eb003e
:105a5c00241f9800440320000e024200841f78008b
:105a6c00240320000e024200841f7800040320004f
:105a7c000e024200841f7800e40220000e02420055
:105a8c00841f7800c40220000e024200841f78009c
:105a9c00a40220000e024200841f780084f1290029
:105aac00841f780000ea20006aec0700ee8757009c
:105abc005e129000e00f520006003a00ee129000c9
:105acc007e12900004aab9000402780034079800f2
:105adc0006003700ee1290007e12900004aab90066
:105aec00040278000402420034079800be029000c1
:105afc00c47e2000848f52000c003400140020005f
:105b0c005417980044032000641798007402200076
:105b1c0074179800ee1290007e12900004aab9003f
:105b2c00040278000402420034079800b61c0700f7
:105b3c001e1a9000e10f42000b003a00ee1290008a
:105b4c000e1a900004aab90004027800052820005f
:105b5c008482520024002000110009008402d80025
:105b6c0000027800141f98002e1a9000e10f4200da
:105b7c000b003a00fe1290000e1a900004aab90015
:105b8c0004027800051e20008482520024002000ac
:105b9c00110009008402d80000027800241f98002c
:105bac005e1390000e1a9000040478000e1a9000f8
:105bbc0084017800fe1290000e1a900004aab9001d
:105bcc000402780004017800ee1290000e1a900086
:105bdc0004aab90004027800840078002e1a900000
:105bec00040078001e1a9000840378008802780064
:105bfc0003027800820178000101780080007800af
:105c0c00070078001f1c07006d1c070031002000e6
:105c1c00d0f22900af240700ba2407000002780054
:105c2c00e00f5200fcff3a00b4013700e103200002
:105c3c0010f32900a7240700b22407000002780003
:105c4c00e00f5200fcff3a00640320000e024200f9
:105c5c000400780016f907009101200000f72900d4
:105c6c009c240700a724070000027800e00f5200d4
:105c7c00fcff3a00a1013700840220000e02420012
:105c8c00841f7800640220000e024200841f7800fa
:105c9c00a4f82900841f780000ea2000edeb07002f
:105cac00e68757004e129000840278003e12900056
:105cbc0085007800040078003506070031002000cc
:105ccc0030f92900832407008e2407000002780095
:105cdc00e00f5200fcff3a0088013700a4230700b4
:105cec000002eb00240798001e0037002e029000e3
:105cfc0061026200e00f52000c003a002e0290008c
:105d0c00044278000442e8008440780000ccb300e0
:105d1c009f2307000042780006ea2000ae029000a4
:105d2c0085024300844a78000b0037002e02900055
:105d3c00044278000442e9008440780000ccb300af
:105d4c00932307000042780006ea2000ae02900080
:105d5c0085024300844a78002e0290000402e80079
:105d6c00240798002e029000e50f5200dfff34004c
:105d7c008323070044ea2000144278008402fb00cd
:105d8c00f40f20008482620054ea20001442780050
:105d9c000402fb004822dd000483420024ea2000b8
:105dac00144278008402fb00f40f2000848262000d
:105dbc0034ea2000144278000402fb004822dd0083
:105dcc008482420004ea2000144278008403fb0021
:105ddc00f40f20008483630014ea2000144278003e
:105dec000402fb004822dd0004824300861f780079
:105dfc00851f7800841f780074f92900841f7800af
:105e0c0000ea20007deb0700e887570000ea20003d
:105e1c0073eb0700000278008400780000ea200091
:105e2c002c2407003724070000027800e00f5200f2
:105e3c00fcff3a0031013700700020000f220700f0
:105e4c0000027800ae2290008502520005379800bf
:105e5c006000200009220700000278009e229000ba
:105e6c008506520050002000042207000002780032
:105e7c008e2290000506520040002000ff210700f2
:105e8c0000027800fe1a90008505520030002000b8
:105e9c00fa21070000027800ee1a90000505520066
:105eac0020002000f521070000027800de1a900087
:105ebc008504520010002000f02107000002780039
:105ecc00ce1a9000050452000000eb00eb210700f5
:105edc0000027800be1a9000050252008e3290002b
:105eec00851f78008d1f78008c1f78008b1f780021
:105efc008a1f7800891f7800881f7800841f78001b
:105f0c0044fa2900841f780000ea20003beb0700cc
:105f1c00f287570000ea200031eb070000027800fe
:105f2c008400780000ea2000ea230700f52307002c
:105f3c0000027800e00f5200fcff3a00ef0037003f
:105f4c00700020000322070010379800600020002a
:105f5c00002207008006780050002000fd21070079
:105f6c000006780040002000fa2107008005780028
:105f7c0030002000f72107000005780020002000e9
:105f8c00f42107008004780010002000f1210700a4
:105f9c00000478000000eb00ee21070000027800fe
:105fac001e309000801f78008d1f78008c1f7800a9
:105fbc008b1f78008a1f7800891f7800881f780053
:105fcc00841f780004fc2900841f780000ea20005c
:105fdc000aeb0700f287570000ea200000eb0700ed
:105fec00000278008400780000ea2000b923070042
:105ffc00c423070000027800e00f5200fcff3a00b7
:10600c00be003700240220000e024200841f7800dc
:10601c00440220000e024200841f7800c4fd2900b7
:10602c00841f780000ea20000aeb0700e68757007f
:10603c002e12900004007800751807001e129000b4
:10604c00040078007d1807003100200050fe290064
:10605c00a0230700ab23070000027800e00f5200da
:10606c00fcff3a00a50037006f1807000004780009
:10607c006218070000027800881f7800841f7800df
:10608c0094fe2900841f780000ea2000dbea070058
:10609c00e687570000ea2000d1ea070000027800ea
:1060ac008400780000ea20008a230700952307006b
:1060bc0000027800e00f5200fcff3a008f0037001e
:1060cc003100200030ff2900822307008d230700b8
:1060dc0000027800e00f5200fcff3a000000fe00c6
:1060ec00860037000002eb00740f98000002eb00f2
:1060fc00041798000e129000040078009b170700fc
:10610c007e0a900004007800dd1707008000eb0089
:10611c00800020001e0507000000eb007906070038
:10612c000000eb00970607003100200070ff2900eb
:10613c00682307007323070000027800e00f520069
:10614c00fcff3a006d003700200020006f20070094
:10615c0080047800100020006c20070000047800f8
:10616c000000eb006920070000027800891f78000e
:10617c00881f7800841f7800b4ff2900841f7800e2
:10618c0000ea20009dea0700e887570000ea20009b
:10619c0093ea0700000278008400780000ea2000ef
:1061ac004c2307005723070000027800e00f520031
:1061bc00fcff3a00510037008102200080002a00c9
:1061cc00442307004f23070000027800e00f520021
:1061dc00fcff3a003e229000841f780014032a0032
:1061ec00841f780000ea200084ea0700e487570047
:1061fc0000ea20007aea07000002780084007800a8
:10620c0000ea2000332307003e2307000002780039
:10621c00e00f5200fcff3a00380037004402200027
:10622c000e024200841f780024042a00841f780088
:10623c0000ea200087ea0700e48757002e1290003e
:10624c000482e80005ea2000d6c0b30086727a000a
:10625c002e1290006302420005ea2000a6c0b30093
:10626c0086727a00080037002e1290000402e800b3
:10627c0005ea200016c3b30086727a002e12900035
:10628c000402e900241798002e129000e00f52002f
:10629c00f5ff3c0004ea200085c7b300054a7800ee
:1062ac0014ea2000c5c2b300054a780000ea2000b9
:1062bc004bea0700000278008400780000ea200016
:1062cc00042307000f23070000027800e00f5200a0
:1062dc00fcff3a00090037005101200080042a001d
:1062ec00fc2207000723070000027800e00f520091
:1062fc00fcff3a0001003700000000000000000025
:10630c00dbf837000200fa00192207000002eb004c
:10631c00040f78000d0037009e02e80004d1200025
:10632c0004824200144278008442780004d1200098
:10633c001e02420014427800054178008440780027
:10634c00c0cdb300422207001e8fe8009e027800e9
:10635c00740d2000848f5200efff360008220700d6
:10636c000080fa00000006000200fa00881f780086
:10637c00ff2107000002eb00040f78000d0037002e
:10638c001e04e80004d120001e02420014427800d2
:10639c0084407800c0cdb300fd2107000042780096
:1063ac008442780004d1200004024400054a78009d
:1063bc001e8fe8009e027800740d2000848f52001e
:1063cc00efff3600ee2107004f0478000080fa0042
:1063dc00000006000200fa00000f78001e02780090
:1063ec00e10f520009003200e20f52000c003200a3
:1063fc00e00f52000f003a00c4c0b3000443780011
:10640c0035d52000864a78000c00370084c0b300d4
:10641c000443780035d52000864a78000700370001
:10642c0024c0b3000443780035d52000864a780098
:10643c00020037000082eb00010037000002eb0085
:10644c00040078000080fa00000006000200fa0048
:10645c00000f7800440420009e027800848f5200c4
:10646c00070032001e027800f10f520004003200c7
:10647c00340320009e027800848f520007003a00fb
:10648c001e027800044278000443780035d42000c2
:10649c00864a78000002eb00010037000082eb0016
:1064ac00040078000080fa00000006000200fa00e8
:1064bc00000f78001e027800e00f52001b00320023
:1064cc00040220009e027800848f520017003200d4
:1064dc00040320009e027800848f520013003200c7
:1064ec00040420009e027800848f52000f003200ba
:1064fc00040520009e027800848f52000b003200ad
:10650c00040620009e027800848f5200070032009f
:10651c00040620009e027800848f52000300320093
:10652c001e027800f00f520007003a001e0278009d
:10653c000442780004437800d5d32000864a7800c2
:10654c000002eb00010037000082eb000400780031
:10655c000080fa00000006000800fa0020079800ee
:10656c0031079800ae0290003e029000848f5200da
:10657c00020039000082eb0020003700be029000c0
:10658c0034382000848f5200020036000082eb0069
:10659c001a0037002e0290000402e900240798002c
:1065ac002e029000044f78002e0290004822de004c
:1065bc00144798003e029000244798003e02900039
:1065cc004822de00344798009e42900094d120006f
:1065dc00054a78009e427800b4d12000054a780024
:1065ec00be42900014d22000054a7800ae429000c2
:1065fc0034d22000054a78000002eb000400780039
:10660c000080fa00000006000800fa00200798003d
:10661c0031079800ae0290003e029000848f520029
:10662c00020039000082eb001d003700be02900012
:10663c00341f2000848f5200020036000082eb00d1
:10664c00170037002e029000044f78002e029000a5
:10665c004822de00144798003e0290002447980020
:10666c003e0290004822de00344798009e42900083
:10667c00d4d12000054a78009e427800f4d1200045
:10668c00054a7800be42900054d22000054a78009a
:10669c00ae42900074d22000054a78000002eb0054
:1066ac00040078000080fa00000006000c00fa00dc
:1066bc00300798004107980052079800be029000de
:1066cc004e029000848f5200020039000082eb00d1
:1066dc002e003700ce029000341f2000848f520011
:1066ec00020036000082eb0028003700de0290002a
:1066fc0034382000848f5200020036000082eb00f8
:10670c00220037003e029000044f78003e029000b9
:10671c004822de00144798004e029000244798004f
:10672c004e0290004822de00344798005e02900032
:10673c00444798005e0290004822de0054479800bf
:10674c009e42900014da2000054a78009e427800a0
:10675c0034da2000054a7800be42900054da20005a
:10676c00054a7800ae42900074da2000054a7800a1
:10677c00de42900094da2000054a7800ce42900068
:10678c00b4da2000054a78000002eb00040078001f
:10679c000080fa00000006000600fa0010079800be
:1067ac00210798001e029000e00f520006003200f4
:1067bc002e029000e00f520003003200a4ccb30074
:1067cc00044f78000e0037001e029000e00f5200bc
:1067dc0003003200a4c4b300044f78000800370053
:1067ec002e029000e00f520003003200a4c8b30048
:1067fc00044f780002003700a4c0b300044f7800a7
:10680c001e42780004437800f5d32000864a7800b5
:10681c000080fa00000006000400fa0020479800ef
:10682c00314798000002eb00040f78000e0037008f
:10683c0004d120001e024200944278002e429000a7
:10684c0084cf520007003a009e02e80004d12000d9
:10685c0004824200be429000054a78000002eb0020
:10686c00060037001e8fe8009e027800740d200091
:10687c00848f5200eeff36000082eb00040078009b
:10688c000080fa00000006000600fa00204798007d
:10689c00210798000002eb00040f78000f0037006e
:1068ac0004d120001e024200944278002e42900037
:1068bc0084cf520008003a009e02e80004d1200068
:1068cc0004824200944278002e029000054a78001f
:1068dc000002eb00060037001e8fe8009e027800d5
:1068ec00740d2000848f5200edff36000082eb0007
:1068fc00040078000080fa00000006000200fa0094
:10690c00004f7800114798009e42900094d22000ce
:10691c00054a78009e427800b4d22000054a7800df
:10692c000080fa00000006000600fa00004f780014
:10693c001147980022479800334798004447980025
:10694c00f4c4b3009e42780084cf5200020036009b
:10695c000082eb00100037009e427800d4d2200059
:10696c00054a78009e429000f4d22000054a780037
:10697c00ae42900014d32000054a7800ce4290001d
:10698c0034d32000054a7800be42900054d3200036
:10699c00054a78000002eb00040078000080fa0041
:1069ac00000006000400fa00008fbe001e02be00ac
:1069bc004a2bdd004622de0004027300c62ade00ec
:1069cc00044278000443780095d32000864a78006e
:1069dc001e02be00422bdd004e22de0004027300bc
:1069ec00ce2ade00044278000443780075d32000e0
:1069fc00864a78000042eb0004437800b5d32000af
:106a0c00864a78000080fa00000006000200fa00b6
:106a1c00004f78009e42780054d42000054a78003c
:106a2c000080fa00000006000200fa00000f780057
:106a3c001e027800e00f52000800320055d52000ed
:106a4c009542780004c8b30004c272000443780075
:106a5c0055d52000864a78000600370054d5200012
:106a6c00144278000474a1000443780055d520002a
:106a7c00864a78000080fa00000006000400fa0044
:106a8c00004f780011479800224798009e427800ea
:106a9c0094d52000054a78009e429000b4d5200081
:106aac00054a7800ae429000d4d52000054a780003
:106abc000080fa00000006000200fa00004f780087
:106acc00114798009e4278007fc262000445b000d6
:106adc0084427800f6d52000054b78001e429000c9
:106aec0016d62000044b78000080fa000000060047
:106afc000600fa0010079800414798004e4290009b
:106b0c00e342620054002000842add0004c8b30074
:106b1c0004c242000443780075de2000864a7800e7
:106b2c000002eb00040f78000c0037001e02780006
:106b3c000402420036052000040343001e027800c4
:106b4c009e029000048242009442780004d12000fe
:106b5c0004024300054a78001e0fe8001e0278006c
:106b6c00e10f5200f1ff36000080fa000000060031
:106b7c000000fa00fe1f070074de200014427800ab
:106b8c008442780064de20001442780005417800cd
:106b9c0084407800c0cdb3002d200700f81f0700fb
:106bac0085d720009542780024d620001442780026
:106bbc008540780004407800020007000080fa004d
:106bcc00000006000600fa00404798005147980064
:106bdc000002eb0014079800e51f07000002eb0011
:106bec00040f78001c00370004d120001e02420064
:106bfc00944278004e42900084cf52001500390028
:106c0c0004d120001e024200944278005e429000a3
:106c1c0084cf52000f003e009e02e80004d12000f9
:106c2c0004824200144278008442780004d120008f
:106c3c001e0242001442780005417800844078001e
:106c4c00c0cdb300022007001e0290000402e80031
:106c5c00140798001e8fe8009e027800740d200027
:106c6c00848f5200e0ff3600c51f07001e02900003
:106c7c00040078000080fa00000006000400fa000e
:106c8c00100798000002eb00040f78000c0037008e
:106c9c001e02780004024200b606200004034300e2
:106cac001e0278009e0290000482420094427800fa
:106cbc0004d1200004024300054a78001e0fe800ae
:106ccc001e027800e10f5200f1ff36000080fa003e
:106cdc00000006000200fa00004f780011479800ef
:106cec009e427800d4d82000054a78009e4290003d
:106cfc00f4d82000054a78000080fa000000060055
:106d0c000200fa00004f7800114798009e4278006c
:106d1c0014d92000054a78009e42900034d92000f6
:106d2c00054a78000080fa00000006000200fa0014
:106d3c00004f7800114798009e42780054d92000eb
:106d4c00054a78009e42900074d92000054a7800cc
:106d5c000080fa00000006000200fa00004f7800e4
:106d6c009e42780044002000042add006f4242005d
:106d7c0004437800d5da2000864a78000080fa00b7
:106d8c00000006000200fa00004f7800114798003e
:106d9c009e42780044002000842add001e429000b0
:106dac006f42620004c2420004437800f5da20000e
:106dbc00864a78000080fa00000006000200fa0003
:106dcc00004f7800114798009e429000440020002c
:106ddc00842add001e4378006f42630004c2420027
:106dec000443780015db2000864a78000080fa0006
:106dfc00000006000400fa00008fbe001e02be0058
:106e0c0040aade00cfa2de000442780004437800e2
:106e1c0035db2000864a78001e02be00482bdd00c0
:106e2c004822de0004027300c8aade000442780087
:106e3c000443780055db2000864a78001e02780057
:106e4c00044278000443780075db2000864a780001
:106e5c000080fa00000006000200fa00004f7800e3
:106e6c009e42780094db2000054a78000080fa00ee
:106e7c00000006000400fa00000f780011079800cb
:106e8c001e0278004822de00044278000443780099
:106e9c00f5db2000864a78001e0278000442780058
:106eac000443780015dc2000864a78001e0290000e
:106ebc004822de00044278000443780035dc2000d0
:106ecc00864a78001e029000044278000443780041
:106edc0055dc2000864a78000080fa00000006008d
:106eec000600fa00004f78001147980022479800de
:106efc00334798004447980055479800ae4290009d
:106f0c0074dc2000054a7800be42900094dc20001e
:106f1c00054a78009e427800b4dc2000054a7800cf
:106f2c009e429000d4dc2000054a7800ce429000ae
:106f3c00f4dc2000054a7800de42900014dd2000cd
:106f4c00054a78000080fa00000006000800fa00ec
:106f5c00000f78001107980022079800330798005b
:106f6c00240d20001e0f42001e029000240db000c4
:106f7c00140798002e029000670242002407980024
:106f8c003e02900067024200340798009e02900077
:106f9c0024352000848f5200020036000082eb0062
:106fac004f003700be029000741e2000848f5200e8
:106fbc00020036000082eb00490037001e029000f0
:106fcc009e027800848f520004003100ae029000c3
:106fdc003e029000848f5200020039000082eb00c8
:106fec003f003700541a20009e027800848f520014
:106ffc000c0036009e02900094272000848f5200d3
:10700c0008003e00ae029000740a2000848f5200eb
:10701c0004003600be02900064142000848f5200dd
:10702c00020036000082eb002d0037001e027800b3
:10703c004822de00044278000443780035dd20004d
:10704c00864a78001e0278000442780004437800d7
:10705c0055dd2000864a78001e0290004822de0092
:10706c00044278000443780075dd2000864a7800dd
:10707c001e029000044278000443780095dd200045
:10708c00864a78002e0290004822de0004427800e6
:10709c0004437800b5dd2000864a78002e0290006b
:1070ac000442780004437800d5dd2000864a78003d
:1070bc003e0290004822de0004427800044378002f
:1070cc00f5dd2000864a78003e02900004427800ec
:1070dc000443780015de2000864a78000002eb009d
:1070ec00040078000080fa00000006000600fa0098
:1070fc0010079800210798001e029000e00f520024
:10710c00060032002e029000e00f52000300320005
:10711c00c4c3b300044f78000e0037001e02900069
:10712c00e00f520003003200c4c2b300044f7800d9
:10713c00080037002e029000e00f520003003200ce
:10714c00c4c1b300044f780002003700c4c0b300c0
:10715c00044f78001e4278000443780035de20008e
:10716c00864a78000080fa00000006000200fa004f
:10717c00000f78001e027800e00f5200070032006a
:10718c0074d42000144278000474a10004437800e5
:10719c0075d42000864a78000700370075d420008b
:1071ac009542780004c8b30004c27200044378000e
:1071bc0075d42000864a78000080fa000000060092
:1071cc000400fa00000f7800110798001e027800e6
:1071dc00e00f52000800320075d420009542780070
:1071ec00f4cbb30004c262000443780075d42000d1
:1071fc00864a78000700370075d420009542780045
:10720c0004c4b30004c272000443780075d4200097
:10721c00864a78001e029000e00f520008003200ef
:10722c0075d4200095427800f4cdb30004c26200fe
:10723c000443780075d42000864a78000700370094
:10724c0075d420009542780004c2b30004c27200c9
:10725c000443780075d42000864a78000080fa0038
:10726c00000006000400fa00d4d320001442780079
:10727c000482fb0005032000850f52002800320019
:10728c0005032000850f520008003c00f00f52004f
:10729c001b00320005022000850f52001c0032003a
:1072ac00e00f5200120032003100370005052000bb
:1072bc00850f52002200320005052000850f520078
:1072cc0004003c0005042000850f52001800320019
:1072dc002700370005062000850f52001c003200e5
:1072ec0005072000850f52001d00320020003700da
:1072fc000400280005072000048fbe001e00370084
:10730c000400200065092000048fbe001a0037001d
:10731c000400240085032000048fbe0016003700f3
:10732c0004002200c5012000048fbe0012003700ab
:10733c0004002100e5002000048fbe000e00370081
:10734c000480200075002000048fbe000a00370066
:10735c000440280035002000048fbe0006003700d2
:10736c0004202c0015002000048fbe000200370002
:10737c006022b8000900370034d520001442780090
:10738c00ec4f520004003a001e02be000402420000
:10739c0085824a00048fbe001e02be000400be009f
:1073ac000080fa00000006000e00fa00200798008a
:1073bc00310798004207980053079800640798001b
:1073cc005e029000e00f5200030035005e02900058
:1073dc00e30f5200020034000082eb00690037001a
:1073ec006e029000e00f5200030035006e02900018
:1073fc00e30f5200020034000082eb006100370002
:10740c0098ff07000002be00666a200006abb900b8
:10741c00060378006020b90080037800070343005e
:10742c0084027800646a2000042ab8000503430033
:10743c00860278002e039000cfb3de000601be005a
:10744c000400be00a0ed07000002be00040f78008f
:10745c0084ff07000002be00666a200006abb9007c
:10746c00060378006020b90080037800070343000e
:10747c0084027800646a2000042ab80005034300e3
:10748c00860278003e039000cfb3de000601be00fa
:10749c000400be008ced07000002be00140798002b
:1074ac001e0278004822de00044278000443780073
:1074bc00b5d42000864a78001e0278000442780079
:1074cc0004437800d5d42000864a78001e02900030
:1074dc004822de000442780004437800f5d42000f2
:1074ec00864a78001e02900004427800044378001b
:1074fc0015d52000864a78004e029000e00f52000d
:10750c000700320074d42000144278000444a00018
:10751c000443780075d42000864a780007003700b1
:10752c0075d4200095427800f4ceb30004c26200fa
:10753c000443780075d42000864a78006e029000cf
:10754c0004427800e34262005e029000044278003c
:10755c0063436200240020000432dd0084c2420038
:10756c0076d420001643780004cfb30004426300a5
:10757c0004c242000443780075d42000864a780087
:10758c000002eb00040078000080fa000000060006
:10759c000400fa00000f7800110798001e02780012
:1075ac00050020007600200007002000860f520006
:1075bc00878f5a00ef003e0004600100070037007f
:1075cc00230037003f0037005b003700770037009f
:1075dc0093003700af003700cb0037001e0290003d
:1075ec00e10f52000e003600241680004622de0009
:1075fc00614262000404a200614262000482fb004a
:10760c00610262004622dd0026168000f5fb2f0089
:10761c008502630005027200241688002c013700d5
:10762c001e02900004427800614262000482fb005a
:10763c00610262004622dd0026168000f5fb2f0059
:10764c0085026300050272002416880020013700b1
:10765c001e029000e10f52000e003600241680002e
:10766c004722de00614262000404a2006142620013
:10767c000482fb00610262004722dd0026168000b6
:10768c00f5f72f00850263000502720024168800ae
:10769c000f0137001e029000044278006142620024
:1076ac000482fb00610262004722dd002616800086
:1076bc00f5f72f008502630005027200241688007e
:1076cc00030137001e029000e10f52000e0036003d
:1076dc00241680004922de00614262000404a200ec
:1076ec00614262000482fb00610262004922dd00fb
:1076fc0026168000f5df2f0085026300050272005c
:10770c0024168800f20037001e0290000442780014
:10771c00614262000482fb00610262004922dd00ca
:10772c0026168000f5df2f0085026300050272002b
:10773c0024168800e60037001e029000e10f52006c
:10774c000e003600241680004c22de0061426200de
:10775c000404a200614262000482fb006102620028
:10776c004c22dd0026168000f5ff2e0085026300fa
:10777c000502720024168800d50037001e02900006
:10778c0004427800614262000482fb0061026200e4
:10779c004c22dd0026168000f5ff2e0085026300ca
:1077ac000502720024168800c90037001e029000e2
:1077bc00e10f52000e003600241680004a22de0033
:1077cc00614262000404a200614262000482fb0078
:1077dc00610262004a22dd0026168000f5bf2f00f0
:1077ec00850263000502720024168800b800370079
:1077fc001e02900004427800614262000482fb0089
:10780c00610262004a22dd0026168000f5bf2f00bf
:10781c00850263000502720024168800ac00370054
:10782c001e029000e10f52000e003600241680005c
:10783c004d22de00614262000404a200614262003b
:10784c000482fb00610262004d22dd0026168000de
:10785c00f5ff2d00850263000502720024168800d6
:10786c009b0037001e0290000442780061426200c7
:10787c000482fb00610262004d22dd0026168000ae
:10788c00f5ff2d00850263000502720024168800a6
:10789c008f0037001e029000e10f52000e003600e0
:1078ac00241680004e22de00614262000404a20015
:1078bc00614262000482fb00610262004e22dd0024
:1078cc0026168000f5ff2b0085026300050272006e
:1078dc00241688007e0037001e02900004427800b7
:1078ec00614262000482fb00610262004e22dd00f4
:1078fc0026168000f5ff2b0085026300050272003e
:10790c0024168800720037001e029000e10f52000e
:10791c000d003600241680004f22de000442780051
:10792c000404a200614262000482fb004f22dd00cd
:10793c0026168000f5ff2700850263000502720001
:10794c0024168800620037001e0290000442780062
:10795c00614262000482fb004f22dd00261680008b
:10796c00f5ff2700850263000502720024168800cb
:10797c00570037001e0290000442780061426200fa
:10798c000482fb004f22dd0026168000f5ff270045
:10799c0085026300050272002416880024168000fc
:1079ac004f22de00044278000482fb006102620078
:1079bc004e22dd0026168000f5ff2b0085026300a9
:1079cc000502720024168800241680004e22de0068
:1079dc00614262000482fb00610262004d22dd0004
:1079ec0026168000f5ff2d0085026300050272004b
:1079fc0024168800241680004d22de0061426200ad
:107a0c000482fb00610262004a22dd00261680001f
:107a1c00f5bf2f0085026300050272002416880052
:107a2c00241680004a22de00614262000482fb00c0
:107a3c00610262004c22dd0026168000f5ff2e004c
:107a4c00850263000502720024168800241680004b
:107a5c004c22de00614262000482fb006102620083
:107a6c004922dd0026168000f5df2f008502630019
:107a7c000502720024168800241680004922de00bc
:107a8c00614262000482fb00610262004722dd0059
:107a9c0026168000f5f72f008502630005027200a0
:107aac0024168800241680004722de006142620002
:107abc000482fb00610262004622dd002616800073
:107acc00f5fb2f0085026300050272002416880066
:107adc000080fa00000006000000fa00c4c2a900f1
:107aec00c4e2a900c522a900c582a900c542a9000b
:107afc00c5a2a900c5c2a900c5e2a9000080fa0070
:107b0c00000006000200fa00000f78001e02780048
:107b1c00e10f52000e003600841680004222de0077
:107b2c00614262000404a200614262000482fb0014
:107b3c00610262004222dd0086168000b5ff2f0034
:107b4c008502630005027200841688000b00370062
:107b5c001e02780004427800614262000482fb003d
:107b6c00610262004222dd0086168000b5ff2f0004
:107b7c008502630005027200841688000080fa00fa
:107b8c00000006000200fa00000f78001e027800c8
:107b9c00e10f52000e003600841680000402d10062
:107bac00614262000404a200614262000482fb0094
:107bbc00610262000402420086168000d5ff2f008d
:107bcc008502630005027200841688000b003700e2
:107bdc001e02780004427800614262000482fb00bd
:107bec00610262000402420086168000d5ff2f005d
:107bfc008502630005027200841688000080fa007a
:107c0c00000006000000fa00241680004622de0068
:107c1c006142620004c2ea00614262000482fb001d
:107c2c00610262004622dd0026168000f5fb2f0063
:107c3c008502630005027200241688002416800059
:107c4c004722de006142620004c2ea006142620027
:107c5c000482fb00610262004722dd0026168000d0
:107c6c00f5f72f00850263000502720024168800c8
:107c7c00241680004922de006142620004c2ea0040
:107c8c00614262000482fb00610262004922dd0055
:107c9c0026168000f5df2f008502630005027200b6
:107cac0024168800241680004c22de0061426200fb
:107cbc0004c2ea00614262000482fb0061026200bd
:107ccc004c22dd0026168000f5ff2e008502630095
:107cdc000502720024168800241680004a22de0059
:107cec006142620004c2ea00614262000482fb004d
:107cfc00610262004a22dd0026168000f5bf2f00cb
:107d0c008502630005027200241688002416800088
:107d1c004d22de006142620004c2ea006142620050
:107d2c000482fb00610262004d22dd0026168000f9
:107d3c00f5ff2d00850263000502720024168800f1
:107d4c00241680004e22de006142620004c2ea006a
:107d5c00614262000482fb00610262004e22dd007f
:107d6c0026168000f5ff2b008502630005027200c9
:107d7c0024168800241680004f22de00044278006e
:107d8c0004c2ea00614262000482fb004f22dd0063
:107d9c0026168000f5ff270085026300050272009d
:107dac00241688000080fa00000006000000fa008b
:107dbc00241680004622de006142620004c2ea0002
:107dcc00614262000482fb00610262004622dd0017
:107ddc0026168000f5fb2f00850263000502720059
:107dec00241688000080fa00000006000000fa004b
:107dfc00241680004722de006142620004c2ea00c1
:107e0c00614262000482fb00610262004722dd00d5
:107e1c0026168000f5f72f0085026300050272001c
:107e2c00241688000080fa00000006000000fa000a
:107e3c00241680004922de006142620004c2ea007e
:107e4c00614262000482fb00610262004922dd0093
:107e5c0026168000f5df2f008502630005027200f4
:107e6c00241688000080fa00000006000000fa00ca
:107e7c00241680004c22de006142620004c2ea003b
:107e8c00614262000482fb00610262004c22dd0050
:107e9c0026168000f5ff2e00850263000502720095
:107eac00241688000080fa00000006000000fa008a
:107ebc00241680004a22de006142620004c2ea00fd
:107ecc00614262000482fb00610262004a22dd0012
:107edc0026168000f5bf2f00850263000502720094
:107eec00241688000080fa00000006000000fa004a
:107efc00241680004d22de006142620004c2ea00ba
:107f0c00614262000482fb00610262004d22dd00ce
:107f1c0026168000f5ff2d00850263000502720015
:107f2c00241688000080fa00000006000000fa0009
:107f3c00241680004e22de006142620004c2ea0078
:107f4c00614262000482fb00610262004e22dd008d
:107f5c0026168000f5ff2b008502630005027200d7
:107f6c00241688000080fa00000006000000fa00c9
:107f7c00241680004f22de000442780004c2ea007e
:107f8c00614262000482fb004f22dd002616800055
:107f9c00f5ff270085026300050272002416880095
:107fac000080fa00000006000200fa00000f7800c2
:107fbc009e00780080e02300cf1607000080fa00b6
:107fcc00000006000000fa0080e02300fb1607000a
:107fdc000080fa00000006000200fa00000f780092
:107fec001e027800e00f5200030035009e0078005e
:107ffc0080e02300181707000080fa00000006003c
:10800c000000fa0024e8200014427800e04f5200ef
:10801c0010003a008000eb00700020005cfd0700af
:10802c0024e82000144278000482fb001100200098
:10803c000400780056fd070024e820001442780064
:10804c000442e8000443780025e82000864a7800c2
:10805c002900370024e8200014427800e74f520032
:10806c0012003a0024e82000144278000482fb003d
:10807c000402e9008000eb000400780044fd0700d6
:10808c0024e82000144278000482fb001100200038
:10809c00040078003efd07000042eb00044378002a
:1080ac0025e82000864a78001300370024e82000d9
:1080bc00144278000482fb000402e9008000eb000b
:1080cc000400780032fd070024e8200014427800f8
:1080dc000482fb0011002000040078002cfd070036
:1080ec0024e82000144278000442e800044378009d
:1080fc0025e82000864a78000080fa00000006007f
:10810c000000fa0014e82000144278000482fb00fe
:10811c00cfa2de004600200007002000860f520090
:10812c00878f5a0023003e000460010004003700d2
:10813c00070037000d003700130037001900370017
:10814c00210020000000eb0011fd07001900370092
:10815c0021002000100020000dfd07002100200050
:10816c00700020000afd07001200370021002000db
:10817c002000200006fd07002100200060002000e8
:10818c0003fd07000b003700210020003000200009
:10819c00fffc07002100200050002000fcfc070021
:1081ac00040037002100200040002000f8fc0700ec
:1081bc000000000014e8200014427800e34f520045
:1081cc0007003e0014e82000144278000442e80046
:1081dc000443780015e82000864a78000400370034
:1081ec000042eb000443780015e82000864a780032
:1081fc000080fa00000006000000fa0004e82000ed
:10820c0014427800e04f520016003a00c4e92000f6
:10821c0014427800e04f52001200320014c0b30038
:10822c000443780005e82000864a78008000eb00c3
:10823c000000eb00d6fc070004e820001442780094
:10824c000482fb001100200004007800d0fc070021
:10825c000042eb0004437800c5e92000864a780010
:10826c003d00370004e8200014427800e04f520033
:10827c0016003a00c4e9200014427800e04f520086
:10828c0012003a0074c0b3000443780005e82000e3
:10829c00864a78008000eb000000eb00bcfc070075
:1082ac0004e82000144278000482fb001100200036
:1082bc0004007800b6fc070014c0b3000443780037
:1082cc00c5e92000864a78002300370004e8200026
:1082dc0014427800e74f52000e003a000042eb00c7
:1082ec000443780005e82000864a78008000eb0003
:1082fc0070002000a6fc070004e82000144278005f
:10830c000482fb001100200004007800a0fc070090
:10831c001100370004e8200014427800e14f5200ad
:10832c000d003a000042eb000443780005e8200001
:10833c00864a78008000eb001000200094fc0700b7
:10834c0004e82000144278000482fb001100200095
:10835c00040078008efc07000080fa000000060084
:10836c000000fa00f4e72000144278000482fb00bd
:10837c00cfa2de003600200007002000860f52003e
:10838c00878f5a0018003e0004600100030037007c
:10839c00090037000f0037001200370021002000c1
:1083ac000000eb007afc07002100200040002000b8
:1083bc0077fc07000c003700210020001000200083
:1083cc0073fc0700210020003000200070fc070027
:1083dc000500370021002000200020006cfc070065
:1083ec0001003700bcfd0700f4e7200014427800c0
:1083fc00e24f520007003e00f4e7200014427800e0
:10840c000442e80004437800f5e72000864a78002f
:10841c00040037000042eb0004437800f5e720002d
:10842c00864a78000080fa00000006000000fa007e
:10843c00e4e72000144278000482fb00cfa2de00a7
:10844c003600200007002000860f5200878f5a004c
:10845c0018003e00046001000300370009003700db
:10846c000f00370012003700210020000000eb0045
:10847c0047fc0700210020004000200044fc0700be
:10848c000c003700210020007000200040fc070089
:10849c0021002000500020003dfc070005003700a3
:1084ac00210020006000200039fc0700010037008b
:1084bc0089fd0700e4e7200014427800e24f5200e7
:1084cc0007003e00e4e72000144278000442e80074
:1084dc0004437800e5e72000864a78000400370062
:1084ec000042eb0004437800e5e72000864a780060
:1084fc000080fa00000006000400fa001007980043
:10850c000002eb00040f78008b1907000042780082
:10851c00e04f52003200320065bb200095427800db
:10852c0004c4b30084cf520008003a00a2e4200037
:10853c0081e4200060e42000c50a07000042eb0043
:10854c000443780065bb2000864a78001e02900028
:10855c00e10f52000e003200e10f5200030039000f
:10856c00e20f5200130032001b00370045728000ee
:10857c0094718000048f52001e027800c4a2de00a9
:10858c001e02780046a2de0004825200440037002e
:10859c003572800084718000048f52001e027800b6
:1085ac00c4a2de001e02780046a2de000482520045
:1085bc003b00370055728000a4748000048f520079
:1085cc001e027800c4a2de001e02780046a2de0065
:1085dc000482520032003700a429200030003700fa
:1085ec001e029000e10f520012003200e10f520007
:1085fc0003003900e20f52001b0032002700370045
:10860c00365c80009e0290002403200004aab9006e
:10861c0004027800060242008402420084a5200075
:10862c00048242009402780084718000048252001b
:10863c001b003700365c80009e0290002403200053
:10864c0004aab90004027800060242008402420027
:10865c0084a520000482420094027800947180006a
:10866c00048252000e003700365c80009e0290009f
:10867c002403200004aab900040278000602420078
:10868c008402420084a520000482420094027800f7
:10869c00a47480000482520001003700a429200039
:1086ac00040078000080fa00000006000e00fa00ba
:1086bc0050079800610798006022b800048fbe0034
:1086cc001d19070000427800e04f52004c003200a8
:1086dc0065bb20009542780004c4b30084cf5200df
:1086ec0008003a00a2e4200081e4200060e42000ad
:1086fc00570a07000042eb008440780060bb200062
:10870c0001487800c4e2200014427800e04f520087
:10871c00130032005e029000e10f5200080032009c
:10872c00e10f520003003900e20f52000700320043
:10873c00090037007d0a0700000278006900370045
:10874c00680a07000002780066003700890a0700f3
:10875c000002780063003700a42920006100370074
:10876c005e029000e10f52000f003200e10f520048
:10877c0003003900e20f5200150032001e003700d2
:10878c0044728000440798004e029000c4a2de00a0
:10879c004e02900046a2de0084825200048020002b
:1087ac00048242004f003700357280004507980064
:1087bc004e029000c4a2de004e02900046a2de00e3
:1087cc00848252000480200004824200450037005d
:1087dc0056728000460798004e029000c4a2de003c
:1087ec004e02900046a2de008482520004802000db
:1087fc00048242003b003700a429200039003700d6
:10880c005e029000e20f52002f003e006e029000bc
:10881c00e00f52002c003200ee02900024032000e6
:10882c00848f520028003e000002eb0024079800c1
:10883c00355c80006e0290000482520035032000eb
:10884c008482420024032000110009008482d80095
:10885c00010278003407980017003700de02900000
:10886c002403200004aab900840278003e02900080
:10887c00048242008402420084a52000048242004b
:10888c0014027800cfa2de001e0f42005e974a0051
:10889c002e0290000402e800240798003e0290008b
:1088ac008402e80024032000110009008402d8008f
:1088bc000102780034079800ae0290006e0290001e
:1088cc00848f5200e5ff39006e02900005002000f5
:1088dc000401be001e00be007be807000002be00c3
:1088ec0004027800040078000080fa000000060002
:1088fc000000fa009018070000427800e04f520088
:10890c000d0032000000eb00fbfe070000027800b7
:10891c00a471880010002000f7fe07000002780008
:10892c00b471880020002000f3fe070000027800dc
:10893c00c471880015003700510020000000eb00c6
:10894c005aff070000027800857180000502520072
:10895c00a4718800510020001000200053ff070074
:10896c00000278009571800005025200b4718800f5
:10897c0051002000200020004cff0700000278006e
:10898c00a574800005025200c47188000080fa00b2
:10899c00000006000000fa00889fbe00d4ff07000c
:1089ac00a47180006123b900a4718000cfa2de0005
:1089bc0004b8b9000000780006a9b900820078005c
:1089cc000100400006037800040278000433b8006c
:1089dc000700400080037800b47180006120b9006a
:1089ec00b4718000cfa2de000489b90002017800c6
:1089fc0000acb90088017800030141000000780048
:108a0c00040278000402b8000501410082027800db
:108a1c000601420087814a00c47180006123b900bd
:108a2c00c4718000cfa2de0004b8b9000000780049
:108a3c0006acb900880078000100400006037800fd
:108a4c00040278000432b80005004000800278006f
:108a5c000202420083824a000400be0069e807005b
:108a6c000002be000400be00f4e807000002be00d5
:108a7c00d4718800e5718800a47180006123b9006d
:108a8c00a4718000cfa2de0004b8b9000000780009
:108a9c0006a9b900820078000100400006037800a6
:108aac00040278000433b80007004000800378000b
:108abc00b47180006120b900b4718000cfa2de00d7
:108acc000489b9000201780000acb9008801780073
:108adc000301410000007800040278000402b80091
:108aec0005014100820278000602420087824a009a
:108afc000400be0043e807000002be000400be00f4
:108b0c00cee807000004be00c4718000cfa2de00d6
:108b1c000400be003be807000002be000801be00d6
:108b2c000400be0024e707000002be00c2092300b7
:108b3c00532624000400be008ce807000002be008f
:108b4c000401be0000002000412b2400bce60700fd
:108b5c000002be0014728800257288001472800016
:108b6c002572800018c0b30002002000030a240004
:108b7c000400be00e3e7070000027800e00f52009b
:108b8c00010035000044eb00e04f54000d003a00aa
:108b9c00147280002572800018c0b30002002000ff
:108bac00033224000400be00d8e70700000278005e
:108bbc00e00f520001003c000044eb00e04f540079
:108bcc00040032006022b800f4718800057288003d
:108bdc001a003700b4718000cfa2de000400be0082
:108bec0008e807000004be00a4718000cfa2de00dc
:108bfc000400be0003e807000002be000801be002e
:108c0c000400be00ece607000002be00c20923000f
:108c1c00532624000400be0054e807000002be00e6
:108c2c0002002000433324000400be0085e6070048
:108c3c000002be00f4718800057288004f04be006b
:108c4c000080fa00000006000000fa0014c0b30017
:108c5c0004437800c5e22000864a780021032000f6
:108c6c000000eb0091fe0700000278008471880080
:108c7c0021032000100020008cfe07000002780069
:108c8c0094718800ac17070000427800e04f520046
:108c9c0008003200210320002000200083fe070082
:108cac000002780005002c0005024200a474880024
:108cbc000600370021032000200020007bfe070067
:108ccc00000278000430b100a47488000042eb006c
:108cdc0004437800c5e22000864a78000080fa0040
:108cec00000006000c00fa00881f780000047800d1
:108cfc0028ff0700d4718000e5718000048fbe004e
:108d0c00f4718000057280002407980035079800e4
:108d1c001472800025728000440798005507980053
:108d2c000e02780088027800b41a7800a412780039
:108d3c00e482420064024200b41a7800a412780063
:108d4c00e482420064024200b41a7800a412780053
:108d5c00e482420064024200080078004f0478006c
:108d6c000080fa00000006000000fa0009ff07006e
:108d7c0014728000257280000400be000080fa008e
:108d8c00000006000000fa0002ff0700f4718000ea
:108d9c00057280000400be000080fa00000006008e
:108dac000000fa00fbfe0700d4718000e571800022
:108dbc000400be000080fa00000006000600fa0065
:108dcc00881f780000047800c9fe0700a471800099
:108ddc00040f7800b471800014079800c4718000ef
:108dec00240798003e1c78002e1478002e02900068
:108dfc0024049800080078004f0478000080fa00e2
:108e0c00000006000000fa00b9fe0700a471800003
:108e1c00040078000080fa00000006000000fa0050
:108e2c00b3fe0700b4718000040078000080fa00e3
:108e3c00000006000000fa00adfe0700c4718000bf
:108e4c00040078000080fa00000006000400fa001c
:108e5c00889fbe006022b800048fbe00c9ff0700c7
:108e6c000002be00048fbe0074718000cfa2de0031
:108e7c000400be0063e707000002be001e01be0036
:108e8c000400be00eee507000002be000400be00b8
:108e9c0020e707000002be000402780004f0a700df
:108eac000402ea00cfa2de000400be0055e7070072
:108ebc000002be0018c0b30002002000030a240008
:108ecc000400be0011e7070000027800e00f52001a
:108edc0001003c000044eb00e04f5400180132004c
:108eec00c5e2a900241680004f22de00044278005f
:108efc000482fb00610262004e22dd002616800017
:108f0c00f5ff2b0085026300050272002416880011
:108f1c00241680004e22de00614262000482fb00b7
:108f2c00610262004d22dd0026168000f5ff2d0047
:108f3c008502630005027200241688002416800046
:108f4c004d22de00614262000482fb00610262007d
:108f5c004a22dd0026168000f5bf2f008502630033
:108f6c000502720024168800241680004a22de00b6
:108f7c00614262000482fb00610262004c22dd004f
:108f8c0026168000f5ff2e00850263000502720094
:108f9c0024168800241680004c22de0061426200f8
:108fac000482fb00610262004922dd00261680006b
:108fbc00f5df2f008502630005027200241688007d
:108fcc00241680004922de00614262000482fb000c
:108fdc00610262004722dd0026168000f5f72f00a3
:108fec008502630005027200241688002416800096
:108ffc004722de00614262000482fb0061026200d3
:10900c004622dd0026168000f5fb2f00850263004a
:10901c00050272002416880019c0b30002002c004f
:10902c00833a24001e00be00b8e607000002780058
:10903c00e00f520001003c008044eb0018c0b3006c
:10904c0002002000431b24001e00be00ade60700fa
:10905c0000027800e00f5200010034000044eb00e5
:10906c0008c27400e04f52000900320002002800d0
:10907c00634224001e00be00e7e6070000027800f1
:10908c00e00f520002003200c4c2a800a700370053
:10909c0018c0b30002002000431b24001e00be00b9
:1090ac009ae6070000027800e00f520001003c0035
:1090bc000044eb00e04f54000d00320018c0b30028
:1090cc0002002000732824001e00be008de607005d
:1090dc0000027800e00f5200010034000044eb0065
:1090ec00e04f540002003200c5e2a8008f003700a8
:1090fc0018c0b30002002000732824001e00be001c
:10910c0082e6070000027800e00f520001003c00ec
:10911c000044eb00e04f54000d00320018c0b300c7
:10912c0002002000132e24001e00be0075e607006e
:10913c0000027800e00f5200010034000044eb0004
:10914c00e04f540002003200c5c2a800770037007f
:10915c0018c0b30002002000132e24001e00be0015
:10916c006ae6070000027800e00f520001003c00a4
:10917c000044eb00e04f54000d00320018c0b30067
:10918c0002002800d33124001e00be005de607005b
:10919c0000027800e00f5200010034000044eb00a4
:1091ac00e04f540002003200c5a2a8005f00370057
:1091bc0018c0b30002002800d33124001e00be00ea
:1091cc0052e6070000027800e00f520001003c005c
:1091dc000044eb00e04f54000d00320018c0b30007
:1091ec0002002800a33424001e00be0045e6070040
:1091fc0000027800e00f5200010034000044eb0044
:10920c00e04f540002003200c542a800470037006e
:10921c0018c0b30002002800a33424001e00be00b6
:10922c003ae6070000027800e00f520001003c0013
:10923c000044eb00e04f54000d00320018c0b300a6
:10924c0002002800733724001e00be002de6070024
:10925c0000027800e00f5200010034000044eb00e3
:10926c00e04f540002003200c582a8002f003700e6
:10927c0018c0b30002002800733724001e00be0083
:10928c0022e6070000027800e00f520001003c00cb
:10929c000044eb00e04f54000d00320018c0b30046
:1092ac0002002400233924001e00be0015e607002e
:1092bc0000027800e00f5200010034000044eb0083
:1092cc00e04f540002003200c522a80017003700fe
:1092dc0018c0b30002002400233924001e00be0075
:1092ec000ae6070000027800e00f520001003c0083
:1092fc000044eb00e04f54000c00320018c0b300e7
:10930c0002002c00833a24001e00be00fde507007d
:10931c0000027800e00f5200010034000044eb0022
:10932c00e04f540001003200c4e2a8001e00be0051
:10933c00f8e507000002be00040278007471880092
:10934c004f04be000080fa00000006000200fa0084
:10935c00004f78002015070000027800a45d8800fb
:10936c001e427800e14f520005003a0014c0b300d1
:10937c000443780025bb2000864a7800040037009f
:10938c000042eb000443780025bb2000864a78009d
:10939c000002eb00041588000002eb001415880095
:1093ac000002eb00241588000002eb003415880045
:1093bc00a45d8000ea0f520008003a00c40480004b
:1093cc0004c0a10004d0a00004e0a000c4048800e4
:1093dc00a802a900a822a90002003700a802a80030
:1093ec00a822a800a842a900a862a900a882a900e6
:1093fc00a8a2a900a8c2a900a8e2a900a902a900d4
:10940c00a922a900a942a900a962a900a982a900c0
:10941c00a9a2a900a9c2a900a9e2a900aa02a900af
:10942c00aa22a900aa42a800aa62a800aa82a8009f
:10943c00aaa2a900aac2a900aae2a900ab02a9008b
:10944c00ab22a900ab42a900ab62a900ab82a90078
:10945c00aba2a900abc2a900abe2a9000415800025
:10946c000480a1000490a10004158800a042a8006b
:10947c00041580000450a0000460a0000470a0003b
:10948c0004158800141580000420a1000430a000ed
:10949c000440a1000450a10014158800a342a800a8
:1094ac0025158000f40f2e00848262000410200029
:1094bc00050272002415880024bb20001442780099
:1094cc00e04f5200060032002515800004fc2f00ee
:1094dc00048262003401b3002415880006003700b2
:1094ec002515800004fc2f00848262007402200089
:1094fc0005027200241588008560a9008d60a80003
:10950c00a1e2a80024bb200014427800e04f5200d6
:10951c0005003a0000000000355c800004032000c8
:10952c00848f5200fbff3600831507000042780041
:10953c00e04f5200020032000002eb00a4748800dd
:10954c000080fa0000000600849fbe00869fbe00cb
:10955c003400f80004002000a40188000200fa0086
:10956c000042eb000443780005bb2000864a7800db
:10957c000042eb008442780017bb2000854b78003a
:10958c008560a90065bb200095427800f4c3b30048
:10959c0084cf520006003e0064bb200014427800c9
:1095ac000442e8008443780066bb2000074b780037
:1095bc00c45d8000e10f420003003200c45d8000f6
:1095cc000402e800c45d880024bb2000144278002b
:1095dc00e04f52002a00320004282000040f7800cb
:1095ec00245c80009e0278009502780004034200ff
:1095fc000480200004024300050a78001e8fe80056
:10960c00245c80009e027800950278004406b0002d
:10961c00040342000480200004024300050a780081
:10962c001e8fe800245c80009e0278009502780072
:10963c00840cb000040342000480200004024300a8
:10964c00050a78001e8fe800245c80000402e80004
:10965c00245c8800255c800034062000848f520036
:10966c00ec0136000002eb00245c880014c0b3004f
:10967c000443780015bb2000864a7800e5013700ca
:10968c00a1e2a900c4012000541588001415800023
:10969c000420a1000430a0000440a1000450a1004b
:1096ac00141588002515800004fc2f0084826200ac
:1096bc00740220000502720024158800a5bb20004e
:1096cc0095427800d4c3b30084cf52000e003a0008
:1096dc00c40f200054158800141580000420a0002d
:1096ec000430a1000440a0000450a100141588000f
:1096fc002515800004fc2f00048262003401b300a5
:10970c00241588005d003700a5bb20009542780029
:10971c00e4c3b30084cf52002a003a001415800031
:10972c000420a1000430a1000440a0000450a100ba
:10973c00141588002515800004fc2f00048262009b
:10974c007401b30024158800b4bb200014427800c7
:10975c000482fb00cfa2de004600200007002000a0
:10976c00860f5200878f5a0043003e0004600100b0
:10977c000400370006003700080037000a003700e5
:10978c000d003700c4112100541588003b00370030
:10979c00c42122005415880038003700c44124002d
:1097ac005415880035003700c481280054158800f2
:1097bc000000000031003700f4012000541588002f
:1097cc002e003700a4bb200014427800e24f520058
:1097dc002a003a00141580000420a1000430a100d6
:1097ec000440a0000450a100141588002515800029
:1097fc0004fc2f00048262007401b300241588005d
:10980c00b4bb2000144278000482fb00cfa2de001f
:10981c004600200007002000860f5200878f5a0058
:10982c0016003e00046001000400370006003700fb
:10983c00080037000a0037000c003700c411210063
:10984c00541588000d003700c421220054158800df
:10985c000a003700c4412400541588000700370063
:10986c00c48128005415880004003700f40120003e
:10987c00541588000100370000000000a1e2a80088
:10988c0004282000040f7800a5bb20009542780026
:10989c00f4c3b30084cf520004003a00b4bb2000e0
:1098ac0014427800e44f52002f003200a4bb200079
:1098bc0014427800e34f520004003a00b4bb20007d
:1098cc0014427800e44f520027003200245c8000e0
:1098dc009e02780095027800040342000480200068
:1098ec0004024300050a78001e8fe800245c800007
:1098fc009e027800950278004406b00004034200f2
:10990c000480200004024300050a78001e8fe80042
:10991c00245c80009e02780095027800840cb000d4
:10992c00040342000480200004024300050a78006e
:10993c001e8fe800245c80000402e800245c880090
:10994c00255c800034062000848f5200060036000f
:10995c000002eb00245c880014c0b3008442780041
:10996c0017bb2000854b7800a5bb200095427800e2
:10997c00e4c3b30084cf520023003a00345c80006f
:10998c000402e800345c8800355c8000140320007d
:10999c00848f5200020036000002eb00345c880019
:1099ac00345c80009e02780095027800040342002b
:1099bc0084a5200004024300050a78001e8fe800ed
:1099cc00345c80009e027800950278002403b0007d
:1099dc000403420084a5200004024300050a780019
:1099ec001e8fe800345c80009e027800950278009f
:1099fc004406b0000403420084a520000402430086
:109a0c00050a7800f1003700a5bb200095427800cc
:109a1c00f4c3b30084cf520065003a00b4bb2000fd
:109a2c00144278000482fb00cfa2de004600200026
:109a3c0007002000860f5200878f5a00e0003e007e
:109a4c0004600100040037000c00370014003700dc
:109a5c001c003700250037001e0278001402780025
:109a6c00445c88001e8fe8001e0278001402780007
:109a7c00845c8800e2e2a800d40037001e02780063
:109a8c0014027800545c88001e8fe8001e027800d7
:109a9c0014027800945c8800e302a800cb00370025
:109aac001e02780014027800645c88001e8fe800a7
:109abc001e02780014027800a45c8800e802a8005a
:109acc00c20037001e02780014027800745c880013
:109adc001e8fe8001e02780014027800b45c880027
:109aec00e822a80000000000b80037001e02780031
:109afc0014027800d45c88001e8fe8001e027800e7
:109b0c0014027800c45c88001e8fe800245c80007e
:109b1c009e02780095027800040342000480200025
:109b2c0004024300050a78001e8fe800245c8000c4
:109b3c009e027800950278004406b00004034200af
:109b4c000480200004024300050a78001e8fe80000
:109b5c00245c80009e02780095027800840cb00092
:109b6c00040342000480200004024300050a78002c
:109b7c00245c80000402e800245c8800255c8000e2
:109b8c0034062000848f5200060036000002eb00e1
:109b9c00245c880014c0b3008443780016bb2000fa
:109bac00074b7800d042a800d022a80087003700cd
:109bbc00a4bb200014427800e34f520083003a000b
:109bcc00b4bb2000144278000482fb00cfa2de005c
:109bdc004600200007002000860f5200878f5a0095
:109bec007a003e00046001000400370010003700ca
:109bfc001c003700280037003c0037001e0278009c
:109c0c0014027800e45c88001e8fe8001e027800c5
:109c1c0014027800245d8800e2e2a90014c0b300ad
:109c2c0004437800b5bb2000864a780067003700f3
:109c3c001e02780014027800f45c88001e8fe80085
:109c4c001e02780014027800345d8800e302a9003b
:109c5c0024c0b30084427800b7bb2000854b780049
:109c6c005a0037001e02780014027800045d880048
:109c7c001e8fe8001e02780014027800445d8800f4
:109c8c00e802a90034c0b30084437800b6bb2000be
:109c9c00074b78004d0037001e0278001402780044
:109cac00145d88001e8fe8001e02780014027800f4
:109cbc00545d8800e822a900a45d8000ea0f5200e0
:109ccc0005003a0044c0b30004437800b5bb200043
:109cdc00864a78003d0037000042eb008442780051
:109cec00b7bb2000854b7800380037001e02780087
:109cfc0014027800745d88001e8fe8001e02780044
:109d0c0014027800645d88001e8fe800d042a90020
:109d1c00d022a9000042eb0084437800b6bb20009f
:109d2c00074b7800245c80009e0278009502780036
:109d3c00040342000480200004024300050a78005a
:109d4c001e8fe800245c80009e027800950278004b
:109d5c004406b000040342000480200004024300c7
:109d6c00050a78001e8fe800245c80009e027800b3
:109d7c0095027800840cb00004034200048020009b
:109d8c0004024300050a7800245c80000402e80009
:109d9c00245c8800255c800034062000848f5200ef
:109dac00090036000002eb00245c880014c0b300ec
:109dbc000443780015bb2000864a78000300370066
:109dcc00000000000100370000000000a5bb2000cf
:109ddc00954278008583fb0014c0b300f603200085
:109dec00868f530001003c000042eb008542e800e6
:109dfc0005437800a7bb2000864b7800e04f52004b
:109e0c00040032000042eb0084427800a7bb200023
:109e1c00854b780014c0b3008443780006bb200047
:109e2c00074b78000080fa003400f9004f03be00a5
:109e3c004f02be00004006000000fa0004bb2000e8
:109e4c0014427800044078000080fa0000000600fc
:109e5c000000fa0014bb2000144278000440780083
:109e6c000080fa00000006000000fa00a1e2a80041
:109e7c000080fa00000006000000fa00a1e2a90030
:109e8c000080fa00000006000200fa00004f780083
:109e9c00371307001e4278000441780031c0b3002c
:109eac00c0cdb3006a130700351307000080fa0019
:109ebc00000006000400fa00004f780011479800db
:109ecc00224798001e407800efff07002813070078
:109edc00ae4290001e42900005417800844078000c
:109eec00c0cdb3005a130700251307000080fa00f9
:109efc00000006000400fa00204798003147980043
:109f0c002e409000e0ff0700191307003e4290001e
:109f1c0084407800c0cdb3001d13070000427800c8
:109f2c00044f7800161307001e4278000440780096
:109f3c000080fa00000006000400fa002047980098
:109f4c002e409000d0ff07000913070031c0b3006a
:109f5c00c0cdb3000e13070000427800044f780008
:109f6c00071307009e4278000582fb00040078006e
:109f7c000080fa00000006000200fa000040eb002e
:109f8c00c1ff0700fa120700b1c5b300c0cdb30082
:109f9c00ff12070000427800044f78001e42780040
:109fac0014479800f61207001e4290000474a1009a
:109fbc00144798009e429000f4cbb30004c2620098
:109fcc00144798009e42900074cfb30004c2620004
:109fdc0014479800e61207001e42900004417800d6
:109fec00b1c5b300c0cdb30019130700e4120700cc
:109ffc009e4278000582fb00040078000080fa0085
:10a00c00000006000200fa000042eb00044f78004a
:10a01c00d9ff070000027800044f780080c2b3001b
:10a02c00880107009e4278000582fb00040078003e
:10a03c000080fa00000006000200fa00004f7800d1
:10a04c001e417800a1c6b3000040eb0099ff070049
:10a05c000080fa00000006000200fa00004f7800b1
:10a06c001e41780071cbb30010c0b30091ff070004
:10a07c000080fa00000006000200fa00004f780091
:10a08c009e4278000582fb0005042000850f5200db
:10a09c001200320005082000850f52001b00320010
:10a0ac0005022000850f520024003a0010c0b300b6
:10a0bc00e9ff07001e41780031c9b30010c0b3009e
:10a0cc007cff07001e41780041c9b30010c0b300eb
:10a0dc0078ff07000002eb001900370030c0b30016
:10a0ec00ddff07001e41780031c9b30010c0b3007a
:10a0fc0070ff07001e41780041c9b30010c0b300c7
:10a10c006cff07000002eb000d00370070c0b300bd
:10a11c00d1ff07001e41780031c9b30010c0b30055
:10a12c0064ff07001e41780041c9b30010c0b300a2
:10a13c0060ff07000002eb00010037000082eb001b
:10a14c00040078000080fa00000006000200fa000b
:10a15c00004f78009e4278000582fb000504200029
:10a16c00850f52001200320005082000850f5200a6
:10a17c001b00320005022000850f520024003a001b
:10a18c000040eb00b4ff07001e41780031c9b3005a
:10a19c0010c0b30047ff07001e41780041c9b3004f
:10a1ac0010c0b30043ff07000002eb00190037009a
:10a1bc0010c0b300a8ff07001e41780031c9b300de
:10a1cc0010c0b3003bff07001e41780041c9b3002b
:10a1dc0010c0b30037ff07000002eb000d00370082
:10a1ec0030c0b3009cff07001e41780031c9b3009a
:10a1fc0010c0b3002fff07001e41780041c9b30007
:10a20c0010c0b3002bff07000002eb000100370069
:10a21c000082eb00040078000080fa0000000600c9
:10a22c000200fa00004f7800114798009e42780017
:10a23c000582fb00e10f52000c003200e20f5200cd
:10a24c0012003200e00f520018003a0032c4b30082
:10a25c00e1c4b30010c0b30016ff07001e4090000d
:10a26c0085ff0700000278001100370002c3b3001d
:10a27c00e1c4b30010c0b3000eff07001e409000f5
:10a28c00b2ff0700000278000900370022c0b300bb
:10a29c00e1c4b30010c0b30006ff07001e409000dd
:10a2ac00aaff070000027800010037000082eb00d3
:10a2bc00040078000080fa00000006000800fa0094
:10a2cc002007980031079800ae0290003e029000e3
:10a2dc00848f5200020039000082eb001c00370012
:10a2ec00be02900074302000848f520002003600b1
:10a2fc000082eb00160037002e0290000402e900e9
:10a30c00240798002e029000044f78002e02900033
:10a31c004822de00144798003e0290002447980023
:10a32c003e0290004822de00344798001e4178001f
:10a33c0091c0b3000040eb00defe07001e41900010
:10a34c0081c0b3000040eb00dafe07000002eb0016
:10a35c00040078000080fa00000006000400fa00f7
:10a36c00000f7800110798000002eb000400780041
:10a37c000080fa00000006000800fa002007980090
:10a38c0031079800ae0290003e029000848f52007c
:10a39c00020039000082eb0021003700be02900061
:10a3ac0034202000848f5200020036000082eb0023
:10a3bc001b0037002e029000044f78002e029000f4
:10a3cc004822de00144798003e0290002447980073
:10a3dc003e0290004822de00344798001e41900057
:10a3ec0001c1b3000040eb00b2fe07001e41780033
:10a3fc0011c1b3000040eb00aefe07003e419000df
:10a40c0021c1b3000040eb00aafe07002e419000d2
:10a41c0031c1b3000040eb00a6fe07000002eb00c8
:10a42c00040078000080fa00000006000200fa0028
:10a43c00000f78001e027800e00f520009003a006d
:10a44c0002c8b30041c0b30010c0b30099fe0700ae
:10a45c0022c0b30061c0b30010c0b30095fe07006a
:10a46c0001003700000000000080fa000000060028
:10a47c000600fa001007980021079800c1c6b30027
:10a48c000040eb009bfe070000427800044f780070
:10a49c001e029000e00f52000300320004c8b3000b
:10a4ac001e4f7200010037001e74a1002e02900096
:10a4bc00e00f52000300320004c4b3001e4f7200c0
:10a4cc0002003700f4cbb3001e4f62001e4178002f
:10a4dc00c1c6b3000040eb0076fe07000080fa0016
:10a4ec00000006000600fa001007980021079800eb
:10a4fc0084c9b300044f78001e029000e00f520094
:10a50c0001003a001e24a0002e029000e00f520021
:10a51c000a003a001e04a0000041eb0081c4b30005
:10a52c0020c0b30063fe07000041eb0091c4b300f0
:10a53c0020c0b3005ffe07000800370082c0b300e4
:10a54c0081c4b30020c0b3005afe0700c2c0b300e0
:10a55c0091c4b30020c0b30056fe07001e41780022
:10a56c0041c0b30020c0b30052fe07000080fa00c7
:10a57c00000006000400fa00004f78001147980014
:10a58c00224798001e41780031c2b3000040eb0016
:10a59c0048fe07001e41900041c2b3000040eb0092
:10a5ac0044fe07002e41900051c2b3000040eb0066
:10a5bc0040fe07000080fa00000006000400fa00cc
:10a5cc00008fbe001e02be00482ade000442780046
:10a5dc000441780021c1b30020c0b30035fe070050
:10a5ec001e02be00402ade000442780004417800be
:10a5fc0031c1b30020c0b3002efe07001e02be0006
:10a60c00482bdd004822de0004027300c82ade005d
:10a61c00044278000441780041c1b30020c0b3006b
:10a62c0024fe07001e0278000442780004417800e2
:10a63c0051c1b30020c0b3001efe07000080fa0019
:10a64c00000006000200fa00004f78001e4278005d
:10a65c0004417800e1c9b30010c0b30015fe070037
:10a66c000080fa00000006000200fa00004f78009b
:10a67c003f1107001e4278000441780031c0b3003e
:10a68c00c0cdb300721107003d1107000080fa0025
:10a69c00000006000400fa00004f780011479800f3
:10a6ac00224798001e407800efff0700301107008a
:10a6bc00ae4290001e429000054178008440780024
:10a6cc00c0cdb300621107002d1107000080fa0005
:10a6dc00000006000400fa0020479800314798005b
:10a6ec002e409000e0ff0700211107003e42900031
:10a6fc0084407800c0cdb3002511070000427800db
:10a70c00044f78001e1107001e42780004407800a8
:10a71c000080fa00000006000200fa00004f7800ea
:10a72c001e41780011c9b3000040eb00d9ff0700af
:10a73c000080fa00000006000200fa00004f7800ca
:10a74c001e41780081c6b30010c0b300d1ff0700d2
:10a75c000080fa00000006000200fa00004f7800aa
:10a76c009e4278000582fb0005042000850f5200f4
:10a77c001600320005082000850f5200230032001d
:10a78c0005022000850f520030003a0010c0b300c3
:10a79c00e9ff07001e41780001c8b30010c0b300e8
:10a7ac00bcff07001e41780011c8b30010c0b300f5
:10a7bc00b8ff070012c0b30021c8b30010c0b3002b
:10a7cc00b4ff07000002eb002100370030c0b300db
:10a7dc00d9ff07001e41780001c8b30010c0b300b8
:10a7ec00acff07001e41780011c8b30010c0b300c5
:10a7fc00a8ff070012c0b30021c8b30010c0b300fb
:10a80c00a4ff07000002eb001100370070c0b3007a
:10a81c00c9ff07001e41780001c8b30010c0b30087
:10a82c009cff07001e41780011c8b30010c0b30094
:10a83c0098ff070012c0b30021c8b30010c0b300ca
:10a84c0094ff07000002eb00010037000082eb00d0
:10a85c00040078000080fa00000006000200fa00f4
:10a86c00004f78009e4278000582fb000504200012
:10a87c00850f52001600320005082000850f52008b
:10a88c002300320005022000850f520030003a00f0
:10a89c000040eb00a8ff07001e41780001c8b30080
:10a8ac0010c0b3007bff07001e41780011c8b30035
:10a8bc0010c0b30077ff070012c0b30021c8b3006b
:10a8cc0010c0b30073ff07000002eb00210037003b
:10a8dc0010c0b30098ff07001e41780001c8b300f8
:10a8ec0010c0b3006bff07001e41780011c8b30005
:10a8fc0010c0b30067ff070012c0b30021c8b3003b
:10a90c0010c0b30063ff07000002eb00110037001a
:10a91c0030c0b30088ff07001e41780001c8b300a7
:10a92c0010c0b3005bff07001e41780011c8b300d4
:10a93c0010c0b30057ff070012c0b30021c8b3000a
:10a94c0010c0b30053ff07000002eb0001003700fa
:10a95c000082eb00040078000080fa000000060082
:10a96c000200fa00004f7800114798009e427800d0
:10a97c000582fb00e10f52000c003200e20f520086
:10a98c0012003200e00f520018003a00d2c0b3009f
:10a99c0081c3b30010c0b3003eff07001e409000ff
:10a9ac006dff0700000278001100370082c0b30071
:10a9bc0081c3b30010c0b30036ff07001e409000e7
:10a9cc00a6ff0700000278000900370022c0b30080
:10a9dc0081c3b30010c0b3002eff07001e409000cf
:10a9ec009eff070000027800010037000082eb0098
:10a9fc00040078000080fa00000006000800fa004d
:10aa0c002007980031079800ae0290003e0290009b
:10aa1c00848f5200020039000082eb001c003700ca
:10aa2c00be029000f4312000848f520002003600e8
:10aa3c000082eb00160037002e0290000402e900a1
:10aa4c00240798002e029000044f78002e029000ec
:10aa5c004822de00144798003e02900024479800dc
:10aa6c003e0290004822de00344798001e417800d8
:10aa7c0011c5b30010c0b30006ff07001e419000c3
:10aa8c0001c5b30010c0b30002ff07000002eb00c9
:10aa9c00040078000080fa00000006000400fa00b0
:10aaac00000f7800110798000002eb0004007800fa
:10aabc000080fa00000006000800fa002007980049
:10aacc0031079800ae0290003e029000848f520035
:10aadc00020039000082eb0021003700be0290001a
:10aaec00341f2000848f5200020036000082eb00dd
:10aafc001b0037002e029000044f78002e029000ad
:10ab0c004822de00144798003e029000244798002b
:10ab1c003e0290004822de00344798001e4190000f
:10ab2c0001c6b30010c0b300dafe07001e41780066
:10ab3c0011c6b30010c0b300d6fe07003e41900012
:10ab4c0021c6b30010c0b300d2fe07002e41900006
:10ab5c0031c6b30010c0b300cefe07000002eb00fc
:10ab6c00040078000080fa00000006000200fa00e1
:10ab7c00000f780012c0b300a1c5b30020c0b30011
:10ab8c00c4fe070012c4b30021c3b30010c0b3004d
:10ab9c00c0fe07001e027800e00f520011003a00c0
:10abac0000c1eb0081c8b30010c0b300b9fe0700b0
:10abbc0000c1eb0091c8b30010c0b300b5fe070094
:10abcc0082c0b300a1c8b30010c0b300b1fe07002f
:10abdc0000c1eb00b1c8b30010c0b300adfe07005c
:10abec001000370002c2b30081c8b30010c0b3001c
:10abfc00a8fe070002c8b30091c8b30010c0b30090
:10ac0c00a4fe070082c0b300a1c8b30010c0b300fb
:10ac1c00a0fe070000c1eb00b1c8b30010c0b30028
:10ac2c009cfe07000080fa00000006000600fa00f7
:10ac3c00100798002107980001c9b3000040eb00f1
:10ac4c00a4fe070000427800044f78001e0290001a
:10ac5c00e00f52000300320004c8b3001e4f720014
:10ac6c00010037001e74a1002e029000e00f52006c
:10ac7c000300320004c4b3001e4f72000200370000
:10ac8c00f4cbb3001e4f62001e41780001c9b30023
:10ac9c000040eb007ffe07000080fa000000060079
:10acac000600fa00100798002107980084c9b30029
:10acbc00044f78001e029000e00f520001003a0091
:10accc001e24a0002e029000e00f52000a003a0051
:10acdc001e04a0000041eb0051c5b30020c0b3001e
:10acec006cfe07000041eb0061c5b30020c0b3004f
:10acfc0068fe07000800370082c0b30051c5b300de
:10ad0c0020c0b30063fe0700c2c0b30061c5b3002e
:10ad1c0020c0b3005ffe07001e41780041c0b300a5
:10ad2c0020c0b3005bfe07000080fa0000000600a4
:10ad3c000400fa00004f7800114798002247980051
:10ad4c001e41780041cab30020c0b30051fe070079
:10ad5c001e41900051cab30020c0b3004dfe070045
:10ad6c002e41900061cab30020c0b30049fe070019
:10ad7c000080fa00000006000400fa00008fbe00fc
:10ad8c001e02be00482ade0004427800044178000e
:10ad9c00c1c2b30020c0b3003efe07001e02be00bd
:10adac00402ade000442780004417800d1c2b3008e
:10adbc0020c0b30037fe07001e02be00482bdd008a
:10adcc004822de0004027300c82ade000442780028
:10addc0004417800e1c2b30020c0b3002dfe07008f
:10adec001e0278000442780004417800f1c2b300de
:10adfc0020c0b30027fe07000080fa000000060008
:10ae0c000400fa00004f7800114798002247980080
:10ae1c00570f07002e4390009e4290001e42780070
:10ae2c00064178008540780004407800880f0700c0
:10ae3c00530f07000080fa00000006000400fa001f
:10ae4c002047980031479800490f0700be429000f8
:10ae5c002e42900085407800044078004c0f07008b
:10ae6c0000427800044f7800450f07001e4278001e
:10ae7c00044078000080fa00000006000a00fa0086
:10ae8c004047980031079800024f9800134f9800e4
:10ae9c000042eb00044f78000002eb00140798000e
:10aeac003e00370014c0b300044f780014020700b2
:10aebc00004278001e4f62004e40900025030700b0
:10aecc00004278001e4f62008e4a900004c8b30006
:10aedc0004c27200044078001e0307000042780090
:10aeec001e4f620028020700004278001e4f6200cd
:10aefc004e4290000442e80004407800150307001d
:10af0c00004278001e4f62000002eb00140798000c
:10af1c0018003700be0290001e029000048242000e
:10af2c0004007800bc020700004278001e4f62004b
:10af3c001e4a90000482fb000402e900840278009f
:10af4c001e029000848f520004003a007f0207001a
:10af5c00004278001e4f62000300370048020700d1
:10af6c00004278001e4f62001e0290000402e800ae
:10af7c00140798001e4a90008482fb001e02900069
:10af8c00848f5200e3ff3e00210207001e4278002e
:10af9c00e04f520005003a00a40107001e42780061
:10afac00e04f5200bfff32000100370000000000ec
:10afbc001e427800044078000080fa000000060071
:10afcc000000fa00ea0e0700f2c9b30001c2b30098
:10afdc00c0c3b3001e0f070002c5b30051c2b300bb
:10afec00c0c3b3001a0f0700f2ccb30001c2b30008
:10affc0040cdb300160f070002c2b30011c2b3005c
:10b00c0040cdb300120f07000041eb0031c2b3007a
:10b01c0040cdb3000e0f0700d90e07000080fa00d8
:10b02c00000006000200fa00000f7800d00e0700a6
:10b03c0063c0b30082c2b3009e007800c0c3b300eb
:10b04c008eff0700ce0e07000080fa0000000600fd
:10b05c000c00fa003007980041079800520798003e
:10b06c00c30e070063c0b30082c2b3008e00780029
:10b07c00c0c3b30081ff0700c10e07001e42900041
:10b08c000482fb00c822dd001e4278000482fb0013
:10b09c00848242003e029000050a78003e429000f5
:10b0ac000482fb00c822dd002e4290000482fb00cb
:10b0bc00848242004e029000050a78005e429000a5
:10b0cc000482fb00c822dd004e4290000482fb008b
:10b0dc00848242005e029000050a78000080fa002b
:10b0ec00000006000200fa00a10e07000e02780014
:10b0fc0023c0b30082c2b30084007800c0c3b30085
:10b10c005eff07009e0e07001e4290000402fb002b
:10b11c00c822dd001e4278000402fb0004824200bb
:10b12c00040078000080fa00000006000200fa001b
:10b13c008f0e07000e02780023c0b300a2c2b3002a
:10b14c0084007800c0c3b3004cff07008c0e0700ce
:10b15c001e4290000402fb00c822dd001e42780053
:10b16c000402fb0004824200040078000080fa0014
:10b17c00000006000200fa007d0e07000e027800a7
:10b18c0023c0b300c2c2b30084007800c0c3b300b4
:10b19c003aff07007a0e07001e4290000402fb00e3
:10b1ac00c822dd001e4278000402fb00048242002b
:10b1bc00040078000080fa00000006000200fa008b
:10b1cc00000f78006a0e070063c0b30082c2b300a0
:10b1dc009e00780040cdb30028ff0700680e0700e2
:10b1ec000080fa00000006000c00fa0030079800fe
:10b1fc0041079800520798005d0e070063c0b3002a
:10b20c0082c2b3008e00780040cdb3001bff070054
:10b21c005b0e07001e4290000482fb00c822dd007a
:10b22c001e4278000482fb0084824200c4738000ba
:10b23c00848252003e029000050a78003e42900043
:10b24c000482fb00c822dd002e4290000482fb0029
:10b25c0084824200d4738000848252004e0290009b
:10b26c00050a78005e4290000482fb00c822dd00d3
:10b27c004e4290000482fb0084824200e473800002
:10b28c00848252005e029000050a78000080fa0069
:10b29c00000006000200fa00350e07000e027800ce
:10b2ac0023c0b30082c2b3008400780040cdb30049
:10b2bc00f2fe0700320e07001e4290000402fb0053
:10b2cc00c822dd001e4278000402fb00848242008a
:10b2dc00c473800004825200040078000080fa00dd
:10b2ec00000006000200fa00210e07000e02780092
:10b2fc0023c0b300a2c2b3008400780040cdb300d9
:10b30c00defe07001e0e07001e4290000402fb002a
:10b31c00c822dd001e4278000402fb008482420039
:10b32c00d473800004825200040078000080fa007c
:10b33c00000006000200fa000d0e07000e02780055
:10b34c0023c0b300c2c2b3008400780040cdb30068
:10b35c00cafe07000a0e07001e4290000402fb0002
:10b36c00c822dd001e4278000402fb0084824200e9
:10b37c00e473800004825200040078000080fa001c
:10b38c00000006000000fa0061c2b30040cdb3001b
:10b39c00aafe070000427800044078000080fa0002
:10b3ac00000006001000fa00700798000002eb0085
:10b3bc00440798000002eb00540798000002eb00d1
:10b3cc00640798000002eb00040f78000002eb0009
:10b3dc00040f78001f0037000e82e800040078008c
:10b3ec0076ff0700ce0290003e4290000482fb00e4
:10b3fc004823dd002e4290000482fb00040243002f
:10b40c000482420044079800de0290005e429000e5
:10b41c000482fb004823dd004e4290000482fb00b6
:10b42c00040243000482420054079800ee0290008c
:10b43c007e4290000482fb004823dd006e429000a7
:10b44c000482fb000402430004824200640798005b
:10b45c001e0fe8007e0290009e027800848f52003e
:10b46c00ddff3500ce0290007e0290001100090035
:10b47c008402d80000027800c4738800de029000b9
:10b48c007e029000110009008402d80000027800ae
:10b49c00d4738800ee0290007e0290001100090027
:10b4ac008402d80000027800e47388000080fa005f
:10b4bc00000006000200fa00000f78001e0278005f
:10b4cc00cfa2de000400be00cedd07000002be00ed
:10b4dc0092c22500f3c023000400be0023de070047
:10b4ec000002be000400be000080fa00000006004e
:10b4fc000200fa00000f78001e027800cfa2de00d6
:10b50c000400be00bfdd07000002be0072cf2c009d
:10b51c00237123000400be0014de07000002be00ed
:10b52c000400be000080fa00000006000000fa00d3
:10b53c00000000003410800061026200e00f520035
:10b54c00fcff3a003410800064026200e00f5200ed
:10b55c00f8ff3a003410800068026200e00f5200dd
:10b56c00f4ff3a003410800070026200e00f5200c9
:10b57c00f0ff3a00451080000400240004826200b1
:10b58c00e00f5200ebff3a000080fa0000000600ca
:10b59c000400fa00640920002410880007e2a900c6
:10b5ac0007e2a80085c0a90085a0a900d4048000ea
:10b5bc000480a0000490a10004a0a000d404880082
:10b5cc008da0a9000471220005002000048fbe008c
:10b5dc00040037000082eb008082eb001e0f42005b
:10b5ec005e974a001e02be00e00f5200e08f5a0028
:10b5fc00f8ff3a0014c0b300044078000080fa0051
:10b60c00000006000000fa0007e2a90085c0a900ae
:10b61c0085a0a9008dc0a9008da0a90014c0b300fd
:10b62c00044078000080fa00000006000400fa00d4
:10b63c006022b800048fbe0007e2a90085c0a900f3
:10b64c0085a0a9008da0a9000002eb004410880081
:10b65c000471220005002000048fbe000400370096
:10b66c000082eb008082eb001e0f42005e974a00c6
:10b67c001e02be00e00f5200e08f5a00f8ff3a00a5
:10b68c00c3ff070010000700047122000500200012
:10b69c00048fbe00040037000082eb008082eb00b8
:10b6ac001e0f42005e974a001e02be00e00f5200c1
:10b6bc00e08f5a00f8ff3a0014c0b3000440780041
:10b6cc000080fa00000006000000fa0085c0a90006
:10b6dc008dc0a80014c0b300044078000080fa00ac
:10b6ec00000006000000fa0085c0a9008dc0a9006a
:10b6fc0014c0b300044078000080fa00000006007b
:10b70c000400fa0014c0b3000443780005e72000dd
:10b71c00864a78004410800070026200e00f5200ec
:10b72c00150032000602a80004712200050020005a
:10b73c00048fbe000a00370004e720001442780092
:10b74c00e04f520002003a0014c0b3000b00370067
:10b75c000082eb008082eb001e0f42005e974a00d5
:10b76c001e02be00e00f5200e08f5a00f2ff3a00ba
:10b77c000042eb00010037000042eb00044078006f
:10b78c000080fa00000006000400fa0064c0b30058
:10b79c000443780005e72000864a780044108000b6
:10b7ac0068026200e00f5200150032000622a80069
:10b7bc000471220005002000048fbe000a0037002f
:10b7cc0004e7200014427800e04f520002003a00d7
:10b7dc0014c0b3000b0037000082eb008082eb003a
:10b7ec001e0f42005e974a001e02be00e00f520080
:10b7fc00e08f5a00f2ff3a000042eb0001003700e4
:10b80c000042eb00044078000080fa0000000600c3
:10b81c000400fa0054c0b3000443780005e720008c
:10b82c00864a78000642a800047122000500200018
:10b83c00048fbe000a00370004e720001442780091
:10b84c00e04f520002003a0014c0b3000900370068
:10b85c000082eb008082eb001e0f42005e974a00d4
:10b86c001e02be00e00f5200e08f5a00f2ff3a00b9
:10b87c000042eb00044078000080fa000000060053
:10b88c000400fa0034c0b3000443780005e720003c
:10b89c00864a78003410800061026200e00f52008a
:10b8ac0010003a003410800064026200e00f520075
:10b8bc000c003a003410800068026200e00f520065
:10b8cc0008003a003410800070026200e00f520051
:10b8dc0004003a003410800062026200e00f520053
:10b8ec00020032000042eb001500370006a2a9004e
:10b8fc000682a8000471220005002000048fbe00ff
:10b90c000a00370004e7200014427800e04f520090
:10b91c0002003a0014c0b300090037000082eb00ab
:10b92c008082eb001e0f42005e974a001e02be0092
:10b93c00e00f5200e08f5a00f2ff3a000042eb0099
:10b94c00044078000080fa00000006000400fa00b1
:10b95c0034c0b3000443780005e72000864a780021
:10b96c003410800061026200e00f520010003a00b7
:10b97c003410800064026200e00f52000c003a00a8
:10b98c003410800068026200e00f520008003a0098
:10b99c003410800070026200e00f520004003a0084
:10b9ac003410800062026200e00f5200020032008c
:10b9bc000042eb001500370006a2a8000682a80082
:10b9cc000471220005002000048fbe000a0037001d
:10b9dc0004e7200014427800e04f520002003a00c5
:10b9ec0014c0b300090037000082eb008082eb002a
:10b9fc001e0f42005e974a001e02be00e00f52006e
:10ba0c00e08f5a00f2ff3a000042eb00044078004d
:10ba1c000080fa00000006000800fa0030079800c9
:10ba2c000471220005002000048fbe000042eb00d0
:10ba3c004447980044c0b3000443780005e7200055
:10ba4c00864a78000471220005002000048fbe0095
:10ba5c001c0037003410800061026200e00f5200bd
:10ba6c0014003a003410800064026200e00f5200af
:10ba7c0010003a003410800068026200e00f52009f
:10ba8c000c003a003410800070026200e00f52008b
:10ba9c0008003a0045108000040024000482620073
:10baac00e00f520003003a0014c0b3004447980062
:10babc00080037000082eb008082eb001e0f420072
:10bacc005e974a001e02be00e00f5200e08f5a0043
:10badc00e0ff3a004e429000e04f520002003a0064
:10baec000042eb00180037000662a800046a280028
:10bafc0015002000048fbe000e00370004e7200064
:10bb0c0014427800e04f520006003a000410800006
:10bb1c00844278003e029000054a780014c0b300bd
:10bb2c00090037000082eb008082eb001e0f420000
:10bb3c005e974a001e02be00e00f5200e08f5a00d2
:10bb4c00eeff3a000042eb00044078000080fa005f
:10bb5c00000006000600fa004047980024c0b3001d
:10bb6c000443780005e72000864a78004e42900096
:10bb7c000402fb0014108800047122000500200050
:10bb8c00048fbe000a00370004e72000144278003e
:10bb9c00e04f520002003a0014c0b3000900370015
:10bbac000082eb008082eb001e0f42005e974a0081
:10bbbc001e02be00e00f5200e08f5a00f2ff3a0066
:10bbcc000042eb00044078000080fa000000060000
:10bbdc00849fbe00861f78003400f800040020000b
:10bbec00a40188000000fa0085c0a9000042eb0007
:10bbfc000443780005e72000864a78000080fa00ac
:10bc0c003400f9004f0378004f02be0000400600dc
:10bc1c000000fa0074738000e00f52001a0032002a
:10bc2c000573800084da2f00848f520016003500d3
:10bc3c000573800084252000848f520012003c0084
:10bc4c00d602a900d622a900d642a900d662a90024
:10bc5c000002eb00747388000473800004f0a700ea
:10bc6c000402ea0005712200110009008402d800c8
:10bc7c00000278006f02520084007800e0e025009a
:10bc8c00f50707004700370004738000e00f5200ef
:10bc9c000c003400447380000402e80044738800f4
:10bcac00247380000402e90024738800247380004c
:10bcbc00e00f52000e003d00340020002473880079
:10bccc000b003700447380000402e90044738800c1
:10bcdc00247380000402e80024738800247380001d
:10bcec00e30f5200020034000002eb0024738800c2
:10bcfc0024738000cfa2de00360020000700200055
:10bd0c00860f5200878f5a0019003e000460010014
:10bd1c0003003700070037000b0037000f00370017
:10bd2c00d602a900d622a800d642a900d662a80045
:10bd3c000f003700d602a900d622a800d642a800d0
:10bd4c00d662a9000a003700d602a800d622a900a4
:10bd5c00d642a800d662a90005003700d602a8007a
:10bd6c00d622a900d642a900d662a8000000000085
:10bd7c000573800084da2f00848f5200090035008f
:10bd8c000573800084252000848f520005003c0040
:10bd9c001400200074738800f1002000e0e02500fe
:10bdac00ad0707000080fa00000006000000fa0052
:10bdbc0064738000e00f52001a003200157380008b
:10bdcc0084da2f00848f5200160035001573800022
:10bddc0084252000848f520012003c00d682a900da
:10bdec00d6a2a900d6c2a900d6e2a9000002eb0097
:10bdfc00647388001473800004f0a7000402ea0046
:10be0c0005712200110009008402d800000278009c
:10be1c006f02520084007800c0ed25008e070700e9
:10be2c004700370014738000e00f52000c003d00f7
:10be3c00547380000402e90054738800347380004a
:10be4c000402e9003473880034738000e00f520060
:10be5c000e003d0034002000347388000b003700c6
:10be6c00547380000402e80054738800347380001b
:10be7c000402e8003473880034738000e30f52002e
:10be8c00020034000002eb0034738800347380002d
:10be9c00cfa2de003600200007002000860f5200e3
:10beac00878f5a0019003e00046001000300370020
:10bebc00070037000b0037000f003700d682a900af
:10becc00d6a2a800d6c2a900d6e2a8000f0037005f
:10bedc00d682a900d6a2a800d6c2a800d6e2a90094
:10beec000a003700d682a800d6a2a900d6c2a800a4
:10befc00d6e2a90005003700d682a800d6a2a90078
:10bf0c00d6c2a900d6e2a80000000000157380007c
:10bf1c0084da2f00848f52000900350015738000dd
:10bf2c0084252000848f520005003c001400200062
:10bf3c0064738800f1002000c0ed2500460707005f
:10bf4c000080fa00000006000000fa008000eb0000
:10bf5c00e0e02500e80607008000eb00c0ed2500be
:10bf6c00e50607000080fa00000006000200fa0057
:10bf7c00000f7800d602a900d622a900d642a9004b
:10bf8c00d662a9001e027800e00f520006003a00ab
:10bf9c000002eb00047388008000eb00e0e0250059
:10bfac002d0707003400370084c12f009e02780053
:10bfbc00848f52000b003d0084c12f000473880055
:10bfcc0004738000058f2d00110009008402d80035
:10bfdc000002780084007800e0e025001e070700ce
:10bfec0025003700843e20009e027800848f52008a
:10bffc000b003400843e200004738800047380001e
:10c00c0005712200110009008402d800000278009a
:10c01c0084007800e0e025000f07070016003700c9
:10c02c001e027800047388001e027800e00f520094
:10c03c0009003d00058f2d001e027800110009003b
:10c04c008402d8000002780084007800e0e025002b
:10c05c000107070008003700057122001e02780056
:10c06c00110009008402d8000002780084007800d6
:10c07c00e0e02500f80607000080fa00000006004a
:10c08c000200fa00000f7800d682a900d6a2a900ff
:10c09c00d6c2a900d6e2a9001e027800e00f520019
:10c0ac0006003a000002eb00147388008000eb00dd
:10c0bc00c0ed2500e80607003400370084c12f00ce
:10c0cc009e027800848f52000b003d0084c12f002b
:10c0dc001473880014738000058f2d001100090063
:10c0ec008402d8000002780084007800c0ed25009e
:10c0fc00d906070025003700843e20009e027800f8
:10c10c00848f52000b003400843e2000147388008e
:10c11c001473800005712200110009008402d800fc
:10c12c000002780084007800c0ed2500ca060700e4
:10c13c00160037001e027800147388001e02780067
:10c14c00e00f520009003d00058f2d001e02780003
:10c15c00110009008402d8000002780084007800e5
:10c16c00c0ed2500bc060700080037000571220051
:10c17c001e027800110009008402d8000002780029
:10c18c0084007800c0ed2500b30607000080fa009b
:10c19c00000006000400fa00000f78001107980058
:10c1ac001e0278008402780005f0a7008502ea00e0
:10c1bc001e02900004f0a7000402ea0084824200f0
:10c1cc00843e2000848f520009003c001e02900027
:10c1dc001e0212000400780064ff07001e0290008b
:10c1ec001e02420004007800a5ff07000100370082
:10c1fc00000000000080fa00000006000000fa00b9
:10c20c0044738000040078000080fa0000000600ef
:10c21c000200fa00000f78001e02780044738800b8
:10c22c000080fa00000006000000fa005473800041
:10c23c00040078000080fa00000006000200fa00fa
:10c24c00000f78001e027800547388000080fa00fa
:10c25c00000006001e00fa00000f9800110f980055
:10c26c00220f9800330f9800440f9800550f980038
:10c27c00660f98000e0a900070024200040f98009e
:10c28c001e0a900068024200140f98005e0a90008b
:10c29c00e00f5200030032004e0a9000e00f5200f3
:10c2ac0002003a000082eb001a0137008e0a90005f
:10c2bc002e0a900084824200042d2000848f5200ac
:10c2cc00020036000082eb00120137009e0a90003b
:10c2dc003e0a900084824200841e2000848f52000b
:10c2ec00020036000082eb000a013700ae0a900013
:10c2fc004e0a9000110009008482d80001027800d7
:10c30c00e00f5200020032000082eb000101370006
:10c31c00be0a90005e0a9000110009008482d800c9
:10c32c0001027800e00f5200020032000082eb00a4
:10c33c00f80037005e0a900063026200e00f5200c2
:10c34c0039003a004e0a900063026200e00f52007e
:10c35c0011003a0004082000340798004400200023
:10c36c00240798005e0a90004222de00040f780039
:10c37c004e0a90004222de00140798001e0a90001c
:10c38c0064025200140f98000e0a900064025200ce
:10c39c00040f98005a0037004e0a900061026200a8
:10c3ac00e00f520011003a000404200034079800fa
:10c3bc0024002000240798005e0a90000402d1009b
:10c3cc00040f78004e0a90000402d1001407980064
:10c3dc001e0a90000482e900140f98000e0a9000c7
:10c3ec000482e900040f9800450037000402200085
:10c3fc003407980014002000240798005e0a90006f
:10c40c00040f78004e089000100798001e0a900048
:10c41c000402e900140f98000e0a90000402e900cf
:10c42c00040f9800360037005e0a9000610262002b
:10c43c00e00f520024003a004e0a900061026200a4
:10c44c00e00f520011003a00040420003407980059
:10c45c0024002000240798005e0a90000402d100fa
:10c46c00040f78004e0a90000402d10014079800c3
:10c47c001e0a90000482e900140f98000e0a900026
:10c48c000482e900040f98001d003700040220000c
:10c49c00340798001400200024079800de08900050
:10c4ac00010f78004e0a9000140798001e0a9000a5
:10c4bc000402e900140f98000e0a90000402e9002f
:10c4cc00040f98000e003700140020002407980079
:10c4dc0004022000340798004e08900010079800c2
:10c4ec00de089000010f78001e0a90000402e9009b
:10c4fc00140f98000e0a90000402e900040f980033
:10c50c001e0290000402e900440798001e02e90094
:10c51c0054079800ae0a90004e0a900011000900d2
:10c52c008482d8000002780064079800be0a90004c
:10c53c005e0a9000110009008482d8000002780085
:10c54c0074079800152d20002e0290001100090090
:10c55c008402d80000027800840278002e02900039
:10c56c000e0b9000110009000483d8000002780023
:10c57c00850078000400780020f90700000278009c
:10c58c00e00f5200020032000082eb006100370025
:10c59c00951e20002e029000110009008402d80084
:10c5ac0000027800840278002e0290001e0b90008e
:10c5bc00110009000483d80000027800850078007f
:10c5cc000400780035f9070000027800e00f5200f3
:10c5dc00020032000082eb004e003700811e20006a
:10c5ec001e08900034f9070000027800e00f52009a
:10c5fc00020032000082eb00460037006e0a900009
:10c60c00e00f520014003a003e0290000504200096
:10c61c00850f52000900320005082000850f5200da
:10c62c000a00320005022000850f52001d003a005e
:10c63c0000c9b30038f807001b00370000c5b30071
:10c64c0035f80700000000001700370000c1b300e8
:10c65c0031f80700140037003e029000050420005a
:10c66c00850f52000900320005082000850f52008a
:10c67c000900320005022000850f52000a003a0022
:10c68c0000cbb30024f807000700370000c9b30043
:10c69c0021f807000400370000c5b3001ef807009e
:10c6ac0001003700000000003e0290008442780038
:10c6bc006e0a9000044278008540780004407800af
:10c6cc00a7f8070000027800e00f520002003200c9
:10c6dc000082eb000f0037006e089000100007007e
:10c6ec00800278005e029000ce0190000501780077
:10c6fc00ee0090007e00900044cf0700000278000e
:10c70c00e00f5200020032000082eb000100370003
:10c71c000002eb00040078000080fa000000060024
:10c72c000200fa00000f78001e027800e10f5200a0
:10c73c0006003200e20f520006003200e00f5200f9
:10c74c0006003a00140020000500370024002000e9
:10c75c0003003700240020000100370014002000e3
:10c76c00040078000080fa00000006001e00fa00a9
:10c77c00000f9800110f9800220f9800330f9800ab
:10c78c00440f9800550f9800660f98000e0a900001
:10c79c004404b000040f98001e0a9000640242008a
:10c7ac00140f98005e0a9000e00f52000300320054
:10c7bc004e0a9000e00f520002003a0014002000d4
:10c7cc001a0137008e0a90002e0a900084824200d3
:10c7dc00442c2000848f52000200360024002000dc
:10c7ec00120137009e0a90003e0a9000848242009b
:10c7fc00441e2000848f52000200360034002000ba
:10c80c000a013700ae0a90004e0a90001100090090
:10c81c008482d80001027800e00f5200020032003e
:10c82c004400200001013700be0a90005e0a90000f
:10c83c00110009008482d80001027800e00f520038
:10c84c000200320054002000f80037005e0a90000d
:10c85c0063026200e00f520039003a004e0a900069
:10c86c0063026200e00f520011003a00040820003d
:10c87c003407980044002000240798005e0a9000ba
:10c88c004222de00040f78004e0a90004222de00a5
:10c89c00140798001e0a900064025200140f9800ae
:10c8ac000e0a900064025200040f98005a003700e0
:10c8bc004e0a900061026200e00f520011003a0033
:10c8cc00040420003407980024002000240798005a
:10c8dc005e0a90000402d100040f78004e0a90000a
:10c8ec000402d100140798001e0a90000482e9008b
:10c8fc00140f98000e0a90000482e900040f9800af
:10c90c004500370004022000340798001400200072
:10c91c00240798005e0a9000040f78004e089000df
:10c92c00100798001e0a90000402e900140f9800ea
:10c93c000e0a90000402e900040f9800360037003c
:10c94c005e0a900061026200e00f520024003a007f
:10c95c004e0a900061026200e00f520011003a0092
:10c96c0004042000340798002400200024079800b9
:10c97c005e0a90000402d100040f78004e0a900069
:10c98c000402d100140798001e0a90000482e900ea
:10c99c00140f98000e0a90000482e900040f98000e
:10c9ac001d003700040220003407980014002000fa
:10c9bc0024079800de089000010f78004e0a9000c2
:10c9cc00140798001e0a90000402e900140f980046
:10c9dc000e0a90000402e900040f98000e003700c4
:10c9ec00140020002407980004022000340798004b
:10c9fc004e08900010079800de089000010f780098
:10ca0c001e0a90000402e900140f98000e0a900010
:10ca1c000402e900040f98001e0290000402e900d1
:10ca2c00440798001e02e90054079800ae0a9000d3
:10ca3c004e0a9000110009008482d8000002780090
:10ca4c0064079800be0a90005e0a9000110009006d
:10ca5c008482d8000002780074079800552c2000be
:10ca6c002e029000110009008402d8000002780008
:10ca7c00840278002e0290000e0b90001100090029
:10ca8c000483d80000027800850078000400780048
:10ca9c000af6070000027800e00f52000200320094
:10caac006400200061003700551e20002e0290000b
:10cabc00110009008402d80000027800840278007a
:10cacc002e0290001e0b9000110009000483d80068
:10cadc000002780085007800040078001ff607003b
:10caec0000027800e00f52000200320074002000b7
:10cafc004e003700411e20001e0890001ef6070055
:10cb0c0000027800e00f5200020032008400200086
:10cb1c00460037006e0a9000e00f520014003a00f5
:10cb2c003e02900005042000850f520009003200df
:10cb3c0005082000850f52000a0032000502200073
:10cb4c00850f52001d003a0040c0b3003af50700b3
:10cb5c001b00370020c0b30037f5070000000000b1
:10cb6c00170037000040eb0033f5070014003700c6
:10cb7c003e02900005042000850f5200090032008f
:10cb8c0005082000850f5200090032000502200024
:10cb9c00850f52000a003a0050c0b30026f507007a
:10cbac000700370040c0b30023f50700040037002e
:10cbbc0020c0b30020f50700010037000000000082
:10cbcc003e029000844278006e0a90000442780085
:10cbdc00854078000440780091f507000002780049
:10cbec00e00f520002003200940020000f003700ca
:10cbfc006e08900010000700800278005e02900022
:10cc0c00ce01900005017800ee0090007e009000af
:10cc1c00fecd070000027800e00f52000200320047
:10cc2c00a4002000010037000002eb000400780093
:10cc3c000080fa00000006000200fa00000f7800e5
:10cc4c001e027800e10f520006003200e20f520083
:10cc5c0006003200e00f520006003a0014002000db
:10cc6c0005003700240020000300370024002000ba
:10cc7c000100370014002000040078000080fa0046
:10cc8c00000006000e00fa00000f78001107980053
:10cc9c00220798003307980044079800550798001e
:10ccac0066079800b474800005032600850f5200b7
:10ccbc001000320005032800850f520017003200c7
:10cccc0005032300850f52001e003a006e039000ee
:10ccdc00de0290004e029000be0190002e019000ea
:10ccec009e0090001e0078002601070000027800cc
:10ccfc00150037006e039000de0290004e0290008b
:10cd0c00be0190002e0190009e0090001e00780045
:10cd1c0050fd0700000278000b0037006e039000f6
:10cd2c00de0290004e029000be0190002e01900099
:10cd3c009e0090001e0078008cfe07000002780018
:10cd4c0001003700b4002000040078000080fa00d5
:10cd5c00000006000400fa00000f7800110798008c
:10cd6c00b474800005032600850f52000a003200bf
:10cd7c0005032800850f52000b0032000503230029
:10cd8c00850f52000c003a009e0090001e007800a7
:10cd9c0081e60700080037009e0090001e00780016
:10cdac00a2f70700040037009e0090001e007800d8
:10cdbc00aff50700000000000080fa00000006003c
:10cdcc000000fa00b474800005032600850f5200a1
:10cddc000800320005032800850f520007003200be
:10cdec0005032300850f520005003a0045e50700b6
:10cdfc0003003700000000000100370000000000b5
:10ce0c000080fa00000006000400fa00ff0607008c
:10ce1c004f070700d1a2a90044062000040f780098
:10ce2c0002003700000000001e0fe9001e0278000f
:10ce3c00e00f5200fbff3a00d1a2a80044062000ec
:10ce4c00040f780002003700000000001e0fe900fc
:10ce5c001e027800e00f5200fbff3a0081e0a900af
:10ce6c00f5048000f4002f00848262000466200028
:10ce7c0004824200f40488008040eb00c0cdb30073
:10ce8c0043070700004278002447980011c0b30004
:10ce9c00c0cdb3003e07070000427800344798002d
:10ceac002e4290000482fb00c822dd003e4290001e
:10cebc000482fb0005027200b4748800b574800013
:10cecc0004032300848f520004003a008000eb001e
:10cedc000000eb009fff070010003700b5748000c6
:10ceec0004032600848f520004003a001100200035
:10cefc001000200097ff070008003700b574800071
:10cf0c0004032800848f520004003a008000eb00d8
:10cf1c000000eb008fff07003af40700a8ff0700a2
:10cf2c00b4748000040078000080fa000000060051
:10cf3c000800fa002007980031079800240320000d
:10cf4c00144278000482fb00040f78002e0290003b
:10cf5c00044278000443780025032000864a7800b8
:10cf6c003e0290001402ba00140798001e027800ca
:10cf7c00044278000443780025032000864a780098
:10cf8c001e029000040078000080fa0000000600e9
:10cf9c000000fa00b474800005032600850f5200cf
:10cfac001700320005032800850f520016003200ce
:10cfbc0005032300850f520015003a00e1ff2f00f6
:10cfcc00f0072000daff070000027800630262001d
:10cfdc00e20f520006003200e30f5200060032004e
:10cfec00e10f520006003a0014002000090037003f
:10cffc0024002000070037000002eb00050037007a
:10d00c00140020000300370014002000010037003a
:10d01c000082eb00040078000080fa00000006009b
:10d02c000400fa00000f780011079800b474800017
:10d03c0005032600850f52000a0032000503280064
:10d04c00850f52000b00320005032300850f5200a0
:10d05c000c003a009e0090001e00780023e80700a8
:10d06c00080037009e0090001e0078000cf70700a7
:10d07c00040037009e0090001e00780019f5070090
:10d08c00000000000080fa00000006000400fa0016
:10d09c00004f78001147980022479800b474800024
:10d0ac0005032600850f52000d00320005032800f1
:10d0bc00850f52000f00320005032300850f52002c
:10d0cc0011003a002e4290009e4190001e419000ab
:10d0dc009e40780080c2b30013e607000a003700b8
:10d0ec002e4190009e4090001e40780010f70700e3
:10d0fc00050037002e4190009e4090001e407800a5
:10d10c001cf50700000000000080fa00000006007b
:10d11c000400fa00008fbe00b474800005032600e2
:10d12c00850f52000a00320005032800850f5200bb
:10d13c000a00320005032300850f52000a003a0052
:10d14c001e02be000400be002ae7070006003700de
:10d15c001e00be0008f70700030037001e00be00cb
:10d16c0016f50700000000000080fa000000060021
:10d17c000000fa00b4748000040078000080fa000b
:10d18c00000006001c00fa0070079800010f9800c0
:10d19c00120f9800230f9800340f9800450f980039
:10d1ac00560f98007e029000240db0007407980072
:10d1bc000e0a900067024200040f98004e0a90007d
:10d1cc00e00f5200030032003e0a9000e00f5200c4
:10d1dc0002003a000082eb00fc003700fe029000d7
:10d1ec001e0a90008482420024352000848f520055
:10d1fc00020036000082eb00f40037008e0a90002b
:10d20c002e0a900084824200741e2000848f5200eb
:10d21c00020036000082eb00ec0037009e0a900002
:10d22c003e0a9000110009008482d80001027800a7
:10d23c00e00f5200020032000082eb00e3003700e6
:10d24c00ae0a90004e0a9000110009008482d800aa
:10d25c0001027800e00f5200020032000082eb0065
:10d26c00da0037004e0a900063026200e00f5200b1
:10d27c0033003a003e0a900063026200e00f520055
:10d28c000f003a0034032000240798004e0a900047
:10d29c004222de00040f78003e0a90004222de009b
:10d2ac00140798000e0a900064025200040f9800b4
:10d2bc007e02900064025200740798005000370000
:10d2cc003e0a900061026200e00f52000f003a002b
:10d2dc0014012000240798004e0a90000402d1008b
:10d2ec00040f78003e0a90000402d1001407980045
:10d2fc000e0a90000482e900040f98007e02900050
:10d30c000482e900740798003d00370044042000b3
:10d31c00240798004e0a9000040f78003e089000f5
:10d32c00100798000e0a90000402e900040f980000
:10d33c007e0290000402e900740798003000370068
:10d34c004e0a900061026200e00f520020003a0089
:10d35c003e0a900061026200e00f52000f003a009a
:10d36c0014012000240798004e0a90000402d100fa
:10d37c00040f78003e0a90000402d10014079800b4
:10d38c000e0a90000482e900040f98007e029000bf
:10d39c000482e90074079800190037004404200047
:10d3ac0024079800ce089000010f78003e0a9000e8
:10d3bc00140798000e0a90000402e900040f98006c
:10d3cc007e0290000402e900740798000c003700fc
:10d3dc0044042000240798003e0890001007980091
:10d3ec00ce089000010f78000e0a90000402e900ac
:10d3fc00040f98007e0290000402e9007407980064
:10d40c001e0290000402e900340798001e02e90095
:10d41c00440798009e0a90003e0a900011000900f3
:10d42c008482d8000002780054079800ae0a90005d
:10d43c004e0a9000110009008482d8000002780086
:10d44c00640798005e089000e2e307000002780091
:10d45c00e00f5200020032000082eb005b0037004c
:10d46c002e009000f9e3070000027800e00f520054
:10d47c00020032000082eb00540037005e0a90007c
:10d48c00e00f520014003a002e02900035032000e9
:10d49c00850f52000d00320045042000850f52000c
:10d4ac0003003200f10f5200040032001d0037005f
:10d4bc0000032000fde307001a00370000022000e3
:10d4cc00fae3070000000000160037000000eb0034
:10d4dc00f6e30700130037002e02900035032000fe
:10d4ec00850f52000c00320045042000850f5200bd
:10d4fc0003003200f10f5200040032000900370023
:10d50c0000042000e9e307000600370000032000b8
:10d51c00e6e307000300370000022000e3e3070006
:10d52c0000000000313520007e0090000ae4070066
:10d53c0000027800e00f5200020032000082eb0083
:10d54c0022003700811e20000e0890002ee40700f8
:10d55c0000027800e00f5200020032000082eb0063
:10d56c001a0037007e0290000402e80004017800e3
:10d57c00711e20000e0890004ce407000002780099
:10d58c00e00f5200020032000082eb000f00370067
:10d59c005e08900010000700800278004e02900098
:10d5ac00be01900005017800de0090006e00900036
:10d5bc0096cb070000027800e00f52000200320008
:10d5cc000082eb00010037000002eb000400780041
:10d5dc000080fa00000006000200fa00000f78003c
:10d5ec001e027800e10f520006003200e20f5200da
:10d5fc0006003200e00f520006003a001400200032
:10d60c000500370024002000030037002400200010
:10d61c000100370014002000040078000080fa009c
:04d62c0000000600f4
:020000040000fa
:10d63000a00e00002c10000000000000780e00007a
:10d6400006000000000000002c0e0000200000007a
:10d6500000000000940e0000020000000200000024
:10d66000d007000000080000bc030000000000001c
:10d670004c0e00001400000000000000960e000098
:10d680000200000000000000100d0000d8000000a3
:10d6900002000000040305005306030007530800be
:10d6a0000009d1000a000b00070c03000d510e0009
:10d6b000010fe700120213000215100016401700b8
:10d6c0004018400019401a00031be6001c001d0012
:10d6d000701e0a001f1b2000443b000046804800cb
:10d6e000604996004a004b007d4c00004e084f00f8
:10d6f0000a50700059005a00005b00005cac5d00ed
:10d7000002760000771a78002a7937007a427b0087
:10d71000567c68007d877e00a37fbc0080d481009a
:10d72000ea8e38008fa590000d919300922d930002
:10d730000694830095aa96004d97250098259b0096
:10d74000009c96009f80a00080a1b600a29da3002f
:10d75000aba48000a500a60007a70100a8e7a900c8
:10d7600000aa0100ad9fae0022af8c00b007b1004f
:10d77000ccb20000b370b90003bae600bb07bc002e
:10d78000ccbd0000be0cc10010c2e000c310c4003c
:10d79000e0c58000c680c70001c8a500c902ca0054
:10d7a0007acb0000cca7cd0001ce4700d43cd500f9
:10d7b00001d88000bc0b00005401000000000000f4
:10d7c000700e00000800000000000000980e00002d
:10d7d00002000000000000009a0e0000020000009d
:10d7e000000000007e0e00000600000000000000a7
:10d7f0009c0e00000200000002000000010000007a
:10d80000600e00001000000000000000840e000008
:10d810000600000000000000900e00000400000060
:10d82000020000000200ff00ff000000e80d000001
:10d8300044000000020000000000000000000000a2
:10d8400000000000000000000000000000000000d8
:10d8500000000000000000000000000000000000c8
:10d8600000000000000000000000000000000000b8
:10d8700000000000000000000000000000000000a8
:10d880000000000000000000000000000000000098
:10d89000000000008a0e00000600000002000000e8
:10d8a0000000000000000000ba1f00000800000097
:10d8b00000000000c61f0000020000000000000081
:10d8c000c81f00000200000000000000c21f00008e
:10d8d0000400000000000000ca1f00000200000059
:10d8e00000000000cc1f000002000000000000004b
:10d8f0006c1f00002a0000000200000030313200de
:10d90000333435003637380039414200434445004e
:10d9100046003000313233003435360037383900b4
:10d92000616263006465660000286e00756c6c00bf
:10d9300029000000cc1e0000a00000000200000032
:10d94000010000000000000000000a0000000000cc
:10d950000000000000640000000000000000000063
:10d96000e803000000000000000010002700000095
:10d970000000000000a08600010000000000000080
:10d9800040420f0000000000000080009698000058
:10d99000000000000000e100f505000000000000ac
:10d9a00000ca9a003b00000000000000e40b540095
:10d9b000020000000000e8007648170000000000a8
:10d9c0000010a500d4e8000000000000a0724e0086
:10d9d00018090000000040007a10f3005a0000000f
:10d9e0000080c600a47e8d000300000000c16f000f
:10d9f000f2862300000000008a5d78004563010084
:10da000000006400a7b3b600e00d000000e8890044
:10da10000423c7008a000000961f000024000000b5
:10da200002000000d21f000000d21f000900000009
:10da300000020000d41f000000d41f000e020100ed
:10da400000000000000000000000000006020200cc
:10da500000000000ce1f00000200000002000000d5
:10da6000961f0000d01f0000020000000000000010
:10da7000d21f00000200000000000000d41f0000c0
:10da800002000000000000009e0e000002000000e6
:10da900000000000d61f000002000000020000008d
:10daa00001000000d81f000002000000000000007c
:04dab0000000000072
:020000040000fa
:10dab4000000fa000002eb0084088800840880005b
:10dac4000440a1000450a100840888000002eb0077
:10dad40034088800245c20006408880084c0a900fd
:10dae4008cc0a80011e1a8000080fa000000060024
:10daf4000000fa0011e1a9000080fa00000006000d
:10db04000600fa001007980021079800d4748000da
:10db1400040f78000a0037001e027800b402900057
:10db24001e029000848f520002003a00140020006c
:10db3400210037001e027800c4029000050f78000f
:10db44001e027800e00f5200f3ff3a00a00020000c
:10db540045cb070000027800040f78001e0278000d
:10db6400e00f520002003a00100020003acb0700f8
:10db7400ae0290001e027800050a78001e027800aa
:10db84008002eb00150298001e02780015c0b30055
:10db9400454298001e0278009e02900035029800cb
:10dba400d57480001e027800450298001e02780099
:10dbb400d474880014002000040078000080fa0067
:10dbc400000006000600fa00200798000002eb009f
:10dbd400040f7800d47480001407980019003700eb
:10dbe4001e029000b40290002e029000848f520016
:10dbf4000f003a001e027800e00f520005003200c8
:10dc04001e029000c40290001e0278004502980093
:10dc1400030037001e02900044029000d474880070
:10dc24001e0090009ecb070014002000090037005e
:10dc34009e029000050f78001e029000c40290001e
:10dc4400150798001e029000e00f5200e4ff3a000e
:10dc540024002000040078000080fa000000060080
:10dc64000600fa001007980021079800d474800079
:10dc7400040f78000d0037001e027800b4029000f3
:10dc84001e029000848f520005003a00ae029000fc
:10dc94001e027800050a78001400200007003700ef
:10dca4001e027800c4029000050f78001e0278005e
:10dcb400e00f5200f0ff3a00240020000400780036
:10dcc4000080fa00000006000400fa001007980023
:10dcd400d4748000040f78000d0037001e02780011
:10dce400b40290001e029000848f520005003a0096
:10dcf4001e0278008002eb00150298001400200038
:10dd0400070037001e027800c4029000050f780057
:10dd14001e027800e00f5200f0ff3a0024002000b9
:10dd2400040078000080fa00000006000400fa00f5
:10dd340010079800d4748000040f78000d00370099
:10dd44001e027800b40290001e029000848f5200dc
:10dd540005003a001e0278008042eb00454298001c
:10dd640014002000070037001e027800c40290004f
:10dd7400050f78001e027800e00f5200f0ff3a0011
:10dd840024002000040078000080fa00000006004f
:10dd94000400fa0010079800d4748000040f78007f
:10dda4000d0037001e027800b40290001e0290009d
:10ddb400848f520005003a001e02780015c0b3009b
:10ddc4004542980014002000070037001e02780026
:10ddd400c4029000050f78001e027800e00f520084
:10dde400f0ff3a0024002000040078000080fa00cc
:10ddf400000006003600f800809fbe00829fbe002f
:10de0400849fbe00869fbe003400f80000002000fe
:10de1400a00188000200fa00d4748000040f780086
:10de240084c0a9001e0037001e02780044429000fe
:10de3400e14f520017003a001e02780014027800e5
:10de4400e00f5200130032001e027800140290000a
:10de54008402e8001e027800150298001e02780071
:10de640014029000840278001e02780014027800e4
:10de74000402e900848f5200060036001e02780076
:10de840034029000040001001e0278008002eb00be
:10de9400150298001e027800c4029000050f780055
:10dea4001e027800e00f5200dfff3a000080fa0003
:10deb4003400f9004f03be004f02be004f01be0004
:10dec4004f00be003600f900004006000000fa00d2
:10ded400dec2a8008200a8008400a9008c00a8006b
:10dee4000080fa00000006003600f800809fbe00a3
:10def400829fbe00849fbe00869fbe003400f8004f
:10df040000002000a00188000000fa008c00a90095
:10df140051012000c0fb2600f9fe07000042eb007f
:10df24000443780055e82000864a780054e820002d
:10df3400144278000443780045e82000864a7800bb
:10df440044e82000144278000443780065e8200087
:10df5400864a78000080fa003400f9004f03be00be
:10df64004f02be004f01be004f00be003600f90054
:10df7400004006000200fa0094748000e10f4200a1
:10df840020003a0005178000040420000482620087
:10df9400e00f5200070032008c00a8008400a900a2
:10dfa400c0fb260007ff07000082eb009474880082
:10dfb4006e00370091002000c0fb260028ff0700f8
:10dfc4000042eb000443780055e82000864a7800bc
:10dfd40054e82000144278000443780045e8200007
:10dfe400864a780044e8200014427800044378000c
:10dff40065e82000864a78000002eb0094748800eb
:10e004005a00370094748000e10f52000d003a006a
:10e01400041780004622de00614262000443780057
:10e0240065e82000864a780021012000c0fb260014
:10e034000bff0700110020001000200056e5070028
:10e044004a00370094748000e10f52001400340039
:10e0540094748000e60f520011003c000417800005
:10e064004622de0061426200044f78001e427800be
:10e074008482fb009474800066021200042add008e
:10e08400044f780044e82000144278001e42420005
:10e094000443780045e82000864a780033003700be
:10e0a40094748000e60f52001500340094748000cc
:10e0b400ec0f520012003c00041780004622de00e0
:10e0c40061426200144798001e4290008482fb0063
:10e0d400947480006c021200042add001447980036
:10e0e40055e82000954278001e42900004c2420088
:10e0f4000443780055e82000864a78001b00370066
:10e1040094748000ed0f520018003a008000eb0078
:10e114001000200020e507008c00a8008400a9005e
:10e12400c0fb2600a7fe07000082eb009474880061
:10e1340064e82000144278000443780005e92000d4
:10e14400864a780044e820001442780004437800aa
:10e1540075e82000864a780054e8200014427800cc
:10e164000443780085e82000864a7800947480008f
:10e17400e10f420003003200947480000402e800be
:10e18400947488000080fa00000006000000fa0081
:10e1940004e9200014427800044078000080fa006a
:10e1a400000006000000fa0074e820001442780021
:10e1b400044078000080fa00000006000000fa0025
:10e1c40084e8200014427800044078000080fa00bb
:10e1d400000006000200fa00000f7800265c8000b0
:10e1e4009e0278004406200004aab90004027800c4
:10e1f400060242008402420004802000048242009d
:10e2040014027800040078000080fa000000060080
:10e214000c00fa0040079800510798006022b800eb
:10e22400048fbe004e029000e20f52002f003e0009
:10e234005e029000e00f52002c003200de029000db
:10e2440044062000848f520028003e000002eb00a8
:10e2540024079800255c80005e029000048252002e
:10e264005506200084824200440620001100090063
:10e274008482d80001027800340798001700370020
:10e28400ce0290004406200004aab900840278005b
:10e294003e02900004824200840242000480200076
:10e2a4000482420014027800cfa2de001e0f420056
:10e2b4005e974a002e0290000402e80024079800aa
:10e2c4003e0290008402e800440620001100090088
:10e2d4008402d8000102780034079800ae0290004e
:10e2e4005e029000848f5200e5ff39005e029000c8
:10e2f400050020000401be001e00be00f4d107008a
:10e304000002be0004027800040078000080fa00d5
:10e31400000006000800fa00300798000002eb0035
:10e324001407980074382100240798000002eb00b9
:10e33400040f78002e003700be029000440620002f
:10e3440004aab900040278001e02420084024200ba
:10e354000480200004824200940278001e0290008f
:10e36400848f52000b003400be029000440620004b
:10e3740004aab900040278001e024200840242008a
:10e38400048020000482420094027800150798005b
:10e3940016003700be0290004406200004aab9000b
:10e3a400040278001e02420084024200048020001d
:10e3b40004824200940278002e029000848f52005e
:10e3c4000a003d00be0290004406200004aab900e1
:10e3d400040278001e0242008402420004802000ed
:10e3e4000482420094027800250798001e0fe8007a
:10e3f400340620009e027800848f5200ceff340041
:10e404009e0290002e0290000482520004007800c4
:10e414000080fa00000006000800fa0010079800c7
:10e4240021079800320798003e029000e00f520046
:10e4340026003200be02900044062000848f520061
:10e4440022003e000002eb00040f78001b0037009e
:10e454001e027800be02900084825200f4ff27005e
:10e464000482420004024200ae029000048342008f
:10e47400255c80001e02780084824200440620004d
:10e48400110009008482d800010278008403780016
:10e494009e0290004406200004aab90004027800f9
:10e4a40007024200840242000480200004824200e9
:10e4b40014027800040b78001e0fe8009e02780016
:10e4c4003e029000848f5200e1ff39000080fa0080
:10e4d400000006003000fa00889fbe000002eb0036
:10e4e400040f78000002eb00140798000d003700b9
:10e4f4001e02780084024200c4e420000482420028
:10e504008002eb00050a78001e0278004222dd003a
:10e5140004024700680342006022b800048bbe0076
:10e524001e0fe8001e027800e90f5200f0ff3400cd
:10e534002c0037000002eb00040f780023003700a2
:10e544001e0278004222dd00e802470004824200f5
:10e554001404be001e02780004007800490007007d
:10e5640000027800cfa2de000802420089824a003d
:10e574001e0378004233dd000603470068034300ae
:10e58400048bbe006022b800240798003507980069
:10e59400060037002e029000be0290006102420085
:10e5a400e0824a0024079800350798002e03900063
:10e5b400be039000743e200005002000840f530029
:10e5c400858f5b00f3ff34001e0fe8001e02780005
:10e5d400e90f5200daff34001e0290000402e80042
:10e5e400140798009e02900034062000848f520085
:10e5f400d0ff34000002eb00040f78001b0037004a
:10e604001e0278004222dd00e80247000482420034
:10e614001402be000400be007cd107000004be004a
:10e624001e029000cfa2de000400be0077d10700d6
:10e634000002be000401be000800be00e2d00700d4
:10e644000002be000400be0034d107000002be0078
:10e65400840278001e02780004034200c4e420000f
:10e6640004024300050a78001e0fe8001e02780029
:10e67400e90f5200e2ff34004f04be000080fa00ac
:10e68400000006000200fa00000f78001e02780065
:10e69400e90f5200020036000002eb000b003700c5
:10e6a4001e0278008402420084b8200004824200e2
:10e6b400940278001e02780004034200c4b92000ca
:10e6c400040243001402780004825200040078001b
:10e6d4000080fa00000006000400fa001007980009
:10e6e4001e029000e90f5200020036000002eb0007
:10e6f400170037001e0290008402420084b82000f4
:10e7040004824200940278001e0290000403420036
:10e71400c4b9200004024300140278008482520029
:10e724001e02900004034200c4e4200004024300db
:10e7340014027800048f52001e027800e00f520089
:10e74400020034001e027800010037000002eb00d2
:10e75400040078000080fa00000006000200fa00bd
:10e76400000f78001e027800e90f52000200360004
:10e774000002eb00050037001e027800840242000c
:10e7840084b8200004824200140278000400780057
:10e794000080fa00000006000800fa002007980034
:10e7a400310798006022b800048fbe0004003700cf
:10e7b40014002000050020001e0f42005e974a004e
:10e7c4002e029000be0290001e03be00840f530070
:10e7d400858f5b00f6ff35000080fa00000006001c
:10e7e4000000fa00341780004622de006142620015
:10e7f4008482fb00341780004822de0061426200fc
:10e804000483fb00341780004922de006142620069
:10e814000482fb000402420004024300040242009a
:10e8240004037800341780004722de00614262004e
:10e834000482fb00040243000402420004824200fa
:10e84400040078000080fa00000006000000fa00ce
:10e85400bb00070000427800e04f5200070032007e
:10e86400345c80004406b0008402420084a5200089
:10e874000482420014027800010037000002eb0019
:10e88400040078000080fa00000006000000fa008e
:10e89400ab00070000427800e04f52001b0032003a
:10e8a400345c80004406b0008402420084a5200049
:10e8b4000482420094027800a47e2f000482420065
:10e8c400cfa2de000400be00d0d007000002be00cc
:10e8d40002002000832c24000400be0025d1070080
:10e8e4000002be0002002000533f24000400be00ca
:10e8f40035d007000002be000400be00a8d0070007
:10e904000002be0004027800010037000002eb00a0
:10e91400040078000080fa00000006000000fa00fd
:10e924000002eb00c45d88000080fa0000000600cd
:10e934000000fa00c45d8000050020000400be0051
:10e94400b5d007000002be0032b22d0093d72300d9
:10e954000400be0007d107000002be000400be0090
:10e964000080fa00000006000400fa00c45d800084
:10e97400050020000400be00a7d007000002be006e
:10e9840032b22d0093d723000400be00f9d0070053
:10e994000002be00048fbe000002eb00c45d8800cc
:10e9a4001e02be000400be000080fa000000060043
:10e9b4000200fa00680007001ef307006e0007005b
:10e9c400f1c0b300c0c3b300730007000042780075
:10e9d400044f78006c00070004c4b3009e42780022
:10e9e40084cf520005003a0014c0b30004437800f9
:10e9f40085e92000864a7800040037000042eb00d5
:10ea04000443780085e92000864a78000080fa00f3
:10ea1400000006000000fa00c4c2a900c4e2a90074
:10ea2400c522a900c582a900c542a900c5a2a900a2
:10ea3400c5c2a900c5e2a900c0c2a900c0e2a900dc
:10ea4400c122a900c182a900c142a900c1a2a90092
:10ea5400c1c2a900c1e2a900d022a900cc22a90008
:10ea6400d042a900cc42a900e2e2a900e302a90035
:10ea7400e802a900e822a900dee2a900df02a90059
:10ea8400e402a900e422a900e202a900de02a9002e
:10ea9400d602a900d622a900d642a900d662a900ae
:10eaa400d682a900d6a2a900d6c2a900d6e2a9009e
:10eab400d202a900d222a900d242a900d262a9009e
:10eac400d282a900d2a2a900d2c2a900d2e2a9008e
:10ead400d1a2a900cda2a900e842a900e862a90038
:10eae400e442a900e462a900de22a800dec2a80074
:10eaf400e4c2a800e4e2a800e502a800e522a80018
:10eb0400d302a800d322a800d342a800d362a8004d
:10eb1400d382a800d3a2a800d3c2a800d3e2a8003d
:10eb2400a3ff070084e9200014427800e04f52005c
:10eb34000100320024f107000080fa000000060002
:10eb44000000fa0084e920001442780004407800b0
:10eb54000080fa00000006000000fa008ef20700b0
:10eb64000080fa00000006000000fa00a7f2070087
:10eb74000080fa00000006000000fa00d4f207004a
:10eb84000080fa00000006000000fa00d7f2070037
:10eb94000080fa00000006000400fa0020479800f4
:10eba400314798000042eb00044f78002100370001
:10ebb40014c0b300044f7800d3f207000042780079
:10ebc4001e4f62002e409000e4f3070000427800dc
:10ebd4001e4f62003e409000e0f3070000427800c0
:10ebe4001e4f6200eaf20700004278001e4f6200e6
:10ebf4002e4290000442e80004407800d7f3070056
:10ec0400004278001e4f62000e02e8000400780003
:10ec140083f30700004278001e4f62004df30700a3
:10ec2400fdf207001e427800e04f520005003a0052
:10ec340080f207001e427800e04f5200dcff3200f1
:10ec440001003700000000001e42900004407800dc
:10ec54000080fa00000006000600fa002047980031
:10ec640031479800424798000042eb00044f780077
:10ec74001800370014c0b300044f7800a2f2070054
:10ec8400004278001e4f62002e409000b3f307004c
:10ec9400004278001e4f62003e409000aff3070030
:10eca400004278001e4f62004e409000abf3070014
:10ecb400004278001e4f6200d7f20700004278003d
:10ecc4001e4f62001e427800e04f520005003a00d9
:10ecd40058f207001e427800e04f5200e5ff320070
:10ece40001003700000000001e4278000440780054
:10ecf4000080fa00000006003200f800900188004d
:10ed04006118e100040032007018e10002003200d2
:10ed1400f0ff2f00030037003119ba008301e90026
:10ed2400fdff3a003200f90000000600849fbe0097
:10ed34004220a900440424006110e1000a003200ca
:10ed4400540424007010e10007003200640424001d
:10ed5400f5ff2f000510e10003003200f0ff2f0043
:10ed64004f02be00000006003200f800203b88007d
:10ed7400113b8800043b88004200f800000e20008c
:10ed84004220b70050052000303b8800a00a200034
:10ed9400303b880061e7a80000000000000000008c
:10eda40061e7af00feff37000000eb004200f9000e
:10edb4003200f9004f02be0000000600841f7800f4
:10edc4004220a900440024006118e100060032003a
:10edd400540024007018e100030032004f02780050
:10ede400f0ff2f00000006003200f80091018800b7
:10edf400821f78003019bb008301e900fdff3a004f
:10ee0400213b88004f017800123b8800043b8800b6
:10ee14004200f800000e20004220b70050052000f8
:10ee2400303b8800a00a2000303b880061e7a8003e
:10ee3400000000000000000061e7af00feff3700a3
:10ee44000000eb004200f9003200f9004f027800a4
:10ee5400000006008540a900809fbe00821f780044
:10ee64008e0ee200150032008a0ee2001600320017
:10ee74008c0ee20014003200517480004200200025
:10ee84000f22af00feff3700607480000000e00036
:10ee9400070032000000e9008caeb7003140780072
:10eea40010e2b7000201e900f5ff3a000200370062
:10eeb4008a2eef0001003700517488004f0178005a
:10eec4004f00be000040060000002000707488005f
:10eed4004f0178004f00be00004006008e0ee20095
:10eee400feff3a008d40a9008100e90061748800aa
:10eef400b040780081108800507488001100200010
:10ef0400717488008d40a8000000060070748000b1
:10ef140000000600809fbe008520a9000e22a900e3
:10ef24000e02ab000800320040718000f003b20012
:10ef340081de20008100400012c2bf0080487800ba
:10ef4400282eec00f6ff37004f00be0000400600fc
:10ef540040718000517180000100500000000600e3
:10ef640041718000527180000208e1000800320003
:10ef7400f203b20081de200002814000924078005a
:10ef8400014878002a2eec00100020000000060042
:10ef94000000eb000000060000a0fe0086a0a9000f
:10efa4001421ef0000000000e15d800062bc20003d
:10efb40013002000321ce100050032000800350077
:10efc400000000000000000000000000f9ff37000e
:10efd400a01680004800de0080587800f5ff370056
:10efe400e15d8800c22bec00105e8000c40be300de
:10eff40003003a0010002000f05d88001fe1a90022
:10f004000080fe00004006000c22ef000e22ef00fc
:10f014000ee2a9000ec2a9008520a9008d20a80037
:10f024000de2a80070002000a01088008540a9000f
:10f034008d40a80081e0a900c0048000f1002f00e9
:10f04400008060000155200000804000c00488005a
:10f054000fe2a8000f42a800282eef002a2eef008e
:04f0640000000600a2
:00000001FF
